{"abi":[{"type":"constructor","inputs":[{"name":"_owner","type":"address","internalType":"address"}],"stateMutability":"nonpayable"},{"type":"function","name":"MAX_PRICE_STALENESS","inputs":[],"outputs":[{"name":"","type":"uint256","internalType":"uint256"}],"stateMutability":"view"},{"type":"function","name":"MAX_VALID_PRICE","inputs":[],"outputs":[{"name":"","type":"uint256","internalType":"uint256"}],"stateMutability":"view"},{"type":"function","name":"MIN_VALID_PRICE","inputs":[],"outputs":[{"name":"","type":"uint256","internalType":"uint256"}],"stateMutability":"view"},{"type":"function","name":"addPriceFeed","inputs":[{"name":"token0","type":"address","internalType":"Currency"},{"name":"token1","type":"address","internalType":"Currency"},{"name":"priceFeed","type":"address","internalType":"address"}],"outputs":[],"stateMutability":"nonpayable"},{"type":"function","name":"getLastUpdateTime","inputs":[{"name":"token0","type":"address","internalType":"Currency"},{"name":"token1","type":"address","internalType":"Currency"}],"outputs":[{"name":"timestamp","type":"uint256","internalType":"uint256"}],"stateMutability":"view"},{"type":"function","name":"getPrice","inputs":[{"name":"token0","type":"address","internalType":"Currency"},{"name":"token1","type":"address","internalType":"Currency"}],"outputs":[{"name":"price","type":"uint256","internalType":"uint256"}],"stateMutability":"view"},{"type":"function","name":"getPriceAtTime","inputs":[{"name":"token0","type":"address","internalType":"Currency"},{"name":"token1","type":"address","internalType":"Currency"},{"name":"timestamp","type":"uint256","internalType":"uint256"}],"outputs":[{"name":"price","type":"uint256","internalType":"uint256"}],"stateMutability":"view"},{"type":"function","name":"isPriceStale","inputs":[{"name":"token0","type":"address","internalType":"Currency"},{"name":"token1","type":"address","internalType":"Currency"}],"outputs":[{"name":"stale","type":"bool","internalType":"bool"}],"stateMutability":"view"},{"type":"function","name":"owner","inputs":[],"outputs":[{"name":"","type":"address","internalType":"address"}],"stateMutability":"view"},{"type":"function","name":"priceFeeds","inputs":[{"name":"","type":"bytes32","internalType":"bytes32"}],"outputs":[{"name":"","type":"address","internalType":"contract AggregatorV3Interface"}],"stateMutability":"view"},{"type":"function","name":"removePriceFeed","inputs":[{"name":"token0","type":"address","internalType":"Currency"},{"name":"token1","type":"address","internalType":"Currency"}],"outputs":[],"stateMutability":"nonpayable"},{"type":"function","name":"renounceOwnership","inputs":[],"outputs":[],"stateMutability":"nonpayable"},{"type":"function","name":"transferOwnership","inputs":[{"name":"newOwner","type":"address","internalType":"address"}],"outputs":[],"stateMutability":"nonpayable"},{"type":"event","name":"OwnershipTransferred","inputs":[{"name":"previousOwner","type":"address","indexed":true,"internalType":"address"},{"name":"newOwner","type":"address","indexed":true,"internalType":"address"}],"anonymous":false},{"type":"event","name":"PriceFeedAdded","inputs":[{"name":"token0","type":"address","indexed":false,"internalType":"Currency"},{"name":"token1","type":"address","indexed":false,"internalType":"Currency"},{"name":"priceFeed","type":"address","indexed":false,"internalType":"address"}],"anonymous":false},{"type":"event","name":"PriceFeedRemoved","inputs":[{"name":"token0","type":"address","indexed":false,"internalType":"Currency"},{"name":"token1","type":"address","indexed":false,"internalType":"Currency"}],"anonymous":false},{"type":"error","name":"InvalidPriceData","inputs":[]},{"type":"error","name":"NoPriceFeedConfigured","inputs":[]},{"type":"error","name":"OwnableInvalidOwner","inputs":[{"name":"owner","type":"address","internalType":"address"}]},{"type":"error","name":"OwnableUnauthorizedAccount","inputs":[{"name":"account","type":"address","internalType":"address"}]},{"type":"error","name":"StalePriceData","inputs":[]}],"bytecode":{"object":"0x608060405234801561000f575f80fd5b506040516117e33803806117e3833981810160405281019061003191906101d7565b805f73ffffffffffffffffffffffffffffffffffffffff168173ffffffffffffffffffffffffffffffffffffffff16036100a2575f6040517f1e4fbdf70000000000000000000000000000000000000000000000000000000081526004016100999190610211565b60405180910390fd5b6100b1816100b860201b60201c565b505061022a565b5f805f9054906101000a900473ffffffffffffffffffffffffffffffffffffffff169050815f806101000a81548173ffffffffffffffffffffffffffffffffffffffff021916908373ffffffffffffffffffffffffffffffffffffffff1602179055508173ffffffffffffffffffffffffffffffffffffffff168173ffffffffffffffffffffffffffffffffffffffff167f8be0079c531659141344cd1fd0a4f28419497f9722a3daafe3b4186f6b6457e060405160405180910390a35050565b5f80fd5b5f73ffffffffffffffffffffffffffffffffffffffff82169050919050565b5f6101a68261017d565b9050919050565b6101b68161019c565b81146101c0575f80fd5b50565b5f815190506101d1816101ad565b92915050565b5f602082840312156101ec576101eb610179565b5b5f6101f9848285016101c3565b91505092915050565b61020b8161019c565b82525050565b5f6020820190506102245f830184610202565b92915050565b6115ac806102375f395ff3fe608060405234801561000f575f80fd5b50600436106100cd575f3560e01c8063715018a61161008a578063c14343f411610064578063c14343f4146101fd578063c6c3f71e1461022d578063d6913b321461025d578063f2fde38b1461027b576100cd565b8063715018a6146101a55780638da5cb5b146101af578063ac41865a146101cd576100cd565b80630f65dfc5146100d15780631b10a9491461010157806359f5a87f1461011d5780635e41a2821461014d57806366c4968a14610169578063685d5a7414610187575b5f80fd5b6100eb60048036038101906100e69190610d56565b610297565b6040516100f89190610db5565b60405180910390f35b61011b60048036038101906101169190610df8565b61031b565b005b61013760048036038101906101329190610e48565b61042e565b6040516101449190610db5565b60405180910390f35b61016760048036038101906101629190610e48565b610534565b005b6101716105ba565b60405161017e9190610db5565b60405180910390f35b61018f6105cb565b60405161019c9190610db5565b60405180910390f35b6101ad6105d0565b005b6101b76105e3565b6040516101c49190610e95565b60405180910390f35b6101e760048036038101906101e29190610e48565b61060a565b6040516101f49190610db5565b60405180910390f35b61021760048036038101906102129190610e48565b61088b565b6040516102249190610ec8565b60405180910390f35b61024760048036038101906102429190610f14565b6109ad565b6040516102549190610f9a565b60405180910390f35b6102656109dd565b6040516102729190610db5565b60405180910390f35b61029560048036038101906102909190610fb3565b6109e3565b005b5f3073ffffffffffffffffffffffffffffffffffffffff1663ac41865a85856040518363ffffffff1660e01b81526004016102d3929190610ffe565b602060405180830381865afa1580156102ee573d5f803e3d5ffd5b505050506040513d601f19601f820116820180604052508101906103129190611039565b90509392505050565b610323610a67565b5f73ffffffffffffffffffffffffffffffffffffffff168173ffffffffffffffffffffffffffffffffffffffff1603610391576040517f08c379a0000000000000000000000000000000000000000000000000000000008152600401610388906110be565b60405180910390fd5b5f61039c8484610aee565b90508160015f8381526020019081526020015f205f6101000a81548173ffffffffffffffffffffffffffffffffffffffff021916908373ffffffffffffffffffffffffffffffffffffffff1602179055507f1bfb6cf590e29574156886678ab2eb7fe658fbea224c52c020172df30f2f7169848484604051610420939291906110dc565b60405180910390a150505050565b5f8061043a8484610aee565b90505f60015f8381526020019081526020015f205f9054906101000a900473ffffffffffffffffffffffffffffffffffffffff1690505f73ffffffffffffffffffffffffffffffffffffffff168173ffffffffffffffffffffffffffffffffffffffff16036104ad575f9250505061052e565b8073ffffffffffffffffffffffffffffffffffffffff1663feaf968c6040518163ffffffff1660e01b815260040160a060405180830381865afa1580156104f6573d5f803e3d5ffd5b505050506040513d601f19601f8201168201806040525081019061051a9190611183565b909192935090919250909150508093505050505b92915050565b61053c610a67565b5f6105478383610aee565b905060015f8281526020019081526020015f205f6101000a81549073ffffffffffffffffffffffffffffffffffffffff02191690557fac49089020c52dc09b25997730450c4b6b62a7637a33c7ee7d4a3b9bbafb73e983836040516105ad929190610ffe565b60405180910390a1505050565b6c0c9f2c9cd04674edea4000000081565b600181565b6105d8610a67565b6105e15f610b85565b565b5f805f9054906101000a900473ffffffffffffffffffffffffffffffffffffffff16905090565b5f806106168484610aee565b90505f60015f8381526020019081526020015f205f9054906101000a900473ffffffffffffffffffffffffffffffffffffffff1690505f73ffffffffffffffffffffffffffffffffffffffff168173ffffffffffffffffffffffffffffffffffffffff16036106b1576040517fd2fea18d00000000000000000000000000000000000000000000000000000000815260040160405180910390fd5b5f808273ffffffffffffffffffffffffffffffffffffffff1663feaf968c6040518163ffffffff1660e01b815260040160a060405180830381865afa1580156106fc573d5f803e3d5ffd5b505050506040513d601f19601f820116820180604052508101906107209190611183565b509350509250505f8213610760576040517ff45e167b00000000000000000000000000000000000000000000000000000000815260040160405180910390fd5b804211801561077b5750610e1081426107799190611227565b115b156107b2576040517f355e186c00000000000000000000000000000000000000000000000000000000815260040160405180910390fd5b5f8373ffffffffffffffffffffffffffffffffffffffff1663313ce5676040518163ffffffff1660e01b8152600401602060405180830381865afa1580156107fc573d5f803e3d5ffd5b505050506040513d601f19601f820116820180604052508101906108209190611290565b905061082c8382610c46565b9550600186108061084957506c0c9f2c9cd04674edea4000000086115b15610880576040517ff45e167b00000000000000000000000000000000000000000000000000000000815260040160405180910390fd5b505050505092915050565b5f806108978484610aee565b90505f60015f8381526020019081526020015f205f9054906101000a900473ffffffffffffffffffffffffffffffffffffffff1690505f73ffffffffffffffffffffffffffffffffffffffff168173ffffffffffffffffffffffffffffffffffffffff160361090b576001925050506109a7565b5f8173ffffffffffffffffffffffffffffffffffffffff1663feaf968c6040518163ffffffff1660e01b815260040160a060405180830381865afa158015610955573d5f803e3d5ffd5b505050506040513d601f19601f820116820180604052508101906109799190611183565b509350505050804211610991575f93505050506109a7565b610e1081426109a09190611227565b1193505050505b92915050565b6001602052805f5260405f205f915054906101000a900473ffffffffffffffffffffffffffffffffffffffff1681565b610e1081565b6109eb610a67565b5f73ffffffffffffffffffffffffffffffffffffffff168173ffffffffffffffffffffffffffffffffffffffff1603610a5b575f6040517f1e4fbdf7000000000000000000000000000000000000000000000000000000008152600401610a529190610e95565b60405180910390fd5b610a6481610b85565b50565b610a6f610cbe565b73ffffffffffffffffffffffffffffffffffffffff16610a8d6105e3565b73ffffffffffffffffffffffffffffffffffffffff1614610aec57610ab0610cbe565b6040517f118cdaa7000000000000000000000000000000000000000000000000000000008152600401610ae39190610e95565b60405180910390fd5b565b5f8173ffffffffffffffffffffffffffffffffffffffff168373ffffffffffffffffffffffffffffffffffffffff161015610b53578282604051602001610b36929190611300565b604051602081830303815290604052805190602001209050610b7f565b8183604051602001610b66929190611300565b6040516020818303038152906040528051906020012090505b92915050565b5f805f9054906101000a900473ffffffffffffffffffffffffffffffffffffffff169050815f806101000a81548173ffffffffffffffffffffffffffffffffffffffff021916908373ffffffffffffffffffffffffffffffffffffffff1602179055508173ffffffffffffffffffffffffffffffffffffffff168173ffffffffffffffffffffffffffffffffffffffff167f8be0079c531659141344cd1fd0a4f28419497f9722a3daafe3b4186f6b6457e060405160405180910390a35050565b5f60128260ff1603610c5a57829050610cb8565b60128260ff161015610c9157816012610c73919061132b565b600a610c7f919061148e565b83610c8a91906114d8565b9050610cb8565b601282610c9e919061132b565b600a610caa919061148e565b83610cb59190611546565b90505b92915050565b5f33905090565b5f80fd5b5f73ffffffffffffffffffffffffffffffffffffffff82169050919050565b5f610cf282610cc9565b9050919050565b610d0281610ce8565b8114610d0c575f80fd5b50565b5f81359050610d1d81610cf9565b92915050565b5f819050919050565b610d3581610d23565b8114610d3f575f80fd5b50565b5f81359050610d5081610d2c565b92915050565b5f805f60608486031215610d6d57610d6c610cc5565b5b5f610d7a86828701610d0f565b9350506020610d8b86828701610d0f565b9250506040610d9c86828701610d42565b9150509250925092565b610daf81610d23565b82525050565b5f602082019050610dc85f830184610da6565b92915050565b610dd781610ce8565b8114610de1575f80fd5b50565b5f81359050610df281610dce565b92915050565b5f805f60608486031215610e0f57610e0e610cc5565b5b5f610e1c86828701610d0f565b9350506020610e2d86828701610d0f565b9250506040610e3e86828701610de4565b9150509250925092565b5f8060408385031215610e5e57610e5d610cc5565b5b5f610e6b85828601610d0f565b9250506020610e7c85828601610d0f565b9150509250929050565b610e8f81610ce8565b82525050565b5f602082019050610ea85f830184610e86565b92915050565b5f8115159050919050565b610ec281610eae565b82525050565b5f602082019050610edb5f830184610eb9565b92915050565b5f819050919050565b610ef381610ee1565b8114610efd575f80fd5b50565b5f81359050610f0e81610eea565b92915050565b5f60208284031215610f2957610f28610cc5565b5b5f610f3684828501610f00565b91505092915050565b5f819050919050565b5f610f62610f5d610f5884610cc9565b610f3f565b610cc9565b9050919050565b5f610f7382610f48565b9050919050565b5f610f8482610f69565b9050919050565b610f9481610f7a565b82525050565b5f602082019050610fad5f830184610f8b565b92915050565b5f60208284031215610fc857610fc7610cc5565b5b5f610fd584828501610de4565b91505092915050565b5f610fe882610f69565b9050919050565b610ff881610fde565b82525050565b5f6040820190506110115f830185610fef565b61101e6020830184610fef565b9392505050565b5f8151905061103381610d2c565b92915050565b5f6020828403121561104e5761104d610cc5565b5b5f61105b84828501611025565b91505092915050565b5f82825260208201905092915050565b7f496e76616c6964207072696365206665656420616464726573730000000000005f82015250565b5f6110a8601a83611064565b91506110b382611074565b602082019050919050565b5f6020820190508181035f8301526110d58161109c565b9050919050565b5f6060820190506110ef5f830186610fef565b6110fc6020830185610fef565b6111096040830184610e86565b949350505050565b5f69ffffffffffffffffffff82169050919050565b61112f81611111565b8114611139575f80fd5b50565b5f8151905061114a81611126565b92915050565b5f819050919050565b61116281611150565b811461116c575f80fd5b50565b5f8151905061117d81611159565b92915050565b5f805f805f60a0868803121561119c5761119b610cc5565b5b5f6111a98882890161113c565b95505060206111ba8882890161116f565b94505060406111cb88828901611025565b93505060606111dc88828901611025565b92505060806111ed8882890161113c565b9150509295509295909350565b7f4e487b71000000000000000000000000000000000000000000000000000000005f52601160045260245ffd5b5f61123182610d23565b915061123c83610d23565b9250828203905081811115611254576112536111fa565b5b92915050565b5f60ff82169050919050565b61126f8161125a565b8114611279575f80fd5b50565b5f8151905061128a81611266565b92915050565b5f602082840312156112a5576112a4610cc5565b5b5f6112b28482850161127c565b91505092915050565b5f8160601b9050919050565b5f6112d1826112bb565b9050919050565b5f6112e2826112c7565b9050919050565b6112fa6112f582610fde565b6112d8565b82525050565b5f61130b82856112e9565b60148201915061131b82846112e9565b6014820191508190509392505050565b5f6113358261125a565b91506113408361125a565b9250828203905060ff811115611359576113586111fa565b5b92915050565b5f8160011c9050919050565b5f808291508390505b60018511156113b4578086048111156113905761138f6111fa565b5b600185161561139f5780820291505b80810290506113ad8561135f565b9450611374565b94509492505050565b5f826113cc5760019050611487565b816113d9575f9050611487565b81600181146113ef57600281146113f957611428565b6001915050611487565b60ff84111561140b5761140a6111fa565b5b8360020a915084821115611422576114216111fa565b5b50611487565b5060208310610133831016604e8410600b841016171561145d5782820a905083811115611458576114576111fa565b5b611487565b61146a848484600161136b565b92509050818404811115611481576114806111fa565b5b81810290505b9392505050565b5f61149882610d23565b91506114a38361125a565b92506114d07fffffffffffffffffffffffffffffffffffffffffffffffffffffffffffffffff84846113bd565b905092915050565b5f6114e282610d23565b91506114ed83610d23565b92508282026114fb81610d23565b91508282048414831517611512576115116111fa565b5b5092915050565b7f4e487b71000000000000000000000000000000000000000000000000000000005f52601260045260245ffd5b5f61155082610d23565b915061155b83610d23565b92508261156b5761156a611519565b5b82820490509291505056fea2646970667358221220d968175b88274686cd148babccef5207091c447d5fd9b7bdc8c928344cb1dc4664736f6c634300081a0033","linkReferences":{}},"methodIdentifiers":{"MAX_PRICE_STALENESS()":"d6913b32","MAX_VALID_PRICE()":"66c4968a","MIN_VALID_PRICE()":"685d5a74","addPriceFeed(address,address,address)":"1b10a949","getLastUpdateTime(address,address)":"59f5a87f","getPrice(address,address)":"ac41865a","getPriceAtTime(address,address,uint256)":"0f65dfc5","isPriceStale(address,address)":"c14343f4","owner()":"8da5cb5b","priceFeeds(bytes32)":"c6c3f71e","removePriceFeed(address,address)":"5e41a282","renounceOwnership()":"715018a6","transferOwnership(address)":"f2fde38b"},"id":66}