{"abi":[{"type":"constructor","inputs":[{"name":"_priceOracle","type":"address","internalType":"contract ChainlinkPriceOracle"}],"stateMutability":"nonpayable"},{"type":"function","name":"addCustomPriceFeed","inputs":[{"name":"token0","type":"address","internalType":"address"},{"name":"token1","type":"address","internalType":"address"},{"name":"priceFeed","type":"address","internalType":"address"}],"outputs":[],"stateMutability":"nonpayable"},{"type":"function","name":"autoConfigureNetwork","inputs":[],"outputs":[],"stateMutability":"nonpayable"},{"type":"function","name":"batchAddPriceFeeds","inputs":[{"name":"configs","type":"tuple[]","internalType":"struct ProductionPriceFeedConfig.PriceFeedConfig[]","components":[{"name":"token0","type":"address","internalType":"address"},{"name":"token1","type":"address","internalType":"address"},{"name":"priceFeed","type":"address","internalType":"address"},{"name":"description","type":"string","internalType":"string"},{"name":"isActive","type":"bool","internalType":"bool"}]}],"outputs":[],"stateMutability":"nonpayable"},{"type":"function","name":"configureArbitrum","inputs":[],"outputs":[],"stateMutability":"nonpayable"},{"type":"function","name":"configureBase","inputs":[],"outputs":[],"stateMutability":"nonpayable"},{"type":"function","name":"configureMainnet","inputs":[],"outputs":[],"stateMutability":"nonpayable"},{"type":"function","name":"configureSepolia","inputs":[],"outputs":[],"stateMutability":"nonpayable"},{"type":"function","name":"emergencyReconfigure","inputs":[],"outputs":[],"stateMutability":"nonpayable"},{"type":"function","name":"getCurrentNetworkName","inputs":[],"outputs":[{"name":"","type":"string","internalType":"string"}],"stateMutability":"view"},{"type":"function","name":"isCurrentNetworkConfigured","inputs":[],"outputs":[{"name":"","type":"bool","internalType":"bool"}],"stateMutability":"view"},{"type":"function","name":"networkConfigured","inputs":[{"name":"","type":"uint256","internalType":"uint256"}],"outputs":[{"name":"","type":"bool","internalType":"bool"}],"stateMutability":"view"},{"type":"function","name":"owner","inputs":[],"outputs":[{"name":"","type":"address","internalType":"address"}],"stateMutability":"view"},{"type":"function","name":"priceOracle","inputs":[],"outputs":[{"name":"","type":"address","internalType":"contract ChainlinkPriceOracle"}],"stateMutability":"view"},{"type":"function","name":"removePriceFeed","inputs":[{"name":"token0","type":"address","internalType":"address"},{"name":"token1","type":"address","internalType":"address"}],"outputs":[],"stateMutability":"nonpayable"},{"type":"function","name":"renounceOwnership","inputs":[],"outputs":[],"stateMutability":"nonpayable"},{"type":"function","name":"transferOwnership","inputs":[{"name":"newOwner","type":"address","internalType":"address"}],"outputs":[],"stateMutability":"nonpayable"},{"type":"event","name":"NetworkConfigured","inputs":[{"name":"chainId","type":"uint256","indexed":true,"internalType":"uint256"},{"name":"feedCount","type":"uint256","indexed":false,"internalType":"uint256"}],"anonymous":false},{"type":"event","name":"OwnershipTransferred","inputs":[{"name":"previousOwner","type":"address","indexed":true,"internalType":"address"},{"name":"newOwner","type":"address","indexed":true,"internalType":"address"}],"anonymous":false},{"type":"event","name":"PriceFeedAdded","inputs":[{"name":"token0","type":"address","indexed":true,"internalType":"address"},{"name":"token1","type":"address","indexed":true,"internalType":"address"},{"name":"priceFeed","type":"address","indexed":false,"internalType":"address"}],"anonymous":false},{"type":"event","name":"PriceFeedRemoved","inputs":[{"name":"token0","type":"address","indexed":true,"internalType":"address"},{"name":"token1","type":"address","indexed":true,"internalType":"address"}],"anonymous":false},{"type":"error","name":"OwnableInvalidOwner","inputs":[{"name":"owner","type":"address","internalType":"address"}]},{"type":"error","name":"OwnableUnauthorizedAccount","inputs":[{"name":"account","type":"address","internalType":"address"}]}],"bytecode":{"object":"0x60a060405234801561000f575f80fd5b506040516121873803806121878339818101604052810190610031919061021c565b335f73ffffffffffffffffffffffffffffffffffffffff168173ffffffffffffffffffffffffffffffffffffffff16036100a2575f6040517f1e4fbdf70000000000000000000000000000000000000000000000000000000081526004016100999190610256565b60405180910390fd5b6100b1816100ec60201b60201c565b508073ffffffffffffffffffffffffffffffffffffffff1660808173ffffffffffffffffffffffffffffffffffffffff16815250505061026f565b5f805f9054906101000a900473ffffffffffffffffffffffffffffffffffffffff169050815f806101000a81548173ffffffffffffffffffffffffffffffffffffffff021916908373ffffffffffffffffffffffffffffffffffffffff1602179055508173ffffffffffffffffffffffffffffffffffffffff168173ffffffffffffffffffffffffffffffffffffffff167f8be0079c531659141344cd1fd0a4f28419497f9722a3daafe3b4186f6b6457e060405160405180910390a35050565b5f80fd5b5f73ffffffffffffffffffffffffffffffffffffffff82169050919050565b5f6101da826101b1565b9050919050565b5f6101eb826101d0565b9050919050565b6101fb816101e1565b8114610205575f80fd5b50565b5f81519050610216816101f2565b92915050565b5f60208284031215610231576102306101ad565b5b5f61023e84828501610208565b91505092915050565b610250816101d0565b82525050565b5f6020820190506102695f830184610247565b92915050565b608051611eeb61029c5f395f81816102a3015281816105b8015281816111d101526114240152611eeb5ff3fe608060405234801561000f575f80fd5b50600436106100fe575f3560e01c80637e857f9b116100955780638da5cb5b116100645780638da5cb5b146102125780639b21115514610230578063e5c577ed1461023a578063f2fde38b14610244576100fe565b80637e857f9b146101c45780637ea85a05146101e057806381faaa96146101fe578063881e9e8514610208576100fe565b80633743e1db116100d15780633743e1db1461018a5780635e41a282146101945780635f952967146101b0578063715018a6146101ba576100fe565b806303807a9e146101025780631dc2b189146101325780632630c12f1461015057806333cf226c1461016e575b5f80fd5b61011c60048036038101906101179190611563565b610260565b60405161012991906115a8565b60405180910390f35b61013a61027d565b60405161014791906115a8565b60405180910390f35b6101586102a1565b604051610165919061163b565b60405180910390f35b6101886004803603810190610183919061168f565b6102c5565b005b610192610313565b005b6101ae60048036038101906101a991906116df565b6105ae565b005b6101b861069c565b005b6101c26106d6565b005b6101de60048036038101906101d9919061177e565b6106e9565b005b6101e861075d565b6040516101f59190611839565b60405180910390f35b610206610903565b005b610210610c38565b005b61021a610e63565b6040516102279190611868565b60405180910390f35b610238610e8a565b005b6102426110b2565b005b61025e60048036038101906102599190611881565b6110c4565b005b6001602052805f5260405f205f915054906101000a900460ff1681565b5f60015f4681526020019081526020015f205f9054906101000a900460ff16905090565b7f000000000000000000000000000000000000000000000000000000000000000081565b6102cd611148565b61030e8383836040518060400160405280600681526020017f437573746f6d00000000000000000000000000000000000000000000000000008152506111cf565b505050565b61031b611148565b60015f61a4b181526020019081526020015f205f9054906101000a900460ff161561037b576040517f08c379a0000000000000000000000000000000000000000000000000000000008152600401610372906118f6565b60405180910390fd5b5f7382af49447d8a07e3bd95bd0d56f35241523fbab190505f73af88d065e77c8cc2239327c5edb3a432268e583190505f73912ce59144191c1204e64559fe8253a0e49e654890505f73da10009cbd5d07dd0cecc66161fc93d7c9000da190505f73639fe6ab55c921f74e7fac1ee960c0b6293ba61290505f7350834f3163758fcc1df9973b6e91f0f0f0434ad390505f73b2a824043730fe05f3da2efafa1cbbe83fa548d690505f73c5c8e77b397e531b8ec06bfb0048328b30e9ecfb905061047c8888866040518060400160405280601281526020017f4554482f5553442028417262697472756d2900000000000000000000000000008152506111cf565b6104bd8688846040518060400160405280601281526020017f4152422f5553442028417262697472756d2900000000000000000000000000008152506111cf565b6104fe8786856040518060400160405280601381526020017f555344432f5553442028417262697472756d29000000000000000000000000008152506111cf565b61053f8588836040518060400160405280601281526020017f4441492f5553442028417262697472756d2900000000000000000000000000008152506111cf565b6001805f61a4b181526020019081526020015f205f6101000a81548160ff02191690831515021790555061a4b17f8f22da452c6c8505b1bc8887b4fd0722a07616b5e16c5d0a09aa71b8722cccbe600460405161059c919061194d565b60405180910390a25050505050505050565b6105b6611148565b7f000000000000000000000000000000000000000000000000000000000000000073ffffffffffffffffffffffffffffffffffffffff16635e41a28283836040518363ffffffff1660e01b8152600401610611929190611986565b5f604051808303815f87803b158015610628575f80fd5b505af115801561063a573d5f803e3d5ffd5b505050508073ffffffffffffffffffffffffffffffffffffffff168273ffffffffffffffffffffffffffffffffffffffff167fac49089020c52dc09b25997730450c4b6b62a7637a33c7ee7d4a3b9bbafb73e960405160405180910390a35050565b6106a4611148565b5f60015f4681526020019081526020015f205f6101000a81548160ff0219169083151502179055506106d46112c4565b565b6106de611148565b6106e75f611361565b565b6106f1611148565b5f5b82829050811015610758575f838383818110610712576107116119ad565b5b905060200281019061072491906119de565b61072d90611c04565b905061074a815f01518260200151836040015184606001516111cf565b5080806001019150506106f3565b505050565b60605f469050600181036107a9576040518060400160405280601081526020017f457468657265756d204d61696e6e657400000000000000000000000000000000815250915050610900565b62aa36a781036107f1576040518060400160405280600f81526020017f5365706f6c696120546573746e65740000000000000000000000000000000000815250915050610900565b6121058103610838576040518060400160405280600481526020017f4261736500000000000000000000000000000000000000000000000000000000815250915050610900565b61a4b1810361087f576040518060400160405280600c81526020017f417262697472756d204f6e650000000000000000000000000000000000000000815250915050610900565b617a6981036108c6576040518060400160405280600981526020017f4c6f63616c686f73740000000000000000000000000000000000000000000000815250915050610900565b6040518060400160405280600f81526020017f556e6b6e6f776e204e6574776f726b00000000000000000000000000000000008152509150505b90565b61090b611148565b60015f600181526020019081526020015f205f9054906101000a900460ff161561096a576040517f08c379a000000000000000000000000000000000000000000000000000000000815260040161096190611c60565b60405180910390fd5b5f73c02aaa39b223fe8d0a0e5c4f27ead9083c756cc290505f73a0b86a33e6441c4c27d3f50c9d6d14bdf12f4e6e90505f73dac17f958d2ee523a2206206994597c13d831ec790505f736b175474e89094c44da98b954eedeac495271d0f90505f732260fac5e5542a773aa44fbcfedf7c193bc2c59990505f735f4ec3df9cbd43714fe2740f5e3616155c5b841990505f73f4030086522a5beea4988f8ca5b36dbc97bee88c90505f738fffffd4afb6115b954bd326cbe7b4ba576818f690505f73aed0c38402a5d19df6e4c03f4e2dced6e29c1ee99050610a838989866040518060400160405280600781526020017f4554482f555344000000000000000000000000000000000000000000000000008152506111cf565b610ac48589856040518060400160405280600781526020017f4254432f555344000000000000000000000000000000000000000000000000008152506111cf565b610b058887846040518060400160405280600881526020017f555344432f5553440000000000000000000000000000000000000000000000008152506111cf565b610b468689836040518060400160405280600781526020017f4441492f555344000000000000000000000000000000000000000000000000008152506111cf565b610b88898686866040518060400160405280600781526020017f4554482f42544300000000000000000000000000000000000000000000000000815250611422565b610bca898786846040518060400160405280600781526020017f4554482f44414900000000000000000000000000000000000000000000000000815250611422565b6001805f600181526020019081526020015f205f6101000a81548160ff02191690831515021790555060017f8f22da452c6c8505b1bc8887b4fd0722a07616b5e16c5d0a09aa71b8722cccbe6006604051610c259190611cb7565b60405180910390a2505050505050505050565b610c40611148565b60015f62aa36a781526020019081526020015f205f9054906101000a900460ff1615610ca1576040517f08c379a0000000000000000000000000000000000000000000000000000000008152600401610c9890611d1a565b60405180910390fd5b5f73fff9976782d46cc05630d1f6ebab18b2324d6b1490505f731c7d4b196cb0c7b01d743fbc6116a902379c723890505f73779877a7b0d9e8603169ddbd7836e478b462478990505f73694aa1769357215de4fac081bf1f309adc32530690505f73c59e3633baac79493d908e63626716e204a45edf90505f73a2f78ab2355fe2f984d808b5cee7fd0a93d5270e9050610d728686856040518060400160405280601181526020017f4554482f55534420285365706f6c6961290000000000000000000000000000008152506111cf565b610db38486846040518060400160405280601281526020017f4c494e4b2f55534420285365706f6c69612900000000000000000000000000008152506111cf565b610df48587836040518060400160405280601281526020017f555344432f55534420285365706f6c69612900000000000000000000000000008152506111cf565b6001805f62aa36a781526020019081526020015f205f6101000a81548160ff02191690831515021790555062aa36a77f8f22da452c6c8505b1bc8887b4fd0722a07616b5e16c5d0a09aa71b8722cccbe6003604051610e539190611d71565b60405180910390a2505050505050565b5f805f9054906101000a900473ffffffffffffffffffffffffffffffffffffffff16905090565b610e92611148565b60015f61210581526020019081526020015f205f9054906101000a900460ff1615610ef2576040517f08c379a0000000000000000000000000000000000000000000000000000000008152600401610ee990611dd4565b60405180910390fd5b5f73420000000000000000000000000000000000000690505f73833589fcd6edb6e08f4c7c32d4f71b54bda0291390505f7350c5725949a6f0c72e6c4a641f24049a917db0cb90505f7371041dddad3595f9ced3dccfbe3d1f4b0a16bb7090505f737e860098f58bbfc8648a4311b374b1d669a2bc6b90505f73591e79239a7d679378ec8c847e5038150364c78f9050610fc38686856040518060400160405280600e81526020017f4554482f555344202842617365290000000000000000000000000000000000008152506111cf565b6110048585846040518060400160405280600f81526020017f555344432f5553442028426173652900000000000000000000000000000000008152506111cf565b6110458486836040518060400160405280600e81526020017f4441492f555344202842617365290000000000000000000000000000000000008152506111cf565b6001805f61210581526020019081526020015f205f6101000a81548160ff0219169083151502179055506121057f8f22da452c6c8505b1bc8887b4fd0722a07616b5e16c5d0a09aa71b8722cccbe60036040516110a29190611d71565b60405180910390a2505050505050565b6110ba611148565b6110c26112c4565b565b6110cc611148565b5f73ffffffffffffffffffffffffffffffffffffffff168173ffffffffffffffffffffffffffffffffffffffff160361113c575f6040517f1e4fbdf70000000000000000000000000000000000000000000000000000000081526004016111339190611868565b60405180910390fd5b61114581611361565b50565b611150611518565b73ffffffffffffffffffffffffffffffffffffffff1661116e610e63565b73ffffffffffffffffffffffffffffffffffffffff16146111cd57611191611518565b6040517f118cdaa70000000000000000000000000000000000000000000000000000000081526004016111c49190611868565b60405180910390fd5b565b7f000000000000000000000000000000000000000000000000000000000000000073ffffffffffffffffffffffffffffffffffffffff16631b10a9498585856040518463ffffffff1660e01b815260040161122c93929190611df2565b5f604051808303815f87803b158015611243575f80fd5b505af1158015611255573d5f803e3d5ffd5b505050508273ffffffffffffffffffffffffffffffffffffffff168473ffffffffffffffffffffffffffffffffffffffff167f1bfb6cf590e29574156886678ab2eb7fe658fbea224c52c020172df30f2f7169846040516112b69190611868565b60405180910390a350505050565b5f469050600181036112dd576112d8610903565b61135e565b62aa36a781036112f4576112ef610c38565b61135d565b612105810361130a57611305610e8a565b61135c565b61a4b181036113205761131b610313565b61135b565b6040517f08c379a000000000000000000000000000000000000000000000000000000000815260040161135290611e97565b60405180910390fd5b5b5b5b50565b5f805f9054906101000a900473ffffffffffffffffffffffffffffffffffffffff169050815f806101000a81548173ffffffffffffffffffffffffffffffffffffffff021916908373ffffffffffffffffffffffffffffffffffffffff1602179055508173ffffffffffffffffffffffffffffffffffffffff168173ffffffffffffffffffffffffffffffffffffffff167f8be0079c531659141344cd1fd0a4f28419497f9722a3daafe3b4186f6b6457e060405160405180910390a35050565b7f000000000000000000000000000000000000000000000000000000000000000073ffffffffffffffffffffffffffffffffffffffff16631b10a9498686866040518463ffffffff1660e01b815260040161147f93929190611df2565b5f604051808303815f87803b158015611496575f80fd5b505af11580156114a8573d5f803e3d5ffd5b505050508373ffffffffffffffffffffffffffffffffffffffff168573ffffffffffffffffffffffffffffffffffffffff167f1bfb6cf590e29574156886678ab2eb7fe658fbea224c52c020172df30f2f7169856040516115099190611868565b60405180910390a35050505050565b5f33905090565b5f604051905090565b5f80fd5b5f80fd5b5f819050919050565b61154281611530565b811461154c575f80fd5b50565b5f8135905061155d81611539565b92915050565b5f6020828403121561157857611577611528565b5b5f6115858482850161154f565b91505092915050565b5f8115159050919050565b6115a28161158e565b82525050565b5f6020820190506115bb5f830184611599565b92915050565b5f73ffffffffffffffffffffffffffffffffffffffff82169050919050565b5f819050919050565b5f6116036115fe6115f9846115c1565b6115e0565b6115c1565b9050919050565b5f611614826115e9565b9050919050565b5f6116258261160a565b9050919050565b6116358161161b565b82525050565b5f60208201905061164e5f83018461162c565b92915050565b5f61165e826115c1565b9050919050565b61166e81611654565b8114611678575f80fd5b50565b5f8135905061168981611665565b92915050565b5f805f606084860312156116a6576116a5611528565b5b5f6116b38682870161167b565b93505060206116c48682870161167b565b92505060406116d58682870161167b565b9150509250925092565b5f80604083850312156116f5576116f4611528565b5b5f6117028582860161167b565b92505060206117138582860161167b565b9150509250929050565b5f80fd5b5f80fd5b5f80fd5b5f8083601f84011261173e5761173d61171d565b5b8235905067ffffffffffffffff81111561175b5761175a611721565b5b60208301915083602082028301111561177757611776611725565b5b9250929050565b5f806020838503121561179457611793611528565b5b5f83013567ffffffffffffffff8111156117b1576117b061152c565b5b6117bd85828601611729565b92509250509250929050565b5f81519050919050565b5f82825260208201905092915050565b8281835e5f83830152505050565b5f601f19601f8301169050919050565b5f61180b826117c9565b61181581856117d3565b93506118258185602086016117e3565b61182e816117f1565b840191505092915050565b5f6020820190508181035f8301526118518184611801565b905092915050565b61186281611654565b82525050565b5f60208201905061187b5f830184611859565b92915050565b5f6020828403121561189657611895611528565b5b5f6118a38482850161167b565b91505092915050565b7f417262697472756d20616c726561647920636f6e6669677572656400000000005f82015250565b5f6118e0601b836117d3565b91506118eb826118ac565b602082019050919050565b5f6020820190508181035f83015261190d816118d4565b9050919050565b5f819050919050565b5f61193761193261192d84611914565b6115e0565b611530565b9050919050565b6119478161191d565b82525050565b5f6020820190506119605f83018461193e565b92915050565b5f6119708261160a565b9050919050565b61198081611966565b82525050565b5f6040820190506119995f830185611977565b6119a66020830184611977565b9392505050565b7f4e487b71000000000000000000000000000000000000000000000000000000005f52603260045260245ffd5b5f80fd5b5f8235600160a0038336030381126119f9576119f86119da565b5b80830191505092915050565b5f80fd5b7f4e487b71000000000000000000000000000000000000000000000000000000005f52604160045260245ffd5b611a3f826117f1565b810181811067ffffffffffffffff82111715611a5e57611a5d611a09565b5b80604052505050565b5f611a7061151f565b9050611a7c8282611a36565b919050565b5f80fd5b5f80fd5b5f67ffffffffffffffff821115611aa357611aa2611a09565b5b611aac826117f1565b9050602081019050919050565b828183375f83830152505050565b5f611ad9611ad484611a89565b611a67565b905082815260208101848484011115611af557611af4611a85565b5b611b00848285611ab9565b509392505050565b5f82601f830112611b1c57611b1b61171d565b5b8135611b2c848260208601611ac7565b91505092915050565b611b3e8161158e565b8114611b48575f80fd5b50565b5f81359050611b5981611b35565b92915050565b5f60a08284031215611b7457611b73611a05565b5b611b7e60a0611a67565b90505f611b8d8482850161167b565b5f830152506020611ba08482850161167b565b6020830152506040611bb48482850161167b565b604083015250606082013567ffffffffffffffff811115611bd857611bd7611a81565b5b611be484828501611b08565b6060830152506080611bf884828501611b4b565b60808301525092915050565b5f611c0f3683611b5f565b9050919050565b7f4d61696e6e657420616c726561647920636f6e666967757265640000000000005f82015250565b5f611c4a601a836117d3565b9150611c5582611c16565b602082019050919050565b5f6020820190508181035f830152611c7781611c3e565b9050919050565b5f819050919050565b5f611ca1611c9c611c9784611c7e565b6115e0565b611530565b9050919050565b611cb181611c87565b82525050565b5f602082019050611cca5f830184611ca8565b92915050565b7f5365706f6c696120616c726561647920636f6e666967757265640000000000005f82015250565b5f611d04601a836117d3565b9150611d0f82611cd0565b602082019050919050565b5f6020820190508181035f830152611d3181611cf8565b9050919050565b5f819050919050565b5f611d5b611d56611d5184611d38565b6115e0565b611530565b9050919050565b611d6b81611d41565b82525050565b5f602082019050611d845f830184611d62565b92915050565b7f4261736520616c726561647920636f6e666967757265640000000000000000005f82015250565b5f611dbe6017836117d3565b9150611dc982611d8a565b602082019050919050565b5f6020820190508181035f830152611deb81611db2565b9050919050565b5f606082019050611e055f830186611977565b611e126020830185611977565b611e1f6040830184611859565b949350505050565b7f556e737570706f72746564206e6574776f726b20666f72206175746f2d636f6e5f8201527f66696775726174696f6e00000000000000000000000000000000000000000000602082015250565b5f611e81602a836117d3565b9150611e8c82611e27565b604082019050919050565b5f6020820190508181035f830152611eae81611e75565b905091905056fea26469706673582212206fa60ffe0045c2ede656b3c885f575f8b4eefe5a15f0f7940d313b9be4fb3dc464736f6c634300081a0033","linkReferences":{}},"methodIdentifiers":{"addCustomPriceFeed(address,address,address)":"33cf226c","autoConfigureNetwork()":"e5c577ed","batchAddPriceFeeds((address,address,address,string,bool)[])":"7e857f9b","configureArbitrum()":"3743e1db","configureBase()":"9b211155","configureMainnet()":"81faaa96","configureSepolia()":"881e9e85","emergencyReconfigure()":"5f952967","getCurrentNetworkName()":"7ea85a05","isCurrentNetworkConfigured()":"1dc2b189","networkConfigured(uint256)":"03807a9e","owner()":"8da5cb5b","priceOracle()":"2630c12f","removePriceFeed(address,address)":"5e41a282","renounceOwnership()":"715018a6","transferOwnership(address)":"f2fde38b"},"id":69}