{"abi":[{"type":"constructor","inputs":[{"name":"_poolManager","type":"address","internalType":"contract IPoolManager"},{"name":"_avsDirectory","type":"address","internalType":"contract IAVSDirectory"},{"name":"_priceOracle","type":"address","internalType":"contract IPriceOracle"},{"name":"_feeRecipient","type":"address","internalType":"address"},{"name":"_lvrThreshold","type":"uint256","internalType":"uint256"}],"stateMutability":"nonpayable"},{"type":"receive","stateMutability":"payable"},{"type":"function","name":"AVS_REWARD_PERCENTAGE","inputs":[],"outputs":[{"name":"","type":"uint256","internalType":"uint256"}],"stateMutability":"view"},{"type":"function","name":"BASIS_POINTS","inputs":[],"outputs":[{"name":"","type":"uint256","internalType":"uint256"}],"stateMutability":"view"},{"type":"function","name":"GAS_COMPENSATION_PERCENTAGE","inputs":[],"outputs":[{"name":"","type":"uint256","internalType":"uint256"}],"stateMutability":"view"},{"type":"function","name":"LP_REWARD_PERCENTAGE","inputs":[],"outputs":[{"name":"","type":"uint256","internalType":"uint256"}],"stateMutability":"view"},{"type":"function","name":"MAX_AUCTION_DURATION","inputs":[],"outputs":[{"name":"","type":"uint256","internalType":"uint256"}],"stateMutability":"view"},{"type":"function","name":"MIN_BID","inputs":[],"outputs":[{"name":"","type":"uint256","internalType":"uint256"}],"stateMutability":"view"},{"type":"function","name":"PROTOCOL_FEE_PERCENTAGE","inputs":[],"outputs":[{"name":"","type":"uint256","internalType":"uint256"}],"stateMutability":"view"},{"type":"function","name":"activeAuctions","inputs":[{"name":"","type":"bytes32","internalType":"PoolId"}],"outputs":[{"name":"","type":"bytes32","internalType":"bytes32"}],"stateMutability":"view"},{"type":"function","name":"afterAddLiquidity","inputs":[{"name":"sender","type":"address","internalType":"address"},{"name":"key","type":"tuple","internalType":"struct PoolKey","components":[{"name":"currency0","type":"address","internalType":"Currency"},{"name":"currency1","type":"address","internalType":"Currency"},{"name":"fee","type":"uint24","internalType":"uint24"},{"name":"tickSpacing","type":"int24","internalType":"int24"},{"name":"hooks","type":"address","internalType":"contract IHooks"}]},{"name":"params","type":"tuple","internalType":"struct ModifyLiquidityParams","components":[{"name":"tickLower","type":"int24","internalType":"int24"},{"name":"tickUpper","type":"int24","internalType":"int24"},{"name":"liquidityDelta","type":"int256","internalType":"int256"},{"name":"salt","type":"bytes32","internalType":"bytes32"}]},{"name":"delta","type":"int256","internalType":"BalanceDelta"},{"name":"feesAccrued","type":"int256","internalType":"BalanceDelta"},{"name":"hookData","type":"bytes","internalType":"bytes"}],"outputs":[{"name":"","type":"bytes4","internalType":"bytes4"},{"name":"","type":"int256","internalType":"BalanceDelta"}],"stateMutability":"nonpayable"},{"type":"function","name":"afterDonate","inputs":[{"name":"sender","type":"address","internalType":"address"},{"name":"key","type":"tuple","internalType":"struct PoolKey","components":[{"name":"currency0","type":"address","internalType":"Currency"},{"name":"currency1","type":"address","internalType":"Currency"},{"name":"fee","type":"uint24","internalType":"uint24"},{"name":"tickSpacing","type":"int24","internalType":"int24"},{"name":"hooks","type":"address","internalType":"contract IHooks"}]},{"name":"amount0","type":"uint256","internalType":"uint256"},{"name":"amount1","type":"uint256","internalType":"uint256"},{"name":"hookData","type":"bytes","internalType":"bytes"}],"outputs":[{"name":"","type":"bytes4","internalType":"bytes4"}],"stateMutability":"nonpayable"},{"type":"function","name":"afterInitialize","inputs":[{"name":"sender","type":"address","internalType":"address"},{"name":"key","type":"tuple","internalType":"struct PoolKey","components":[{"name":"currency0","type":"address","internalType":"Currency"},{"name":"currency1","type":"address","internalType":"Currency"},{"name":"fee","type":"uint24","internalType":"uint24"},{"name":"tickSpacing","type":"int24","internalType":"int24"},{"name":"hooks","type":"address","internalType":"contract IHooks"}]},{"name":"sqrtPriceX96","type":"uint160","internalType":"uint160"},{"name":"tick","type":"int24","internalType":"int24"}],"outputs":[{"name":"","type":"bytes4","internalType":"bytes4"}],"stateMutability":"nonpayable"},{"type":"function","name":"afterRemoveLiquidity","inputs":[{"name":"sender","type":"address","internalType":"address"},{"name":"key","type":"tuple","internalType":"struct PoolKey","components":[{"name":"currency0","type":"address","internalType":"Currency"},{"name":"currency1","type":"address","internalType":"Currency"},{"name":"fee","type":"uint24","internalType":"uint24"},{"name":"tickSpacing","type":"int24","internalType":"int24"},{"name":"hooks","type":"address","internalType":"contract IHooks"}]},{"name":"params","type":"tuple","internalType":"struct ModifyLiquidityParams","components":[{"name":"tickLower","type":"int24","internalType":"int24"},{"name":"tickUpper","type":"int24","internalType":"int24"},{"name":"liquidityDelta","type":"int256","internalType":"int256"},{"name":"salt","type":"bytes32","internalType":"bytes32"}]},{"name":"delta","type":"int256","internalType":"BalanceDelta"},{"name":"feesAccrued","type":"int256","internalType":"BalanceDelta"},{"name":"hookData","type":"bytes","internalType":"bytes"}],"outputs":[{"name":"","type":"bytes4","internalType":"bytes4"},{"name":"","type":"int256","internalType":"BalanceDelta"}],"stateMutability":"nonpayable"},{"type":"function","name":"afterSwap","inputs":[{"name":"sender","type":"address","internalType":"address"},{"name":"key","type":"tuple","internalType":"struct PoolKey","components":[{"name":"currency0","type":"address","internalType":"Currency"},{"name":"currency1","type":"address","internalType":"Currency"},{"name":"fee","type":"uint24","internalType":"uint24"},{"name":"tickSpacing","type":"int24","internalType":"int24"},{"name":"hooks","type":"address","internalType":"contract IHooks"}]},{"name":"params","type":"tuple","internalType":"struct SwapParams","components":[{"name":"zeroForOne","type":"bool","internalType":"bool"},{"name":"amountSpecified","type":"int256","internalType":"int256"},{"name":"sqrtPriceLimitX96","type":"uint160","internalType":"uint160"}]},{"name":"delta","type":"int256","internalType":"BalanceDelta"},{"name":"hookData","type":"bytes","internalType":"bytes"}],"outputs":[{"name":"","type":"bytes4","internalType":"bytes4"},{"name":"","type":"int128","internalType":"int128"}],"stateMutability":"nonpayable"},{"type":"function","name":"auctions","inputs":[{"name":"","type":"bytes32","internalType":"bytes32"}],"outputs":[{"name":"poolId","type":"bytes32","internalType":"PoolId"},{"name":"startTime","type":"uint256","internalType":"uint256"},{"name":"duration","type":"uint256","internalType":"uint256"},{"name":"isActive","type":"bool","internalType":"bool"},{"name":"isComplete","type":"bool","internalType":"bool"},{"name":"winner","type":"address","internalType":"address"},{"name":"winningBid","type":"uint256","internalType":"uint256"},{"name":"totalBids","type":"uint256","internalType":"uint256"}],"stateMutability":"view"},{"type":"function","name":"authorizedOperators","inputs":[{"name":"","type":"address","internalType":"address"}],"outputs":[{"name":"","type":"bool","internalType":"bool"}],"stateMutability":"view"},{"type":"function","name":"avsDirectory","inputs":[],"outputs":[{"name":"","type":"address","internalType":"contract IAVSDirectory"}],"stateMutability":"view"},{"type":"function","name":"beforeAddLiquidity","inputs":[{"name":"sender","type":"address","internalType":"address"},{"name":"key","type":"tuple","internalType":"struct PoolKey","components":[{"name":"currency0","type":"address","internalType":"Currency"},{"name":"currency1","type":"address","internalType":"Currency"},{"name":"fee","type":"uint24","internalType":"uint24"},{"name":"tickSpacing","type":"int24","internalType":"int24"},{"name":"hooks","type":"address","internalType":"contract IHooks"}]},{"name":"params","type":"tuple","internalType":"struct ModifyLiquidityParams","components":[{"name":"tickLower","type":"int24","internalType":"int24"},{"name":"tickUpper","type":"int24","internalType":"int24"},{"name":"liquidityDelta","type":"int256","internalType":"int256"},{"name":"salt","type":"bytes32","internalType":"bytes32"}]},{"name":"hookData","type":"bytes","internalType":"bytes"}],"outputs":[{"name":"","type":"bytes4","internalType":"bytes4"}],"stateMutability":"nonpayable"},{"type":"function","name":"beforeDonate","inputs":[{"name":"sender","type":"address","internalType":"address"},{"name":"key","type":"tuple","internalType":"struct PoolKey","components":[{"name":"currency0","type":"address","internalType":"Currency"},{"name":"currency1","type":"address","internalType":"Currency"},{"name":"fee","type":"uint24","internalType":"uint24"},{"name":"tickSpacing","type":"int24","internalType":"int24"},{"name":"hooks","type":"address","internalType":"contract IHooks"}]},{"name":"amount0","type":"uint256","internalType":"uint256"},{"name":"amount1","type":"uint256","internalType":"uint256"},{"name":"hookData","type":"bytes","internalType":"bytes"}],"outputs":[{"name":"","type":"bytes4","internalType":"bytes4"}],"stateMutability":"nonpayable"},{"type":"function","name":"beforeInitialize","inputs":[{"name":"sender","type":"address","internalType":"address"},{"name":"key","type":"tuple","internalType":"struct PoolKey","components":[{"name":"currency0","type":"address","internalType":"Currency"},{"name":"currency1","type":"address","internalType":"Currency"},{"name":"fee","type":"uint24","internalType":"uint24"},{"name":"tickSpacing","type":"int24","internalType":"int24"},{"name":"hooks","type":"address","internalType":"contract IHooks"}]},{"name":"sqrtPriceX96","type":"uint160","internalType":"uint160"}],"outputs":[{"name":"","type":"bytes4","internalType":"bytes4"}],"stateMutability":"nonpayable"},{"type":"function","name":"beforeRemoveLiquidity","inputs":[{"name":"sender","type":"address","internalType":"address"},{"name":"key","type":"tuple","internalType":"struct PoolKey","components":[{"name":"currency0","type":"address","internalType":"Currency"},{"name":"currency1","type":"address","internalType":"Currency"},{"name":"fee","type":"uint24","internalType":"uint24"},{"name":"tickSpacing","type":"int24","internalType":"int24"},{"name":"hooks","type":"address","internalType":"contract IHooks"}]},{"name":"params","type":"tuple","internalType":"struct ModifyLiquidityParams","components":[{"name":"tickLower","type":"int24","internalType":"int24"},{"name":"tickUpper","type":"int24","internalType":"int24"},{"name":"liquidityDelta","type":"int256","internalType":"int256"},{"name":"salt","type":"bytes32","internalType":"bytes32"}]},{"name":"hookData","type":"bytes","internalType":"bytes"}],"outputs":[{"name":"","type":"bytes4","internalType":"bytes4"}],"stateMutability":"nonpayable"},{"type":"function","name":"beforeSwap","inputs":[{"name":"sender","type":"address","internalType":"address"},{"name":"key","type":"tuple","internalType":"struct PoolKey","components":[{"name":"currency0","type":"address","internalType":"Currency"},{"name":"currency1","type":"address","internalType":"Currency"},{"name":"fee","type":"uint24","internalType":"uint24"},{"name":"tickSpacing","type":"int24","internalType":"int24"},{"name":"hooks","type":"address","internalType":"contract IHooks"}]},{"name":"params","type":"tuple","internalType":"struct SwapParams","components":[{"name":"zeroForOne","type":"bool","internalType":"bool"},{"name":"amountSpecified","type":"int256","internalType":"int256"},{"name":"sqrtPriceLimitX96","type":"uint160","internalType":"uint160"}]},{"name":"hookData","type":"bytes","internalType":"bytes"}],"outputs":[{"name":"","type":"bytes4","internalType":"bytes4"},{"name":"","type":"int256","internalType":"BeforeSwapDelta"},{"name":"","type":"uint24","internalType":"uint24"}],"stateMutability":"nonpayable"},{"type":"function","name":"claimRewards","inputs":[{"name":"poolId","type":"bytes32","internalType":"PoolId"}],"outputs":[],"stateMutability":"nonpayable"},{"type":"function","name":"feeRecipient","inputs":[],"outputs":[{"name":"","type":"address","internalType":"address"}],"stateMutability":"view"},{"type":"function","name":"getHookPermissions","inputs":[],"outputs":[{"name":"","type":"tuple","internalType":"struct Hooks.Permissions","components":[{"name":"beforeInitialize","type":"bool","internalType":"bool"},{"name":"afterInitialize","type":"bool","internalType":"bool"},{"name":"beforeAddLiquidity","type":"bool","internalType":"bool"},{"name":"afterAddLiquidity","type":"bool","internalType":"bool"},{"name":"beforeRemoveLiquidity","type":"bool","internalType":"bool"},{"name":"afterRemoveLiquidity","type":"bool","internalType":"bool"},{"name":"beforeSwap","type":"bool","internalType":"bool"},{"name":"afterSwap","type":"bool","internalType":"bool"},{"name":"beforeDonate","type":"bool","internalType":"bool"},{"name":"afterDonate","type":"bool","internalType":"bool"},{"name":"beforeSwapReturnDelta","type":"bool","internalType":"bool"},{"name":"afterSwapReturnDelta","type":"bool","internalType":"bool"},{"name":"afterAddLiquidityReturnDelta","type":"bool","internalType":"bool"},{"name":"afterRemoveLiquidityReturnDelta","type":"bool","internalType":"bool"}]}],"stateMutability":"pure"},{"type":"function","name":"lpLiquidity","inputs":[{"name":"","type":"bytes32","internalType":"PoolId"},{"name":"","type":"address","internalType":"address"}],"outputs":[{"name":"","type":"uint256","internalType":"uint256"}],"stateMutability":"view"},{"type":"function","name":"lpRewards","inputs":[{"name":"","type":"bytes32","internalType":"PoolId"},{"name":"","type":"address","internalType":"address"}],"outputs":[{"name":"","type":"uint256","internalType":"uint256"}],"stateMutability":"view"},{"type":"function","name":"lvrThreshold","inputs":[],"outputs":[{"name":"","type":"uint256","internalType":"uint256"}],"stateMutability":"view"},{"type":"function","name":"owner","inputs":[],"outputs":[{"name":"","type":"address","internalType":"address"}],"stateMutability":"view"},{"type":"function","name":"pause","inputs":[],"outputs":[],"stateMutability":"nonpayable"},{"type":"function","name":"paused","inputs":[],"outputs":[{"name":"","type":"bool","internalType":"bool"}],"stateMutability":"view"},{"type":"function","name":"poolManager","inputs":[],"outputs":[{"name":"","type":"address","internalType":"contract IPoolManager"}],"stateMutability":"view"},{"type":"function","name":"poolRewards","inputs":[{"name":"","type":"bytes32","internalType":"PoolId"}],"outputs":[{"name":"","type":"uint256","internalType":"uint256"}],"stateMutability":"view"},{"type":"function","name":"priceOracle","inputs":[],"outputs":[{"name":"","type":"address","internalType":"contract IPriceOracle"}],"stateMutability":"view"},{"type":"function","name":"renounceOwnership","inputs":[],"outputs":[],"stateMutability":"nonpayable"},{"type":"function","name":"setFeeRecipient","inputs":[{"name":"newFeeRecipient","type":"address","internalType":"address"}],"outputs":[],"stateMutability":"nonpayable"},{"type":"function","name":"setLVRThreshold","inputs":[{"name":"newThreshold","type":"uint256","internalType":"uint256"}],"outputs":[],"stateMutability":"nonpayable"},{"type":"function","name":"setOperatorAuthorization","inputs":[{"name":"operator","type":"address","internalType":"address"},{"name":"authorized","type":"bool","internalType":"bool"}],"outputs":[],"stateMutability":"nonpayable"},{"type":"function","name":"submitAuctionResult","inputs":[{"name":"auctionId","type":"bytes32","internalType":"bytes32"},{"name":"winner","type":"address","internalType":"address"},{"name":"winningBid","type":"uint256","internalType":"uint256"}],"outputs":[],"stateMutability":"nonpayable"},{"type":"function","name":"totalLiquidity","inputs":[{"name":"","type":"bytes32","internalType":"PoolId"}],"outputs":[{"name":"","type":"uint256","internalType":"uint256"}],"stateMutability":"view"},{"type":"function","name":"transferOwnership","inputs":[{"name":"newOwner","type":"address","internalType":"address"}],"outputs":[],"stateMutability":"nonpayable"},{"type":"function","name":"unpause","inputs":[],"outputs":[],"stateMutability":"nonpayable"},{"type":"event","name":"AuctionEnded","inputs":[{"name":"auctionId","type":"bytes32","indexed":true,"internalType":"bytes32"},{"name":"poolId","type":"bytes32","indexed":true,"internalType":"PoolId"},{"name":"winner","type":"address","indexed":true,"internalType":"address"},{"name":"winningBid","type":"uint256","indexed":false,"internalType":"uint256"}],"anonymous":false},{"type":"event","name":"AuctionStarted","inputs":[{"name":"auctionId","type":"bytes32","indexed":true,"internalType":"bytes32"},{"name":"poolId","type":"bytes32","indexed":true,"internalType":"PoolId"},{"name":"startTime","type":"uint256","indexed":false,"internalType":"uint256"},{"name":"duration","type":"uint256","indexed":false,"internalType":"uint256"}],"anonymous":false},{"type":"event","name":"LVRThresholdUpdated","inputs":[{"name":"oldThreshold","type":"uint256","indexed":false,"internalType":"uint256"},{"name":"newThreshold","type":"uint256","indexed":false,"internalType":"uint256"}],"anonymous":false},{"type":"event","name":"MEVDistributed","inputs":[{"name":"poolId","type":"bytes32","indexed":true,"internalType":"PoolId"},{"name":"totalAmount","type":"uint256","indexed":false,"internalType":"uint256"},{"name":"lpAmount","type":"uint256","indexed":false,"internalType":"uint256"},{"name":"avsAmount","type":"uint256","indexed":false,"internalType":"uint256"},{"name":"protocolAmount","type":"uint256","indexed":false,"internalType":"uint256"}],"anonymous":false},{"type":"event","name":"OperatorAuthorized","inputs":[{"name":"operator","type":"address","indexed":true,"internalType":"address"},{"name":"authorized","type":"bool","indexed":false,"internalType":"bool"}],"anonymous":false},{"type":"event","name":"OwnershipTransferred","inputs":[{"name":"previousOwner","type":"address","indexed":true,"internalType":"address"},{"name":"newOwner","type":"address","indexed":true,"internalType":"address"}],"anonymous":false},{"type":"event","name":"Paused","inputs":[{"name":"account","type":"address","indexed":false,"internalType":"address"}],"anonymous":false},{"type":"event","name":"RewardsClaimed","inputs":[{"name":"poolId","type":"bytes32","indexed":true,"internalType":"PoolId"},{"name":"lp","type":"address","indexed":true,"internalType":"address"},{"name":"amount","type":"uint256","indexed":false,"internalType":"uint256"}],"anonymous":false},{"type":"event","name":"Unpaused","inputs":[{"name":"account","type":"address","indexed":false,"internalType":"address"}],"anonymous":false},{"type":"error","name":"EnforcedPause","inputs":[]},{"type":"error","name":"ExpectedPause","inputs":[]},{"type":"error","name":"HookNotImplemented","inputs":[]},{"type":"error","name":"NotPoolManager","inputs":[]},{"type":"error","name":"OwnableInvalidOwner","inputs":[{"name":"owner","type":"address","internalType":"address"}]},{"type":"error","name":"OwnableUnauthorizedAccount","inputs":[{"name":"account","type":"address","internalType":"address"}]},{"type":"error","name":"ReentrancyGuardReentrantCall","inputs":[]}],"bytecode":{"object":"0x60e060405234801561000f575f80fd5b506040516147c93803806147c9833981810160405281019061003191906108d6565b3385808073ffffffffffffffffffffffffffffffffffffffff1660808173ffffffffffffffffffffffffffffffffffffffff168152505050610078306101d360201b60201c565b5060015f819055505f73ffffffffffffffffffffffffffffffffffffffff168173ffffffffffffffffffffffffffffffffffffffff16036100f0575f6040517f1e4fbdf70000000000000000000000000000000000000000000000000000000081526004016100e7919061095c565b60405180910390fd5b6100ff816101f360201b60201c565b505f600160146101000a81548160ff0219169083151502179055508373ffffffffffffffffffffffffffffffffffffffff1660a08173ffffffffffffffffffffffffffffffffffffffff16815250508273ffffffffffffffffffffffffffffffffffffffff1660c08173ffffffffffffffffffffffffffffffffffffffff16815250508160095f6101000a81548173ffffffffffffffffffffffffffffffffffffffff021916908373ffffffffffffffffffffffffffffffffffffffff16021790555080600a819055505050505050610975565b6101f0816101e56102b660201b60201c565b61034160201b60201c565b50565b5f60015f9054906101000a900473ffffffffffffffffffffffffffffffffffffffff1690508160015f6101000a81548173ffffffffffffffffffffffffffffffffffffffff021916908373ffffffffffffffffffffffffffffffffffffffff1602179055508173ffffffffffffffffffffffffffffffffffffffff168173ffffffffffffffffffffffffffffffffffffffff167f8be0079c531659141344cd1fd0a4f28419497f9722a3daafe3b4186f6b6457e060405160405180910390a35050565b6102be610717565b604051806101c001604052805f151581526020015f151581526020016001151581526020015f151581526020016001151581526020015f151581526020016001151581526020016001151581526020015f151581526020015f151581526020015f151581526020015f151581526020015f151581526020015f1515815250905090565b61036c6120008373ffffffffffffffffffffffffffffffffffffffff166106d060201b90919060201c565b1515815f015115151415806103b357506103a76110008373ffffffffffffffffffffffffffffffffffffffff166106d060201b90919060201c565b15158160200151151514155b806103f057506103e46108008373ffffffffffffffffffffffffffffffffffffffff166106d060201b90919060201c565b15158160400151151514155b8061042d57506104216104008373ffffffffffffffffffffffffffffffffffffffff166106d060201b90919060201c565b15158160600151151514155b8061046a575061045e6102008373ffffffffffffffffffffffffffffffffffffffff166106d060201b90919060201c565b15158160800151151514155b806104a7575061049b6101008373ffffffffffffffffffffffffffffffffffffffff166106d060201b90919060201c565b15158160a00151151514155b806104e357506104d760808373ffffffffffffffffffffffffffffffffffffffff166106d060201b90919060201c565b15158160c00151151514155b8061051f575061051360408373ffffffffffffffffffffffffffffffffffffffff166106d060201b90919060201c565b15158160e00151151514155b8061055c575061054f60208373ffffffffffffffffffffffffffffffffffffffff166106d060201b90919060201c565b1515816101000151151514155b80610599575061058c60108373ffffffffffffffffffffffffffffffffffffffff166106d060201b90919060201c565b1515816101200151151514155b806105d657506105c960088373ffffffffffffffffffffffffffffffffffffffff166106d060201b90919060201c565b1515816101400151151514155b80610613575061060660048373ffffffffffffffffffffffffffffffffffffffff166106d060201b90919060201c565b1515816101600151151514155b80610650575061064360028373ffffffffffffffffffffffffffffffffffffffff166106d060201b90919060201c565b1515816101800151151514155b8061068d575061068060018373ffffffffffffffffffffffffffffffffffffffff166106d060201b90919060201c565b1515816101a00151151514155b156106cc576106cb8263e65af6a060e01b7bffffffffffffffffffffffffffffffffffffffffffffffffffffffff19166106f560201b90919060201c565b5b5050565b5f8082841673ffffffffffffffffffffffffffffffffffffffff161415905092915050565b815f5273ffffffffffffffffffffffffffffffffffffffff811660045260245ffd5b604051806101c001604052805f151581526020015f151581526020015f151581526020015f151581526020015f151581526020015f151581526020015f151581526020015f151581526020015f151581526020015f151581526020015f151581526020015f151581526020015f151581526020015f151581525090565b5f80fd5b5f73ffffffffffffffffffffffffffffffffffffffff82169050919050565b5f6107c182610798565b9050919050565b5f6107d2826107b7565b9050919050565b6107e2816107c8565b81146107ec575f80fd5b50565b5f815190506107fd816107d9565b92915050565b5f61080d826107b7565b9050919050565b61081d81610803565b8114610827575f80fd5b50565b5f8151905061083881610814565b92915050565b5f610848826107b7565b9050919050565b6108588161083e565b8114610862575f80fd5b50565b5f815190506108738161084f565b92915050565b610882816107b7565b811461088c575f80fd5b50565b5f8151905061089d81610879565b92915050565b5f819050919050565b6108b5816108a3565b81146108bf575f80fd5b50565b5f815190506108d0816108ac565b92915050565b5f805f805f60a086880312156108ef576108ee610794565b5b5f6108fc888289016107ef565b955050602061090d8882890161082a565b945050604061091e88828901610865565b935050606061092f8882890161088f565b9250506080610940888289016108c2565b9150509295509295909350565b610956816107b7565b82525050565b5f60208201905061096f5f83018461094d565b92915050565b60805160a05160c051613dd66109f35f395f8181610e24015281816120c301526125af01525f610f8f01525f8181610ce901528181610d8701528181610ed601528181610fb50152818161105a01528181611356015281816114b6015281816115590152818161173a0152818161175f01526118190152613dd65ff3fe608060405260043610610249575f3560e01c80637790ddc611610138578063c4e833ce116100b5578063dcd728b511610079578063dcd728b5146108e8578063e1b4af6914610924578063e1f1c4a714610960578063e4d7d6dc1461098a578063e74b981b146109b4578063f2fde38b146109dc57610250565b8063c4e833ce14610806578063ce69cd2014610830578063d40ea4d91461085a578063dc4c90d314610882578063dc98354e146108ac57610250565b8063af4cbe80116100fc578063af4cbe80146106fd578063b26565c514610727578063b47b2fb114610751578063b6a8b0fa1461078e578063c0e8d384146107ca57610250565b80637790ddc6146106305780638456cb59146106585780638da5cb5b1461066e5780639f063efc14610698578063a99e4087146106d557610250565b806344612456116101c65780635c975abb1161018a5780635c975abb1461054d5780636b3aa72e146105775780636c2bbe7e146105a15780636fe7e6eb146105de578063715018a61461061a57610250565b80634461245614610431578063469048401461046d5780635498304c1461049757806354b7a8f7146104d3578063575e24b41461050f57610250565b8063259982e51161020d578063259982e5146103615780632630c12f1461039d5780632ae8c718146103c75780633f4ba83a146103f15780633fb351781461040757610250565b8063181d989b146102545780631a8a61f3146102905780631e52301c146102ba5780631edbc5be146102e257806321d0ee701461032557610250565b3661025057005b5f80fd5b34801561025f575f80fd5b5061027a60048036038101906102759190612a5e565b610a04565b6040516102879190612aa3565b60405180910390f35b34801561029b575f80fd5b506102a4610a21565b6040516102b19190612ad4565b60405180910390f35b3480156102c5575f80fd5b506102e060048036038101906102db9190612b4a565b610a27565b005b3480156102ed575f80fd5b5061030860048036038101906103039190612b9a565b610c69565b60405161031c989796959493929190612bf4565b60405180910390f35b348015610330575f80fd5b5061034b60048036038101906103469190612d11565b610ce6565b6040516103589190612dd1565b60405180910390f35b34801561036c575f80fd5b5061038760048036038101906103829190612d11565b610d84565b6040516103949190612dd1565b60405180910390f35b3480156103a8575f80fd5b506103b1610e22565b6040516103be9190612e45565b60405180910390f35b3480156103d2575f80fd5b506103db610e46565b6040516103e89190612ad4565b60405180910390f35b3480156103fc575f80fd5b50610405610e4b565b005b348015610412575f80fd5b5061041b610e5d565b6040516104289190612ad4565b60405180910390f35b34801561043c575f80fd5b5061045760048036038101906104529190612e88565b610e62565b6040516104649190612ad4565b60405180910390f35b348015610478575f80fd5b50610481610e82565b60405161048e9190612ec6565b60405180910390f35b3480156104a2575f80fd5b506104bd60048036038101906104b89190612edf565b610ea7565b6040516104ca9190612f19565b60405180910390f35b3480156104de575f80fd5b506104f960048036038101906104f49190612edf565b610ebc565b6040516105069190612ad4565b60405180910390f35b34801561051a575f80fd5b5061053560048036038101906105309190612f50565b610ed1565b6040516105449392919061302c565b60405180910390f35b348015610558575f80fd5b50610561610f77565b60405161056e9190612aa3565b60405180910390f35b348015610582575f80fd5b5061058b610f8d565b6040516105989190613081565b60405180910390f35b3480156105ac575f80fd5b506105c760048036038101906105c291906130c4565b610fb1565b6040516105d5929190613181565b60405180910390f35b3480156105e9575f80fd5b5061060460048036038101906105ff9190613208565b611057565b6040516106119190612dd1565b60405180910390f35b348015610625575f80fd5b5061062e6110f3565b005b34801561063b575f80fd5b5061065660048036038101906106519190612edf565b611106565b005b348015610663575f80fd5b5061066c611318565b005b348015610679575f80fd5b5061068261132a565b60405161068f9190612ec6565b60405180910390f35b3480156106a3575f80fd5b506106be60048036038101906106b991906130c4565b611352565b6040516106cc929190613181565b60405180910390f35b3480156106e0575f80fd5b506106fb60048036038101906106f69190613297565b6113f8565b005b348015610708575f80fd5b506107116114a6565b60405161071e9190612ad4565b60405180910390f35b348015610732575f80fd5b5061073b6114ac565b6040516107489190612ad4565b60405180910390f35b34801561075c575f80fd5b50610777600480360381019061077291906132d5565b6114b2565b604051610785929190613389565b60405180910390f35b348015610799575f80fd5b506107b460048036038101906107af91906133b0565b611556565b6040516107c19190612dd1565b60405180910390f35b3480156107d5575f80fd5b506107f060048036038101906107eb9190612edf565b6115f6565b6040516107fd9190612ad4565b60405180910390f35b348015610811575f80fd5b5061081a61160b565b6040516108279190613575565b60405180910390f35b34801561083b575f80fd5b50610844611696565b6040516108519190612ad4565b60405180910390f35b348015610865575f80fd5b50610880600480360381019061087b919061358f565b6116a1565b005b34801561088d575f80fd5b50610896611738565b6040516108a391906135da565b60405180910390f35b3480156108b7575f80fd5b506108d260048036038101906108cd91906135f3565b61175c565b6040516108df9190612dd1565b60405180910390f35b3480156108f3575f80fd5b5061090e60048036038101906109099190612e88565b6117f6565b60405161091b9190612ad4565b60405180910390f35b34801561092f575f80fd5b5061094a600480360381019061094591906133b0565b611816565b6040516109579190612dd1565b60405180910390f35b34801561096b575f80fd5b506109746118b6565b6040516109819190612ad4565b60405180910390f35b348015610995575f80fd5b5061099e6118bc565b6040516109ab9190612ad4565b60405180910390f35b3480156109bf575f80fd5b506109da60048036038101906109d59190612a5e565b6118c2565b005b3480156109e7575f80fd5b50610a0260048036038101906109fd9190612a5e565b61197b565b005b6008602052805f5260405f205f915054906101000a900460ff1681565b6103e881565b60085f3373ffffffffffffffffffffffffffffffffffffffff1673ffffffffffffffffffffffffffffffffffffffff1681526020019081526020015f205f9054906101000a900460ff16610ab0576040517f08c379a0000000000000000000000000000000000000000000000000000000008152600401610aa79061369d565b60405180910390fd5b8260035f8281526020019081526020015f206003015f9054906101000a900460ff16610b11576040517f08c379a0000000000000000000000000000000000000000000000000000000008152600401610b0890613705565b60405180910390fd5b610b196119ff565b5f60035f8681526020019081526020015f20905080600201548160010154610b419190613750565b421015610b83576040517f08c379a0000000000000000000000000000000000000000000000000000000008152600401610b7a906137cd565b60405180910390fd5b838160030160026101000a81548173ffffffffffffffffffffffffffffffffffffffff021916908373ffffffffffffffffffffffffffffffffffffffff16021790555082816004018190555060018160030160016101000a81548160ff0219169083151502179055505f816003015f6101000a81548160ff0219169083151502179055508373ffffffffffffffffffffffffffffffffffffffff16815f0154867f32f65ad10bfa4a0ee9db45ba15bf04a4005908f729d666edbc5e421b4519206c86604051610c529190612ad4565b60405180910390a450610c63611a43565b50505050565b6003602052805f5260405f205f91509050805f015490806001015490806002015490806003015f9054906101000a900460ff16908060030160019054906101000a900460ff16908060030160029054906101000a900473ffffffffffffffffffffffffffffffffffffffff16908060040154908060050154905088565b5f7f000000000000000000000000000000000000000000000000000000000000000073ffffffffffffffffffffffffffffffffffffffff163373ffffffffffffffffffffffffffffffffffffffff1614610d6c576040517fae18210a00000000000000000000000000000000000000000000000000000000815260040160405180910390fd5b610d798686868686611a4c565b905095945050505050565b5f7f000000000000000000000000000000000000000000000000000000000000000073ffffffffffffffffffffffffffffffffffffffff163373ffffffffffffffffffffffffffffffffffffffff1614610e0a576040517fae18210a00000000000000000000000000000000000000000000000000000000815260040160405180910390fd5b610e178686868686611b25565b905095945050505050565b7f000000000000000000000000000000000000000000000000000000000000000081565b60c881565b610e53611bf4565b610e5b611c7b565b565b600c81565b6005602052815f5260405f20602052805f5260405f205f91509150505481565b60095f9054906101000a900473ffffffffffffffffffffffffffffffffffffffff1681565b6002602052805f5260405f205f915090505481565b6006602052805f5260405f205f915090505481565b5f805f7f000000000000000000000000000000000000000000000000000000000000000073ffffffffffffffffffffffffffffffffffffffff163373ffffffffffffffffffffffffffffffffffffffff1614610f59576040517fae18210a00000000000000000000000000000000000000000000000000000000815260040160405180910390fd5b610f668888888888611cdd565b925092509250955095509592505050565b5f600160149054906101000a900460ff16905090565b7f000000000000000000000000000000000000000000000000000000000000000081565b5f807f000000000000000000000000000000000000000000000000000000000000000073ffffffffffffffffffffffffffffffffffffffff163373ffffffffffffffffffffffffffffffffffffffff1614611038576040517fae18210a00000000000000000000000000000000000000000000000000000000815260040160405180910390fd5b61104789898989898989611d39565b9150915097509795505050505050565b5f7f000000000000000000000000000000000000000000000000000000000000000073ffffffffffffffffffffffffffffffffffffffff163373ffffffffffffffffffffffffffffffffffffffff16146110dd576040517fae18210a00000000000000000000000000000000000000000000000000000000815260040160405180910390fd5b6110e985858585611d6d565b9050949350505050565b6110fb611bf4565b6111045f611da0565b565b61110e6119ff565b5f60075f8381526020019081526020015f205f3373ffffffffffffffffffffffffffffffffffffffff1673ffffffffffffffffffffffffffffffffffffffff1681526020019081526020015f205490505f81116111a0576040517f08c379a000000000000000000000000000000000000000000000000000000000815260040161119790613835565b60405180910390fd5b5f60065f8481526020019081526020015f205490505f60045f8581526020019081526020015f205490505f8284836111d89190613853565b6111e291906138c1565b90505f811115611309578060055f8781526020019081526020015f205f3373ffffffffffffffffffffffffffffffffffffffff1673ffffffffffffffffffffffffffffffffffffffff1681526020019081526020015f205f8282546112479190613750565b925050819055508060045f8781526020019081526020015f205f82825461126e91906138f1565b925050819055503373ffffffffffffffffffffffffffffffffffffffff166108fc8290811502906040515f60405180830381858888f193505050501580156112b8573d5f803e3d5ffd5b503373ffffffffffffffffffffffffffffffffffffffff16857ffec539b3c42d74cd492c3ecf7966bf014b327beef98e935cdc3ec5e54a6901c7836040516113009190612ad4565b60405180910390a35b50505050611315611a43565b50565b611320611bf4565b611328611e63565b565b5f60015f9054906101000a900473ffffffffffffffffffffffffffffffffffffffff16905090565b5f807f000000000000000000000000000000000000000000000000000000000000000073ffffffffffffffffffffffffffffffffffffffff163373ffffffffffffffffffffffffffffffffffffffff16146113d9576040517fae18210a00000000000000000000000000000000000000000000000000000000815260040160405180910390fd5b6113e889898989898989611ec5565b9150915097509795505050505050565b611400611bf4565b8060085f8473ffffffffffffffffffffffffffffffffffffffff1673ffffffffffffffffffffffffffffffffffffffff1681526020019081526020015f205f6101000a81548160ff0219169083151502179055508173ffffffffffffffffffffffffffffffffffffffff167fc176fcf7d48a6aca0d96d3b3201f7add47c4af04ce9a51f5f4eb15d528c46e218260405161149a9190612aa3565b60405180910390a25050565b600a5481565b61213481565b5f807f000000000000000000000000000000000000000000000000000000000000000073ffffffffffffffffffffffffffffffffffffffff163373ffffffffffffffffffffffffffffffffffffffff1614611539576040517fae18210a00000000000000000000000000000000000000000000000000000000815260040160405180910390fd5b611547888888888888611ef9565b91509150965096945050505050565b5f7f000000000000000000000000000000000000000000000000000000000000000073ffffffffffffffffffffffffffffffffffffffff163373ffffffffffffffffffffffffffffffffffffffff16146115dc576040517fae18210a00000000000000000000000000000000000000000000000000000000815260040160405180910390fd5b6115ea878787878787611f86565b90509695505050505050565b6004602052805f5260405f205f915090505481565b611613612976565b604051806101c001604052805f151581526020015f151581526020016001151581526020015f151581526020016001151581526020015f151581526020016001151581526020016001151581526020015f151581526020015f151581526020015f151581526020015f151581526020015f151581526020015f1515815250905090565b66038d7ea4c6800081565b6116a9611bf4565b6103e88111156116ee576040517f08c379a00000000000000000000000000000000000000000000000000000000081526004016116e59061396e565b60405180910390fd5b5f600a54905081600a819055507ff579147a7a27652efe56a2f791890638acfb4625388b7c67846205588b4009fb818360405161172c92919061398c565b60405180910390a15050565b7f000000000000000000000000000000000000000000000000000000000000000081565b5f7f000000000000000000000000000000000000000000000000000000000000000073ffffffffffffffffffffffffffffffffffffffff163373ffffffffffffffffffffffffffffffffffffffff16146117e2576040517fae18210a00000000000000000000000000000000000000000000000000000000815260040160405180910390fd5b6117ed848484611fb9565b90509392505050565b6007602052815f5260405f20602052805f5260405f205f91509150505481565b5f7f000000000000000000000000000000000000000000000000000000000000000073ffffffffffffffffffffffffffffffffffffffff163373ffffffffffffffffffffffffffffffffffffffff161461189c576040517fae18210a00000000000000000000000000000000000000000000000000000000815260040160405180910390fd5b6118aa878787878787611fec565b90509695505050505050565b61271081565b61012c81565b6118ca611bf4565b5f73ffffffffffffffffffffffffffffffffffffffff168173ffffffffffffffffffffffffffffffffffffffff1603611938576040517f08c379a000000000000000000000000000000000000000000000000000000000815260040161192f906139fd565b60405180910390fd5b8060095f6101000a81548173ffffffffffffffffffffffffffffffffffffffff021916908373ffffffffffffffffffffffffffffffffffffffff16021790555050565b611983611bf4565b5f73ffffffffffffffffffffffffffffffffffffffff168173ffffffffffffffffffffffffffffffffffffffff16036119f3575f6040517f1e4fbdf70000000000000000000000000000000000000000000000000000000081526004016119ea9190612ec6565b60405180910390fd5b6119fc81611da0565b50565b60025f5403611a3a576040517f3ee5aeb500000000000000000000000000000000000000000000000000000000815260040160405180910390fd5b60025f81905550565b60015f81905550565b5f80611a6786803603810190611a629190613bbf565b61201f565b90505f85604001351215611b11575f8560400135611a8490613bea565b90508060075f8481526020019081526020015f205f8a73ffffffffffffffffffffffffffffffffffffffff1673ffffffffffffffffffffffffffffffffffffffff1681526020019081526020015f205f828254611ae191906138f1565b925050819055508060065f8481526020019081526020015f205f828254611b0891906138f1565b92505081905550505b6321d0ee7060e01b91505095945050505050565b5f80611b4086803603810190611b3b9190613bbf565b61201f565b90505f85604001351315611be057846040013560075f8381526020019081526020015f205f8973ffffffffffffffffffffffffffffffffffffffff1673ffffffffffffffffffffffffffffffffffffffff1681526020019081526020015f205f828254611bad9190613750565b92505081905550846040013560065f8381526020019081526020015f205f828254611bd89190613750565b925050819055505b63259982e560e01b91505095945050505050565b611bfc61202b565b73ffffffffffffffffffffffffffffffffffffffff16611c1a61132a565b73ffffffffffffffffffffffffffffffffffffffff1614611c7957611c3d61202b565b6040517f118cdaa7000000000000000000000000000000000000000000000000000000008152600401611c709190612ec6565b60405180910390fd5b565b611c83612032565b5f600160146101000a81548160ff0219169083151502179055507f5db9ee0a495bf2e6ff9c91a7834c1ba4fdd244a5e8aa4e537bd38aeae4b073aa611cc661202b565b604051611cd39190612ec6565b60405180910390a1565b5f805f611ce8612072565b5f611d0288803603810190611cfd9190613bbf565b61201f565b9050611d0e88886120b3565b15611d1d57611d1c816121fa565b5b63575e24b460e01b5f8093509350935050955095509592505050565b5f806040517f0a85dc2900000000000000000000000000000000000000000000000000000000815260040160405180910390fd5b5f6040517f0a85dc2900000000000000000000000000000000000000000000000000000000815260040160405180910390fd5b5f60015f9054906101000a900473ffffffffffffffffffffffffffffffffffffffff1690508160015f6101000a81548173ffffffffffffffffffffffffffffffffffffffff021916908373ffffffffffffffffffffffffffffffffffffffff1602179055508173ffffffffffffffffffffffffffffffffffffffff168173ffffffffffffffffffffffffffffffffffffffff167f8be0079c531659141344cd1fd0a4f28419497f9722a3daafe3b4186f6b6457e060405160405180910390a35050565b611e6b612072565b60018060146101000a81548160ff0219169083151502179055507f62e78cea01bee320cd4e420270b5ea74000d11b0c9f74754ebdbfc544b05a258611eae61202b565b604051611ebb9190612ec6565b60405180910390a1565b5f806040517f0a85dc2900000000000000000000000000000000000000000000000000000000815260040160405180910390fd5b5f805f611f1588803603810190611f109190613bbf565b61201f565b90505f60025f8381526020019081526020015f205490505f801b8114158015611f5c575060035f8281526020019081526020015f2060030160019054906101000a900460ff165b15611f6c57611f6b82826123b9565b5b63b47b2fb160e01b5f935093505050965096945050505050565b5f6040517f0a85dc2900000000000000000000000000000000000000000000000000000000815260040160405180910390fd5b5f6040517f0a85dc2900000000000000000000000000000000000000000000000000000000815260040160405180910390fd5b5f6040517f0a85dc2900000000000000000000000000000000000000000000000000000000815260040160405180910390fd5b5f60a082209050919050565b5f33905090565b61203a610f77565b612070576040517f8dfc202b00000000000000000000000000000000000000000000000000000000815260040160405180910390fd5b565b61207a610f77565b156120b1576040517fd93c066500000000000000000000000000000000000000000000000000000000815260040160405180910390fd5b565b5f806120be84612583565b90505f7f000000000000000000000000000000000000000000000000000000000000000073ffffffffffffffffffffffffffffffffffffffff1663ac41865a865f01602081019061210f9190613c30565b8760200160208101906121229190613c30565b6040518363ffffffff1660e01b815260040161213f929190613c7b565b602060405180830381865afa15801561215a573d5f803e3d5ffd5b505050506040513d601f19601f8201168201806040525081019061217e9190613cb6565b90505f8183116121b15782612710848461219891906138f1565b6121a29190613853565b6121ac91906138c1565b6121d6565b8161271083856121c191906138f1565b6121cb9190613853565b6121d591906138c1565b5b9050600a5481101580156121ef57506121ee85612717565b5b935050505092915050565b5f801b60025f8381526020019081526020015f2054036123b6575f81424360405160200161222a93929190613d21565b604051602081830303815290604052805190602001209050604051806101000160405280838152602001428152602001600c81526020016001151581526020015f151581526020015f73ffffffffffffffffffffffffffffffffffffffff1681526020015f81526020015f81525060035f8381526020019081526020015f205f820151815f015560208201518160010155604082015181600201556060820151816003015f6101000a81548160ff02191690831515021790555060808201518160030160016101000a81548160ff02191690831515021790555060a08201518160030160026101000a81548173ffffffffffffffffffffffffffffffffffffffff021916908373ffffffffffffffffffffffffffffffffffffffff16021790555060c0820151816004015560e082015181600501559050508060025f8481526020019081526020015f208190555081817f8d50f1936786e8fcaf1a432bed2207696b5cc11646e7107f3e439f44546d848242600c6040516123ac92919061398c565b60405180910390a3505b50565b5f60035f8381526020019081526020015f2090505f816004015490505f811115612565575f612710612134836123ef9190613853565b6123f991906138c1565b90505f6127106103e88461240d9190613853565b61241791906138c1565b90505f61271061012c8561242b9190613853565b61243591906138c1565b90508260045f8981526020019081526020015f205f8282546124579190613750565b92505081905550612468878461275c565b5f8211156124b5573373ffffffffffffffffffffffffffffffffffffffff166108fc8390811502906040515f60405180830381858888f193505050501580156124b3573d5f803e3d5ffd5b505b5f8111156125235760095f9054906101000a900473ffffffffffffffffffffffffffffffffffffffff1673ffffffffffffffffffffffffffffffffffffffff166108fc8290811502906040515f60405180830381858888f19350505050158015612521573d5f803e3d5ffd5b505b867f9f28cf522c1dd60442bfdecae6dfd5abc02b942618ef4f1e2fb7f3efdc8b4f45858585856040516125599493929190613d5d565b60405180910390a25050505b5f801b60025f8681526020019081526020015f208190555050505050565b5f8061258e83612787565b90505f8173ffffffffffffffffffffffffffffffffffffffff1603612672577f000000000000000000000000000000000000000000000000000000000000000073ffffffffffffffffffffffffffffffffffffffff1663ac41865a845f0160208101906125fb9190613c30565b85602001602081019061260e9190613c30565b6040518363ffffffff1660e01b815260040161262b929190613c7b565b602060405180830381865afa158015612646573d5f803e3d5ffd5b505050506040513d601f19601f8201168201806040525081019061266a9190613cb6565b915050612712565b5f8173ffffffffffffffffffffffffffffffffffffffff1690505f60c0670de0b6b3a764000083846126a49190613853565b6126ae9190613853565b901c90506126df855f0160208101906126c79190613c30565b8660200160208101906126da9190613c30565b61278d565b1561270b575f81111561270a57806ec097ce7bc90715b34b9f100000000061270791906138c1565b90505b5b8093505050505b919050565b5f670de0b6b3a76400008260200135138061275557507ffffffffffffffffffffffffffffffffffffffffffffffffff21f494c589c00008260200135125b9050919050565b8060045f8481526020019081526020015f205f82825461277c9190613750565b925050819055505050565b5f919050565b5f808390505f8390505f73a0b86a33e6441c4c27d3f50c9d6d14bdf12f4e6e90505f73dac17f958d2ee523a2206206994597c13d831ec790505f736b175474e89094c44da98b954eedeac495271d0f90508273ffffffffffffffffffffffffffffffffffffffff168473ffffffffffffffffffffffffffffffffffffffff16148061284357508173ffffffffffffffffffffffffffffffffffffffff168473ffffffffffffffffffffffffffffffffffffffff16145b8061287957508073ffffffffffffffffffffffffffffffffffffffff168473ffffffffffffffffffffffffffffffffffffffff16145b1561288b575f95505050505050612970565b8273ffffffffffffffffffffffffffffffffffffffff168573ffffffffffffffffffffffffffffffffffffffff1614806128f057508173ffffffffffffffffffffffffffffffffffffffff168573ffffffffffffffffffffffffffffffffffffffff16145b8061292657508073ffffffffffffffffffffffffffffffffffffffff168573ffffffffffffffffffffffffffffffffffffffff16145b1561293957600195505050505050612970565b8373ffffffffffffffffffffffffffffffffffffffff168573ffffffffffffffffffffffffffffffffffffffff1610955050505050505b92915050565b604051806101c001604052805f151581526020015f151581526020015f151581526020015f151581526020015f151581526020015f151581526020015f151581526020015f151581526020015f151581526020015f151581526020015f151581526020015f151581526020015f151581526020015f151581525090565b5f604051905090565b5f80fd5b5f80fd5b5f73ffffffffffffffffffffffffffffffffffffffff82169050919050565b5f612a2d82612a04565b9050919050565b612a3d81612a23565b8114612a47575f80fd5b50565b5f81359050612a5881612a34565b92915050565b5f60208284031215612a7357612a726129fc565b5b5f612a8084828501612a4a565b91505092915050565b5f8115159050919050565b612a9d81612a89565b82525050565b5f602082019050612ab65f830184612a94565b92915050565b5f819050919050565b612ace81612abc565b82525050565b5f602082019050612ae75f830184612ac5565b92915050565b5f819050919050565b612aff81612aed565b8114612b09575f80fd5b50565b5f81359050612b1a81612af6565b92915050565b612b2981612abc565b8114612b33575f80fd5b50565b5f81359050612b4481612b20565b92915050565b5f805f60608486031215612b6157612b606129fc565b5b5f612b6e86828701612b0c565b9350506020612b7f86828701612a4a565b9250506040612b9086828701612b36565b9150509250925092565b5f60208284031215612baf57612bae6129fc565b5b5f612bbc84828501612b0c565b91505092915050565b5f612bcf82612aed565b9050919050565b612bdf81612bc5565b82525050565b612bee81612a23565b82525050565b5f61010082019050612c085f83018b612bd6565b612c15602083018a612ac5565b612c226040830189612ac5565b612c2f6060830188612a94565b612c3c6080830187612a94565b612c4960a0830186612be5565b612c5660c0830185612ac5565b612c6360e0830184612ac5565b9998505050505050505050565b5f80fd5b5f60a08284031215612c8957612c88612c70565b5b81905092915050565b5f60808284031215612ca757612ca6612c70565b5b81905092915050565b5f80fd5b5f80fd5b5f80fd5b5f8083601f840112612cd157612cd0612cb0565b5b8235905067ffffffffffffffff811115612cee57612ced612cb4565b5b602083019150836001820283011115612d0a57612d09612cb8565b5b9250929050565b5f805f805f6101608688031215612d2b57612d2a6129fc565b5b5f612d3888828901612a4a565b9550506020612d4988828901612c74565b94505060c0612d5a88828901612c92565b93505061014086013567ffffffffffffffff811115612d7c57612d7b612a00565b5b612d8888828901612cbc565b92509250509295509295909350565b5f7fffffffff0000000000000000000000000000000000000000000000000000000082169050919050565b612dcb81612d97565b82525050565b5f602082019050612de45f830184612dc2565b92915050565b5f819050919050565b5f612e0d612e08612e0384612a04565b612dea565b612a04565b9050919050565b5f612e1e82612df3565b9050919050565b5f612e2f82612e14565b9050919050565b612e3f81612e25565b82525050565b5f602082019050612e585f830184612e36565b92915050565b612e6781612aed565b8114612e71575f80fd5b50565b5f81359050612e8281612e5e565b92915050565b5f8060408385031215612e9e57612e9d6129fc565b5b5f612eab85828601612e74565b9250506020612ebc85828601612a4a565b9150509250929050565b5f602082019050612ed95f830184612be5565b92915050565b5f60208284031215612ef457612ef36129fc565b5b5f612f0184828501612e74565b91505092915050565b612f1381612aed565b82525050565b5f602082019050612f2c5f830184612f0a565b92915050565b5f60608284031215612f4757612f46612c70565b5b81905092915050565b5f805f805f6101408688031215612f6a57612f696129fc565b5b5f612f7788828901612a4a565b9550506020612f8888828901612c74565b94505060c0612f9988828901612f32565b93505061012086013567ffffffffffffffff811115612fbb57612fba612a00565b5b612fc788828901612cbc565b92509250509295509295909350565b5f819050919050565b5f612ff9612ff4612fef84612fd6565b612dea565b612fd6565b9050919050565b61300981612fdf565b82525050565b5f62ffffff82169050919050565b6130268161300f565b82525050565b5f60608201905061303f5f830186612dc2565b61304c6020830185613000565b613059604083018461301d565b949350505050565b5f61306b82612e14565b9050919050565b61307b81613061565b82525050565b5f6020820190506130945f830184613072565b92915050565b6130a381612fd6565b81146130ad575f80fd5b50565b5f813590506130be8161309a565b92915050565b5f805f805f805f6101a0888a0312156130e0576130df6129fc565b5b5f6130ed8a828b01612a4a565b97505060206130fe8a828b01612c74565b96505060c061310f8a828b01612c92565b9550506101406131218a828b016130b0565b9450506101606131338a828b016130b0565b93505061018088013567ffffffffffffffff81111561315557613154612a00565b5b6131618a828b01612cbc565b925092505092959891949750929550565b61317b81612fdf565b82525050565b5f6040820190506131945f830185612dc2565b6131a16020830184613172565b9392505050565b6131b181612a04565b81146131bb575f80fd5b50565b5f813590506131cc816131a8565b92915050565b5f8160020b9050919050565b6131e7816131d2565b81146131f1575f80fd5b50565b5f81359050613202816131de565b92915050565b5f805f806101008587031215613221576132206129fc565b5b5f61322e87828801612a4a565b945050602061323f87828801612c74565b93505060c0613250878288016131be565b92505060e0613261878288016131f4565b91505092959194509250565b61327681612a89565b8114613280575f80fd5b50565b5f813590506132918161326d565b92915050565b5f80604083850312156132ad576132ac6129fc565b5b5f6132ba85828601612a4a565b92505060206132cb85828601613283565b9150509250929050565b5f805f805f8061016087890312156132f0576132ef6129fc565b5b5f6132fd89828a01612a4a565b965050602061330e89828a01612c74565b95505060c061331f89828a01612f32565b94505061012061333189828a016130b0565b93505061014087013567ffffffffffffffff81111561335357613352612a00565b5b61335f89828a01612cbc565b92509250509295509295509295565b5f81600f0b9050919050565b6133838161336e565b82525050565b5f60408201905061339c5f830185612dc2565b6133a9602083018461337a565b9392505050565b5f805f805f8061012087890312156133cb576133ca6129fc565b5b5f6133d889828a01612a4a565b96505060206133e989828a01612c74565b95505060c06133fa89828a01612b36565b94505060e061340b89828a01612b36565b93505061010087013567ffffffffffffffff81111561342d5761342c612a00565b5b61343989828a01612cbc565b92509250509295509295509295565b61345181612a89565b82525050565b6101c082015f82015161346c5f850182613448565b50602082015161347f6020850182613448565b5060408201516134926040850182613448565b5060608201516134a56060850182613448565b5060808201516134b86080850182613448565b5060a08201516134cb60a0850182613448565b5060c08201516134de60c0850182613448565b5060e08201516134f160e0850182613448565b50610100820151613506610100850182613448565b5061012082015161351b610120850182613448565b50610140820151613530610140850182613448565b50610160820151613545610160850182613448565b5061018082015161355a610180850182613448565b506101a082015161356f6101a0850182613448565b50505050565b5f6101c0820190506135895f830184613457565b92915050565b5f602082840312156135a4576135a36129fc565b5b5f6135b184828501612b36565b91505092915050565b5f6135c482612e14565b9050919050565b6135d4816135ba565b82525050565b5f6020820190506135ed5f8301846135cb565b92915050565b5f805f60e0848603121561360a576136096129fc565b5b5f61361786828701612a4a565b935050602061362886828701612c74565b92505060c0613639868287016131be565b9150509250925092565b5f82825260208201905092915050565b7f456967656e4c56523a20756e617574686f72697a6564206f70657261746f72005f82015250565b5f613687601f83613643565b915061369282613653565b602082019050919050565b5f6020820190508181035f8301526136b48161367b565b9050919050565b7f456967656e4c56523a2061756374696f6e206e6f7420616374697665000000005f82015250565b5f6136ef601c83613643565b91506136fa826136bb565b602082019050919050565b5f6020820190508181035f83015261371c816136e3565b9050919050565b7f4e487b71000000000000000000000000000000000000000000000000000000005f52601160045260245ffd5b5f61375a82612abc565b915061376583612abc565b925082820190508082111561377d5761377c613723565b5b92915050565b7f456967656e4c56523a2061756374696f6e206e6f7420656e64656400000000005f82015250565b5f6137b7601b83613643565b91506137c282613783565b602082019050919050565b5f6020820190508181035f8301526137e4816137ab565b9050919050565b7f456967656e4c56523a206e6f206c69717569646974792070726f7669646564005f82015250565b5f61381f601f83613643565b915061382a826137eb565b602082019050919050565b5f6020820190508181035f83015261384c81613813565b9050919050565b5f61385d82612abc565b915061386883612abc565b925082820261387681612abc565b9150828204841483151761388d5761388c613723565b5b5092915050565b7f4e487b71000000000000000000000000000000000000000000000000000000005f52601260045260245ffd5b5f6138cb82612abc565b91506138d683612abc565b9250826138e6576138e5613894565b5b828204905092915050565b5f6138fb82612abc565b915061390683612abc565b925082820390508181111561391e5761391d613723565b5b92915050565b7f456967656e4c56523a207468726573686f6c6420746f6f2068696768000000005f82015250565b5f613958601c83613643565b915061396382613924565b602082019050919050565b5f6020820190508181035f8301526139858161394c565b9050919050565b5f60408201905061399f5f830185612ac5565b6139ac6020830184612ac5565b9392505050565b7f456967656e4c56523a20696e76616c69642061646472657373000000000000005f82015250565b5f6139e7601983613643565b91506139f2826139b3565b602082019050919050565b5f6020820190508181035f830152613a14816139db565b9050919050565b5f80fd5b5f601f19601f8301169050919050565b7f4e487b71000000000000000000000000000000000000000000000000000000005f52604160045260245ffd5b613a6582613a1f565b810181811067ffffffffffffffff82111715613a8457613a83613a2f565b5b80604052505050565b5f613a966129f3565b9050613aa28282613a5c565b919050565b613ab081612a23565b8114613aba575f80fd5b50565b5f81359050613acb81613aa7565b92915050565b613ada8161300f565b8114613ae4575f80fd5b50565b5f81359050613af581613ad1565b92915050565b5f613b0582612a23565b9050919050565b613b1581613afb565b8114613b1f575f80fd5b50565b5f81359050613b3081613b0c565b92915050565b5f60a08284031215613b4b57613b4a613a1b565b5b613b5560a0613a8d565b90505f613b6484828501613abd565b5f830152506020613b7784828501613abd565b6020830152506040613b8b84828501613ae7565b6040830152506060613b9f848285016131f4565b6060830152506080613bb384828501613b22565b60808301525092915050565b5f60a08284031215613bd457613bd36129fc565b5b5f613be184828501613b36565b91505092915050565b5f613bf482612fd6565b91507f80000000000000000000000000000000000000000000000000000000000000008203613c2657613c25613723565b5b815f039050919050565b5f60208284031215613c4557613c446129fc565b5b5f613c5284828501613abd565b91505092915050565b5f613c6582612e14565b9050919050565b613c7581613c5b565b82525050565b5f604082019050613c8e5f830185613c6c565b613c9b6020830184613c6c565b9392505050565b5f81519050613cb081612b20565b92915050565b5f60208284031215613ccb57613cca6129fc565b5b5f613cd884828501613ca2565b91505092915050565b5f819050919050565b613cfb613cf682612bc5565b613ce1565b82525050565b5f819050919050565b613d1b613d1682612abc565b613d01565b82525050565b5f613d2c8286613cea565b602082019150613d3c8285613d0a565b602082019150613d4c8284613d0a565b602082019150819050949350505050565b5f608082019050613d705f830187612ac5565b613d7d6020830186612ac5565b613d8a6040830185612ac5565b613d976060830184612ac5565b9594505050505056fea264697066735822122093cccff904c5b2c16cf3c44c9afe92abebe368bc7263e4ea230ff834ccc0b08864736f6c634300081a0033","linkReferences":{}},"methodIdentifiers":{"AVS_REWARD_PERCENTAGE()":"1a8a61f3","BASIS_POINTS()":"e1f1c4a7","GAS_COMPENSATION_PERCENTAGE()":"2ae8c718","LP_REWARD_PERCENTAGE()":"b26565c5","MAX_AUCTION_DURATION()":"3fb35178","MIN_BID()":"ce69cd20","PROTOCOL_FEE_PERCENTAGE()":"e4d7d6dc","activeAuctions(bytes32)":"5498304c","afterAddLiquidity(address,(address,address,uint24,int24,address),(int24,int24,int256,bytes32),int256,int256,bytes)":"9f063efc","afterDonate(address,(address,address,uint24,int24,address),uint256,uint256,bytes)":"e1b4af69","afterInitialize(address,(address,address,uint24,int24,address),uint160,int24)":"6fe7e6eb","afterRemoveLiquidity(address,(address,address,uint24,int24,address),(int24,int24,int256,bytes32),int256,int256,bytes)":"6c2bbe7e","afterSwap(address,(address,address,uint24,int24,address),(bool,int256,uint160),int256,bytes)":"b47b2fb1","auctions(bytes32)":"1edbc5be","authorizedOperators(address)":"181d989b","avsDirectory()":"6b3aa72e","beforeAddLiquidity(address,(address,address,uint24,int24,address),(int24,int24,int256,bytes32),bytes)":"259982e5","beforeDonate(address,(address,address,uint24,int24,address),uint256,uint256,bytes)":"b6a8b0fa","beforeInitialize(address,(address,address,uint24,int24,address),uint160)":"dc98354e","beforeRemoveLiquidity(address,(address,address,uint24,int24,address),(int24,int24,int256,bytes32),bytes)":"21d0ee70","beforeSwap(address,(address,address,uint24,int24,address),(bool,int256,uint160),bytes)":"575e24b4","claimRewards(bytes32)":"7790ddc6","feeRecipient()":"46904840","getHookPermissions()":"c4e833ce","lpLiquidity(bytes32,address)":"dcd728b5","lpRewards(bytes32,address)":"44612456","lvrThreshold()":"af4cbe80","owner()":"8da5cb5b","pause()":"8456cb59","paused()":"5c975abb","poolManager()":"dc4c90d3","poolRewards(bytes32)":"c0e8d384","priceOracle()":"2630c12f","renounceOwnership()":"715018a6","setFeeRecipient(address)":"e74b981b","setLVRThreshold(uint256)":"d40ea4d9","setOperatorAuthorization(address,bool)":"a99e4087","submitAuctionResult(bytes32,address,uint256)":"1e52301c","totalLiquidity(bytes32)":"54b7a8f7","transferOwnership(address)":"f2fde38b","unpause()":"3f4ba83a"},"id":68}