{"abi":[{"type":"constructor","inputs":[{"name":"_avsDirectory","type":"address","internalType":"contract IAVSDirectory"}],"stateMutability":"nonpayable"},{"type":"receive","stateMutability":"payable"},{"type":"function","name":"CHALLENGE_WINDOW","inputs":[],"outputs":[{"name":"","type":"uint256","internalType":"uint256"}],"stateMutability":"view"},{"type":"function","name":"MINIMUM_QUORUM_SIZE","inputs":[],"outputs":[{"name":"","type":"uint256","internalType":"uint256"}],"stateMutability":"view"},{"type":"function","name":"MINIMUM_STAKE","inputs":[],"outputs":[{"name":"","type":"uint256","internalType":"uint256"}],"stateMutability":"view"},{"type":"function","name":"TASK_RESPONSE_WINDOW","inputs":[],"outputs":[{"name":"","type":"uint256","internalType":"uint256"}],"stateMutability":"view"},{"type":"function","name":"addStake","inputs":[],"outputs":[],"stateMutability":"payable"},{"type":"function","name":"allTaskHashes","inputs":[{"name":"","type":"uint32","internalType":"uint32"}],"outputs":[{"name":"","type":"bytes32","internalType":"bytes32"}],"stateMutability":"view"},{"type":"function","name":"allTaskResponses","inputs":[{"name":"","type":"uint32","internalType":"uint32"}],"outputs":[{"name":"","type":"bytes32","internalType":"bytes32"}],"stateMutability":"view"},{"type":"function","name":"auctionTasks","inputs":[{"name":"","type":"uint32","internalType":"uint32"}],"outputs":[{"name":"auctionId","type":"bytes32","internalType":"bytes32"},{"name":"poolId","type":"bytes32","internalType":"bytes32"},{"name":"taskCreatedBlock","type":"uint32","internalType":"uint32"},{"name":"deadline","type":"uint256","internalType":"uint256"},{"name":"completed","type":"bool","internalType":"bool"}],"stateMutability":"view"},{"type":"function","name":"avsDirectory","inputs":[],"outputs":[{"name":"","type":"address","internalType":"contract IAVSDirectory"}],"stateMutability":"view"},{"type":"function","name":"challengeTask","inputs":[{"name":"taskIndex","type":"uint32","internalType":"uint32"}],"outputs":[],"stateMutability":"payable"},{"type":"function","name":"createAuctionTask","inputs":[{"name":"auctionId","type":"bytes32","internalType":"bytes32"},{"name":"poolId","type":"bytes32","internalType":"bytes32"}],"outputs":[{"name":"","type":"uint32","internalType":"uint32"}],"stateMutability":"nonpayable"},{"type":"function","name":"deregisterOperator","inputs":[],"outputs":[],"stateMutability":"nonpayable"},{"type":"function","name":"fundRewardPool","inputs":[],"outputs":[],"stateMutability":"payable"},{"type":"function","name":"getOperatorCount","inputs":[],"outputs":[{"name":"","type":"uint256","internalType":"uint256"}],"stateMutability":"view"},{"type":"function","name":"getTask","inputs":[{"name":"taskIndex","type":"uint32","internalType":"uint32"}],"outputs":[{"name":"","type":"tuple","internalType":"struct EigenLVRAVSServiceManager.AuctionTask","components":[{"name":"auctionId","type":"bytes32","internalType":"bytes32"},{"name":"poolId","type":"bytes32","internalType":"bytes32"},{"name":"taskCreatedBlock","type":"uint32","internalType":"uint32"},{"name":"deadline","type":"uint256","internalType":"uint256"},{"name":"completed","type":"bool","internalType":"bool"}]}],"stateMutability":"view"},{"type":"function","name":"getTaskResponse","inputs":[{"name":"taskIndex","type":"uint32","internalType":"uint32"},{"name":"operator","type":"address","internalType":"address"}],"outputs":[{"name":"","type":"tuple","internalType":"struct EigenLVRAVSServiceManager.TaskResponse","components":[{"name":"operator","type":"address","internalType":"address"},{"name":"auctionId","type":"bytes32","internalType":"bytes32"},{"name":"winner","type":"address","internalType":"address"},{"name":"winningBid","type":"uint256","internalType":"uint256"},{"name":"signature","type":"bytes","internalType":"bytes"},{"name":"timestamp","type":"uint256","internalType":"uint256"}]}],"stateMutability":"view"},{"type":"function","name":"hasQuorum","inputs":[],"outputs":[{"name":"","type":"bool","internalType":"bool"}],"stateMutability":"view"},{"type":"function","name":"latestTaskNum","inputs":[],"outputs":[{"name":"","type":"uint32","internalType":"uint32"}],"stateMutability":"view"},{"type":"function","name":"operatorRegistered","inputs":[{"name":"","type":"address","internalType":"address"}],"outputs":[{"name":"","type":"bool","internalType":"bool"}],"stateMutability":"view"},{"type":"function","name":"operatorResponded","inputs":[{"name":"","type":"uint32","internalType":"uint32"},{"name":"","type":"address","internalType":"address"}],"outputs":[{"name":"","type":"bool","internalType":"bool"}],"stateMutability":"view"},{"type":"function","name":"operatorStakes","inputs":[{"name":"","type":"address","internalType":"address"}],"outputs":[{"name":"","type":"uint256","internalType":"uint256"}],"stateMutability":"view"},{"type":"function","name":"owner","inputs":[],"outputs":[{"name":"","type":"address","internalType":"address"}],"stateMutability":"view"},{"type":"function","name":"registerOperator","inputs":[{"name":"operatorSignature","type":"bytes","internalType":"bytes"}],"outputs":[],"stateMutability":"payable"},{"type":"function","name":"registeredOperators","inputs":[{"name":"","type":"uint256","internalType":"uint256"}],"outputs":[{"name":"","type":"address","internalType":"address"}],"stateMutability":"view"},{"type":"function","name":"renounceOwnership","inputs":[],"outputs":[],"stateMutability":"nonpayable"},{"type":"function","name":"respondToTask","inputs":[{"name":"taskIndex","type":"uint32","internalType":"uint32"},{"name":"winner","type":"address","internalType":"address"},{"name":"winningBid","type":"uint256","internalType":"uint256"},{"name":"signature","type":"bytes","internalType":"bytes"}],"outputs":[],"stateMutability":"nonpayable"},{"type":"function","name":"rewardPool","inputs":[],"outputs":[{"name":"","type":"uint256","internalType":"uint256"}],"stateMutability":"view"},{"type":"function","name":"slashOperator","inputs":[{"name":"operator","type":"address","internalType":"address"},{"name":"amount","type":"uint256","internalType":"uint256"}],"outputs":[],"stateMutability":"nonpayable"},{"type":"function","name":"taskChallenged","inputs":[{"name":"","type":"uint32","internalType":"uint32"}],"outputs":[{"name":"","type":"bool","internalType":"bool"}],"stateMutability":"view"},{"type":"function","name":"taskResponses","inputs":[{"name":"","type":"uint32","internalType":"uint32"},{"name":"","type":"address","internalType":"address"}],"outputs":[{"name":"operator","type":"address","internalType":"address"},{"name":"auctionId","type":"bytes32","internalType":"bytes32"},{"name":"winner","type":"address","internalType":"address"},{"name":"winningBid","type":"uint256","internalType":"uint256"},{"name":"signature","type":"bytes","internalType":"bytes"},{"name":"timestamp","type":"uint256","internalType":"uint256"}],"stateMutability":"view"},{"type":"function","name":"transferOwnership","inputs":[{"name":"newOwner","type":"address","internalType":"address"}],"outputs":[],"stateMutability":"nonpayable"},{"type":"function","name":"withdraw","inputs":[],"outputs":[],"stateMutability":"nonpayable"},{"type":"event","name":"NewTaskCreated","inputs":[{"name":"taskIndex","type":"uint32","indexed":true,"internalType":"uint32"},{"name":"task","type":"tuple","indexed":false,"internalType":"struct EigenLVRAVSServiceManager.AuctionTask","components":[{"name":"auctionId","type":"bytes32","internalType":"bytes32"},{"name":"poolId","type":"bytes32","internalType":"bytes32"},{"name":"taskCreatedBlock","type":"uint32","internalType":"uint32"},{"name":"deadline","type":"uint256","internalType":"uint256"},{"name":"completed","type":"bool","internalType":"bool"}]}],"anonymous":false},{"type":"event","name":"OperatorDeregistered","inputs":[{"name":"operator","type":"address","indexed":true,"internalType":"address"}],"anonymous":false},{"type":"event","name":"OperatorRegistered","inputs":[{"name":"operator","type":"address","indexed":true,"internalType":"address"},{"name":"stake","type":"uint256","indexed":false,"internalType":"uint256"}],"anonymous":false},{"type":"event","name":"OwnershipTransferred","inputs":[{"name":"previousOwner","type":"address","indexed":true,"internalType":"address"},{"name":"newOwner","type":"address","indexed":true,"internalType":"address"}],"anonymous":false},{"type":"event","name":"RewardsDistributed","inputs":[{"name":"taskIndex","type":"uint32","indexed":true,"internalType":"uint32"},{"name":"totalReward","type":"uint256","indexed":false,"internalType":"uint256"}],"anonymous":false},{"type":"event","name":"StakeSlashed","inputs":[{"name":"operator","type":"address","indexed":true,"internalType":"address"},{"name":"amount","type":"uint256","indexed":false,"internalType":"uint256"}],"anonymous":false},{"type":"event","name":"TaskChallenged","inputs":[{"name":"taskIndex","type":"uint32","indexed":true,"internalType":"uint32"},{"name":"challenger","type":"address","indexed":true,"internalType":"address"}],"anonymous":false},{"type":"event","name":"TaskCompleted","inputs":[{"name":"taskIndex","type":"uint32","indexed":true,"internalType":"uint32"},{"name":"winner","type":"address","indexed":false,"internalType":"address"},{"name":"winningBid","type":"uint256","indexed":false,"internalType":"uint256"}],"anonymous":false},{"type":"event","name":"TaskResponded","inputs":[{"name":"taskIndex","type":"uint32","indexed":true,"internalType":"uint32"},{"name":"operator","type":"address","indexed":true,"internalType":"address"},{"name":"response","type":"tuple","indexed":false,"internalType":"struct EigenLVRAVSServiceManager.TaskResponse","components":[{"name":"operator","type":"address","internalType":"address"},{"name":"auctionId","type":"bytes32","internalType":"bytes32"},{"name":"winner","type":"address","internalType":"address"},{"name":"winningBid","type":"uint256","internalType":"uint256"},{"name":"signature","type":"bytes","internalType":"bytes"},{"name":"timestamp","type":"uint256","internalType":"uint256"}]}],"anonymous":false},{"type":"error","name":"OwnableInvalidOwner","inputs":[{"name":"owner","type":"address","internalType":"address"}]},{"type":"error","name":"OwnableUnauthorizedAccount","inputs":[{"name":"account","type":"address","internalType":"address"}]},{"type":"error","name":"ReentrancyGuardReentrantCall","inputs":[]}],"bytecode":{"object":"0x60a060405234801561000f575f80fd5b5060405161420138038061420183398181016040528101906100319190610223565b335f73ffffffffffffffffffffffffffffffffffffffff168173ffffffffffffffffffffffffffffffffffffffff16036100a2575f6040517f1e4fbdf7000000000000000000000000000000000000000000000000000000008152600401610099919061025d565b60405180910390fd5b6100b1816100f360201b60201c565b50600180819055508073ffffffffffffffffffffffffffffffffffffffff1660808173ffffffffffffffffffffffffffffffffffffffff168152505050610276565b5f805f9054906101000a900473ffffffffffffffffffffffffffffffffffffffff169050815f806101000a81548173ffffffffffffffffffffffffffffffffffffffff021916908373ffffffffffffffffffffffffffffffffffffffff1602179055508173ffffffffffffffffffffffffffffffffffffffff168173ffffffffffffffffffffffffffffffffffffffff167f8be0079c531659141344cd1fd0a4f28419497f9722a3daafe3b4186f6b6457e060405160405180910390a35050565b5f80fd5b5f73ffffffffffffffffffffffffffffffffffffffff82169050919050565b5f6101e1826101b8565b9050919050565b5f6101f2826101d7565b9050919050565b610202816101e8565b811461020c575f80fd5b50565b5f8151905061021d816101f9565b92915050565b5f60208284031215610238576102376101b4565b5b5f6102458482850161020f565b91505092915050565b610257816101d7565b82525050565b5f6020820190506102705f83018461024e565b92915050565b608051613f6561029c5f395f8181610d7901528181610ea3015261110f0152613f655ff3fe6080604052600436106101e6575f3560e01c8063783a7a2d11610101578063c2dc0add11610094578063eba79c8511610063578063eba79c85146106c1578063ec7fbb31146106fd578063f2fde38b14610739578063f82d45501461076157610204565b8063c2dc0add1461062b578063c6a5554a14610653578063d62aad291461067b578063d90c0ce3146106a557610204565b80638b00ce7c116100d05780638b00ce7c1461055f5780638da5cb5b146105895780639fa38d01146105b3578063a551c1b8146105ef57610204565b8063783a7a2d146104d9578063815b4d1b146105035780638231b54c1461052d578063857dc1901461054957610204565b80633ccfd60b11610179578063645aa42611610148578063645aa4261461043357806366666aa91461046f5780636b3aa72e14610499578063715018a6146104c357610204565b80633ccfd60b1461039b57806344cb8087146103b157806357342d74146103ed5780635a627dbc1461042957610204565b806320828339116101b557806320828339146102d85780632c29e7ae146102e25780632cb223d5146103235780632d89f6fc1461035f57610204565b806308dbbb031461020857806309f50cba146102325780631a4a7c61146102725780631c9856ae1461029c57610204565b366102045734600a5f8282546101fc9190612cbf565b925050819055005b5f80fd5b348015610213575f80fd5b5061021c61078b565b6040516102299190612d01565b60405180910390f35b34801561023d575f80fd5b5061025860048036038101906102539190612d5b565b610798565b604051610269959493929190612dc7565b60405180910390f35b34801561027d575f80fd5b506102866107e5565b6040516102939190612d01565b60405180910390f35b3480156102a7575f80fd5b506102c260048036038101906102bd9190612e72565b6107f1565b6040516102cf9190612d01565b60405180910390f35b6102e0610806565b005b3480156102ed575f80fd5b5061030860048036038101906103039190612e9d565b610820565b60405161031a96959493929190612f5a565b60405180910390f35b34801561032e575f80fd5b5061034960048036038101906103449190612d5b565b610927565b6040516103569190612fc0565b60405180910390f35b34801561036a575f80fd5b5061038560048036038101906103809190612d5b565b61093c565b6040516103929190612fc0565b60405180910390f35b3480156103a6575f80fd5b506103af610951565b005b3480156103bc575f80fd5b506103d760048036038101906103d29190612e9d565b610a19565b6040516103e491906130d4565b60405180910390f35b3480156103f8575f80fd5b50610413600480360381019061040e9190612d5b565b610be3565b6040516104209190613178565b60405180910390f35b610431610c76565b005b34801561043e575f80fd5b5061045960048036038101906104549190612d5b565b610d54565b6040516104669190613191565b60405180910390f35b34801561047a575f80fd5b50610483610d71565b6040516104909190612d01565b60405180910390f35b3480156104a4575f80fd5b506104ad610d77565b6040516104ba9190613205565b60405180910390f35b3480156104ce575f80fd5b506104d7610d9b565b005b3480156104e4575f80fd5b506104ed610dae565b6040516104fa9190612d01565b60405180910390f35b34801561050e575f80fd5b50610517610db3565b6040516105249190613191565b60405180910390f35b6105476004803603810190610542919061327f565b610dc3565b005b348015610554575f80fd5b5061055d61107c565b005b34801561056a575f80fd5b50610573611305565b60405161058091906132ca565b60405180910390f35b348015610594575f80fd5b5061059d61131a565b6040516105aa91906132e3565b60405180910390f35b3480156105be575f80fd5b506105d960048036038101906105d49190612e9d565b611341565b6040516105e69190613191565b60405180910390f35b3480156105fa575f80fd5b5061061560048036038101906106109190613326565b61136b565b60405161062291906132e3565b60405180910390f35b348015610636575f80fd5b50610651600480360381019061064c9190613351565b6113a6565b005b34801561065e575f80fd5b50610679600480360381019061067491906133d5565b6118b4565b005b348015610686575f80fd5b5061068f6119f9565b60405161069c9190612d01565b60405180910390f35b6106bf60048036038101906106ba9190612d5b565b611a00565b005b3480156106cc575f80fd5b506106e760048036038101906106e2919061343d565b611c14565b6040516106f491906132ca565b60405180910390f35b348015610708575f80fd5b50610723600480360381019061071e9190612e72565b611e0c565b6040516107309190613191565b60405180910390f35b348015610744575f80fd5b5061075f600480360381019061075a9190612e72565b611e29565b005b34801561076c575f80fd5b50610775611ead565b6040516107829190612d01565b60405180910390f35b6801bc16d674ec80000081565b600b602052805f5260405f205f91509050805f015490806001015490806002015f9054906101000a900463ffffffff1690806003015490806004015f9054906101000a900460ff16905085565b5f600780549050905090565b6006602052805f5260405f205f915090505481565b34600a5f8282546108179190612cbf565b92505081905550565b600c602052815f5260405f20602052805f5260405f205f9150915050805f015f9054906101000a900473ffffffffffffffffffffffffffffffffffffffff1690806001015490806002015f9054906101000a900473ffffffffffffffffffffffffffffffffffffffff16908060030154908060040180546108a0906134a8565b80601f01602080910402602001604051908101604052809291908181526020018280546108cc906134a8565b80156109175780601f106108ee57610100808354040283529160200191610917565b820191905f5260205f20905b8154815290600101906020018083116108fa57829003601f168201915b5050505050908060050154905086565b6004602052805f5260405f205f915090505481565b6003602052805f5260405f205f915090505481565b610959611eb2565b5f4790505f811115610a16575f61096e61131a565b73ffffffffffffffffffffffffffffffffffffffff168260405161099190613505565b5f6040518083038185875af1925050503d805f81146109cb576040519150601f19603f3d011682016040523d82523d5f602084013e6109d0565b606091505b5050905080610a14576040517f08c379a0000000000000000000000000000000000000000000000000000000008152600401610a0b90613573565b60405180910390fd5b505b50565b610a21612bf1565b600c5f8463ffffffff1663ffffffff1681526020019081526020015f205f8373ffffffffffffffffffffffffffffffffffffffff1673ffffffffffffffffffffffffffffffffffffffff1681526020019081526020015f206040518060c00160405290815f82015f9054906101000a900473ffffffffffffffffffffffffffffffffffffffff1673ffffffffffffffffffffffffffffffffffffffff1673ffffffffffffffffffffffffffffffffffffffff16815260200160018201548152602001600282015f9054906101000a900473ffffffffffffffffffffffffffffffffffffffff1673ffffffffffffffffffffffffffffffffffffffff1673ffffffffffffffffffffffffffffffffffffffff16815260200160038201548152602001600482018054610b51906134a8565b80601f0160208091040260200160405190810160405280929190818152602001828054610b7d906134a8565b8015610bc85780601f10610b9f57610100808354040283529160200191610bc8565b820191905f5260205f20905b815481529060010190602001808311610bab57829003601f168201915b50505050508152602001600582015481525050905092915050565b610beb612c51565b600b5f8363ffffffff1663ffffffff1681526020019081526020015f206040518060a00160405290815f820154815260200160018201548152602001600282015f9054906101000a900463ffffffff1663ffffffff1663ffffffff16815260200160038201548152602001600482015f9054906101000a900460ff1615151515815250509050919050565b60055f3373ffffffffffffffffffffffffffffffffffffffff1673ffffffffffffffffffffffffffffffffffffffff1681526020019081526020015f205f9054906101000a900460ff16610cff576040517f08c379a0000000000000000000000000000000000000000000000000000000008152600401610cf6906135db565b60405180910390fd5b3460065f3373ffffffffffffffffffffffffffffffffffffffff1673ffffffffffffffffffffffffffffffffffffffff1681526020019081526020015f205f828254610d4b9190612cbf565b92505081905550565b6009602052805f5260405f205f915054906101000a900460ff1681565b600a5481565b7f000000000000000000000000000000000000000000000000000000000000000081565b610da3611eb2565b610dac5f611f39565b565b603c81565b5f60036007805490501015905090565b610dcb611ffa565b60055f3373ffffffffffffffffffffffffffffffffffffffff1673ffffffffffffffffffffffffffffffffffffffff1681526020019081526020015f205f9054906101000a900460ff1615610e55576040517f08c379a0000000000000000000000000000000000000000000000000000000008152600401610e4c90613643565b60405180910390fd5b6801bc16d674ec800000341015610ea1576040517f08c379a0000000000000000000000000000000000000000000000000000000008152600401610e98906136ab565b60405180910390fd5b7f000000000000000000000000000000000000000000000000000000000000000073ffffffffffffffffffffffffffffffffffffffff1663023c8f8d3384846040518463ffffffff1660e01b8152600401610efe93929190613703565b5f604051808303815f87803b158015610f15575f80fd5b505af1158015610f27573d5f803e3d5ffd5b50505050600160055f3373ffffffffffffffffffffffffffffffffffffffff1673ffffffffffffffffffffffffffffffffffffffff1681526020019081526020015f205f6101000a81548160ff0219169083151502179055503460065f3373ffffffffffffffffffffffffffffffffffffffff1673ffffffffffffffffffffffffffffffffffffffff1681526020019081526020015f2081905550600733908060018154018082558091505060019003905f5260205f20015f9091909190916101000a81548173ffffffffffffffffffffffffffffffffffffffff021916908373ffffffffffffffffffffffffffffffffffffffff1602179055503373ffffffffffffffffffffffffffffffffffffffff167fbc11617e575d658c74e921c8df22f8e48566072fa78145a6cfe18420bf8d0c4e346040516110689190612d01565b60405180910390a2611078612040565b5050565b60055f3373ffffffffffffffffffffffffffffffffffffffff1673ffffffffffffffffffffffffffffffffffffffff1681526020019081526020015f205f9054906101000a900460ff16611105576040517f08c379a00000000000000000000000000000000000000000000000000000000081526004016110fc906135db565b60405180910390fd5b61110d611ffa565b7f000000000000000000000000000000000000000000000000000000000000000073ffffffffffffffffffffffffffffffffffffffff1663a364f4da336040518263ffffffff1660e01b815260040161116691906132e3565b5f604051808303815f87803b15801561117d575f80fd5b505af115801561118f573d5f803e3d5ffd5b505050505f60065f3373ffffffffffffffffffffffffffffffffffffffff1673ffffffffffffffffffffffffffffffffffffffff1681526020019081526020015f205490505f60065f3373ffffffffffffffffffffffffffffffffffffffff1673ffffffffffffffffffffffffffffffffffffffff1681526020019081526020015f20819055505f60055f3373ffffffffffffffffffffffffffffffffffffffff1673ffffffffffffffffffffffffffffffffffffffff1681526020019081526020015f205f6101000a81548160ff02191690831515021790555061127333612049565b3373ffffffffffffffffffffffffffffffffffffffff166108fc8290811502906040515f60405180830381858888f193505050501580156112b6573d5f803e3d5ffd5b503373ffffffffffffffffffffffffffffffffffffffff167f6dd4ca66565fb3dee8076c654634c6c4ad949022d809d0394308617d6791218d60405160405180910390a250611303612040565b565b60025f9054906101000a900463ffffffff1681565b5f805f9054906101000a900473ffffffffffffffffffffffffffffffffffffffff16905090565b6008602052815f5260405f20602052805f5260405f205f915091509054906101000a900460ff1681565b6007818154811061137a575f80fd5b905f5260205f20015f915054906101000a900473ffffffffffffffffffffffffffffffffffffffff1681565b60055f3373ffffffffffffffffffffffffffffffffffffffff1673ffffffffffffffffffffffffffffffffffffffff1681526020019081526020015f205f9054906101000a900460ff1661142f576040517f08c379a0000000000000000000000000000000000000000000000000000000008152600401611426906135db565b60405180910390fd5b8460025f9054906101000a900463ffffffff1663ffffffff168163ffffffff161115611490576040517f08c379a00000000000000000000000000000000000000000000000000000000081526004016114879061377d565b60405180910390fd5b600b5f8263ffffffff1663ffffffff1681526020019081526020015f206004015f9054906101000a900460ff16156114fd576040517f08c379a00000000000000000000000000000000000000000000000000000000081526004016114f4906137e5565b60405180910390fd5b600b5f8763ffffffff1663ffffffff1681526020019081526020015f2060030154421115611560576040517f08c379a00000000000000000000000000000000000000000000000000000000081526004016115579061384d565b60405180910390fd5b60085f8763ffffffff1663ffffffff1681526020019081526020015f205f3373ffffffffffffffffffffffffffffffffffffffff1673ffffffffffffffffffffffffffffffffffffffff1681526020019081526020015f205f9054906101000a900460ff1615611605576040517f08c379a00000000000000000000000000000000000000000000000000000000081526004016115fc906138b5565b60405180910390fd5b5f6040518060c001604052803373ffffffffffffffffffffffffffffffffffffffff168152602001600b5f8a63ffffffff1663ffffffff1681526020019081526020015f205f015481526020018773ffffffffffffffffffffffffffffffffffffffff16815260200186815260200185858080601f0160208091040260200160405190810160405280939291908181526020018383808284375f81840152601f19601f82011690508083019250505050505050815260200142815250905080600c5f8963ffffffff1663ffffffff1681526020019081526020015f205f3373ffffffffffffffffffffffffffffffffffffffff1673ffffffffffffffffffffffffffffffffffffffff1681526020019081526020015f205f820151815f015f6101000a81548173ffffffffffffffffffffffffffffffffffffffff021916908373ffffffffffffffffffffffffffffffffffffffff160217905550602082015181600101556040820151816002015f6101000a81548173ffffffffffffffffffffffffffffffffffffffff021916908373ffffffffffffffffffffffffffffffffffffffff1602179055506060820151816003015560808201518160040190816117cf9190613a94565b5060a08201518160050155905050600160085f8963ffffffff1663ffffffff1681526020019081526020015f205f3373ffffffffffffffffffffffffffffffffffffffff1673ffffffffffffffffffffffffffffffffffffffff1681526020019081526020015f205f6101000a81548160ff0219169083151502179055503373ffffffffffffffffffffffffffffffffffffffff168763ffffffff167f106910acb32a1035268785fd636452fcf658cb0c178ea2d6e4a099f6d62bf5d58360405161189a91906130d4565b60405180910390a36118ab876121c6565b50505050505050565b6118bc611eb2565b8060065f8473ffffffffffffffffffffffffffffffffffffffff1673ffffffffffffffffffffffffffffffffffffffff1681526020019081526020015f2054101561193c576040517f08c379a0000000000000000000000000000000000000000000000000000000008152600401611933906136ab565b60405180910390fd5b8060065f8473ffffffffffffffffffffffffffffffffffffffff1673ffffffffffffffffffffffffffffffffffffffff1681526020019081526020015f205f8282546119889190613b63565b9250508190555080600a5f8282546119a09190612cbf565b925050819055508173ffffffffffffffffffffffffffffffffffffffff167f83f5ea8bea7627d95274e94dd7e9e3d7e82cb55feab513ed49e325232dcc61e0826040516119ed9190612d01565b60405180910390a25050565b62093a8081565b67016345785d8a0000341015611a4b576040517f08c379a0000000000000000000000000000000000000000000000000000000008152600401611a4290613be0565b60405180910390fd5b600b5f8263ffffffff1663ffffffff1681526020019081526020015f206004015f9054906101000a900460ff16611ab7576040517f08c379a0000000000000000000000000000000000000000000000000000000008152600401611aae90613c48565b60405180910390fd5b60095f8263ffffffff1663ffffffff1681526020019081526020015f205f9054906101000a900460ff1615611b21576040517f08c379a0000000000000000000000000000000000000000000000000000000008152600401611b1890613cb0565b60405180910390fd5b62093a80600b5f8363ffffffff1663ffffffff1681526020019081526020015f2060030154611b509190612cbf565b421115611b92576040517f08c379a0000000000000000000000000000000000000000000000000000000008152600401611b8990613d18565b60405180910390fd5b600160095f8363ffffffff1663ffffffff1681526020019081526020015f205f6101000a81548160ff0219169083151502179055503373ffffffffffffffffffffffffffffffffffffffff168163ffffffff167fb9eca752de3cf587860bd00067853ffd45519029b68708e5b84933e15208e97b60405160405180910390a350565b5f611c1d611eb2565b60036007805490501015611c66576040517f08c379a0000000000000000000000000000000000000000000000000000000008152600401611c5d90613d80565b60405180910390fd5b5f60025f9054906101000a900463ffffffff16905060025f81819054906101000a900463ffffffff1680929190611c9c90613d9e565b91906101000a81548163ffffffff021916908363ffffffff160217905550505f6040518060a001604052808681526020018581526020014363ffffffff168152602001603c42611cec9190612cbf565b81526020015f1515815250905080600b5f8463ffffffff1663ffffffff1681526020019081526020015f205f820151815f0155602082015181600101556040820151816002015f6101000a81548163ffffffff021916908363ffffffff160217905550606082015181600301556080820151816004015f6101000a81548160ff02191690831515021790555090505080604051602001611d8c9190613178565b6040516020818303038152906040528051906020012060035f8463ffffffff1663ffffffff1681526020019081526020015f20819055508163ffffffff167f7279332b2f4a0b778531b676dc645918c32e1cbc01c9de6ff19f790d715e816482604051611df99190613178565b60405180910390a2819250505092915050565b6005602052805f5260405f205f915054906101000a900460ff1681565b611e31611eb2565b5f73ffffffffffffffffffffffffffffffffffffffff168173ffffffffffffffffffffffffffffffffffffffff1603611ea1575f6040517f1e4fbdf7000000000000000000000000000000000000000000000000000000008152600401611e9891906132e3565b60405180910390fd5b611eaa81611f39565b50565b600381565b611eba612861565b73ffffffffffffffffffffffffffffffffffffffff16611ed861131a565b73ffffffffffffffffffffffffffffffffffffffff1614611f3757611efb612861565b6040517f118cdaa7000000000000000000000000000000000000000000000000000000008152600401611f2e91906132e3565b60405180910390fd5b565b5f805f9054906101000a900473ffffffffffffffffffffffffffffffffffffffff169050815f806101000a81548173ffffffffffffffffffffffffffffffffffffffff021916908373ffffffffffffffffffffffffffffffffffffffff1602179055508173ffffffffffffffffffffffffffffffffffffffff168173ffffffffffffffffffffffffffffffffffffffff167f8be0079c531659141344cd1fd0a4f28419497f9722a3daafe3b4186f6b6457e060405160405180910390a35050565b600260015403612036576040517f3ee5aeb500000000000000000000000000000000000000000000000000000000815260040160405180910390fd5b6002600181905550565b60018081905550565b5f5b6007805490508110156121c2578173ffffffffffffffffffffffffffffffffffffffff166007828154811061208357612082613dc9565b5b905f5260205f20015f9054906101000a900473ffffffffffffffffffffffffffffffffffffffff1673ffffffffffffffffffffffffffffffffffffffff16036121b557600760016007805490506120da9190613b63565b815481106120eb576120ea613dc9565b5b905f5260205f20015f9054906101000a900473ffffffffffffffffffffffffffffffffffffffff166007828154811061212757612126613dc9565b5b905f5260205f20015f6101000a81548173ffffffffffffffffffffffffffffffffffffffff021916908373ffffffffffffffffffffffffffffffffffffffff160217905550600780548061217e5761217d613df6565b5b600190038181905f5260205f20015f6101000a81549073ffffffffffffffffffffffffffffffffffffffff021916905590556121c2565b808060010191505061204b565b5050565b5f80805f805b60078054905081101561275d575f600782815481106121ee576121ed613dc9565b5b905f5260205f20015f9054906101000a900473ffffffffffffffffffffffffffffffffffffffff16905060085f8863ffffffff1663ffffffff1681526020019081526020015f205f8273ffffffffffffffffffffffffffffffffffffffff1673ffffffffffffffffffffffffffffffffffffffff1681526020019081526020015f205f9054906101000a900460ff161561274f57858061228d90613e23565b9650505f600c5f8963ffffffff1663ffffffff1681526020019081526020015f205f8373ffffffffffffffffffffffffffffffffffffffff1673ffffffffffffffffffffffffffffffffffffffff1681526020019081526020015f206040518060c00160405290815f82015f9054906101000a900473ffffffffffffffffffffffffffffffffffffffff1673ffffffffffffffffffffffffffffffffffffffff1673ffffffffffffffffffffffffffffffffffffffff16815260200160018201548152602001600282015f9054906101000a900473ffffffffffffffffffffffffffffffffffffffff1673ffffffffffffffffffffffffffffffffffffffff1673ffffffffffffffffffffffffffffffffffffffff168152602001600382015481526020016004820180546123c1906134a8565b80601f01602080910402602001604051908101604052809291908181526020018280546123ed906134a8565b80156124385780601f1061240f57610100808354040283529160200191612438565b820191905f5260205f20905b81548152906001019060200180831161241b57829003601f168201915b5050505050815260200160058201548152505090505f805b600780549050811015612731575f6007828154811061247257612471613dc9565b5b905f5260205f20015f9054906101000a900473ffffffffffffffffffffffffffffffffffffffff16905060085f8c63ffffffff1663ffffffff1681526020019081526020015f205f8273ffffffffffffffffffffffffffffffffffffffff1673ffffffffffffffffffffffffffffffffffffffff1681526020019081526020015f205f9054906101000a900460ff1615612723575f600c5f8d63ffffffff1663ffffffff1681526020019081526020015f205f8373ffffffffffffffffffffffffffffffffffffffff1673ffffffffffffffffffffffffffffffffffffffff1681526020019081526020015f206040518060c00160405290815f82015f9054906101000a900473ffffffffffffffffffffffffffffffffffffffff1673ffffffffffffffffffffffffffffffffffffffff1673ffffffffffffffffffffffffffffffffffffffff16815260200160018201548152602001600282015f9054906101000a900473ffffffffffffffffffffffffffffffffffffffff1673ffffffffffffffffffffffffffffffffffffffff1673ffffffffffffffffffffffffffffffffffffffff16815260200160038201548152602001600482018054612637906134a8565b80601f0160208091040260200160405190810160405280929190818152602001828054612663906134a8565b80156126ae5780601f10612685576101008083540402835291602001916126ae565b820191905f5260205f20905b81548152906001019060200180831161269157829003601f168201915b505050505081526020016005820154815250509050806040015173ffffffffffffffffffffffffffffffffffffffff16856040015173ffffffffffffffffffffffffffffffffffffffff1614801561270d575080606001518560600151145b1561272157838061271d90613e23565b9450505b505b508080600101915050612450565b508481111561274c5780945081604001519650816060015195505b50505b5080806001019150506121cc565b5060038410158015612787575060036002856127799190613e6a565b6127839190613ed8565b8110155b1561285a576001600b5f8763ffffffff1663ffffffff1681526020019081526020015f206004015f6101000a81548160ff02191690831515021790555082826040516020016127d7929190613f08565b6040516020818303038152906040528051906020012060045f8763ffffffff1663ffffffff1681526020019081526020015f20819055508463ffffffff167fc815840ac035db87ae38235aaaa14f907ea2d2818de9305b7cb45a5b8dc386848484604051612846929190613f08565b60405180910390a2612859858484612868565b5b5050505050565b5f33905090565b5f6127106103e88361287a9190613e6a565b6128849190613ed8565b90505f600780549050826128989190613ed8565b90505f5b600780549050811015612bab575f600782815481106128be576128bd613dc9565b5b905f5260205f20015f9054906101000a900473ffffffffffffffffffffffffffffffffffffffff16905060085f8863ffffffff1663ffffffff1681526020019081526020015f205f8273ffffffffffffffffffffffffffffffffffffffff1673ffffffffffffffffffffffffffffffffffffffff1681526020019081526020015f205f9054906101000a900460ff1615612b9d575f600c5f8963ffffffff1663ffffffff1681526020019081526020015f205f8373ffffffffffffffffffffffffffffffffffffffff1673ffffffffffffffffffffffffffffffffffffffff1681526020019081526020015f206040518060c00160405290815f82015f9054906101000a900473ffffffffffffffffffffffffffffffffffffffff1673ffffffffffffffffffffffffffffffffffffffff1673ffffffffffffffffffffffffffffffffffffffff16815260200160018201548152602001600282015f9054906101000a900473ffffffffffffffffffffffffffffffffffffffff1673ffffffffffffffffffffffffffffffffffffffff1673ffffffffffffffffffffffffffffffffffffffff16815260200160038201548152602001600482018054612a83906134a8565b80601f0160208091040260200160405190810160405280929190818152602001828054612aaf906134a8565b8015612afa5780601f10612ad157610100808354040283529160200191612afa565b820191905f5260205f20905b815481529060010190602001808311612add57829003601f168201915b5050505050815260200160058201548152505090508673ffffffffffffffffffffffffffffffffffffffff16816040015173ffffffffffffffffffffffffffffffffffffffff16148015612b515750858160600151145b15612b9b578173ffffffffffffffffffffffffffffffffffffffff166108fc8590811502906040515f60405180830381858888f19350505050158015612b99573d5f803e3d5ffd5b505b505b50808060010191505061289c565b508463ffffffff167fc56d73bb8b4157087ba179df76c0ad8563818a3e2071d048b5aedfc37e22addb83604051612be29190612d01565b60405180910390a25050505050565b6040518060c001604052805f73ffffffffffffffffffffffffffffffffffffffff1681526020015f80191681526020015f73ffffffffffffffffffffffffffffffffffffffff1681526020015f8152602001606081526020015f81525090565b6040518060a001604052805f80191681526020015f80191681526020015f63ffffffff1681526020015f81526020015f151581525090565b5f819050919050565b7f4e487b71000000000000000000000000000000000000000000000000000000005f52601160045260245ffd5b5f612cc982612c89565b9150612cd483612c89565b9250828201905080821115612cec57612ceb612c92565b5b92915050565b612cfb81612c89565b82525050565b5f602082019050612d145f830184612cf2565b92915050565b5f80fd5b5f80fd5b5f63ffffffff82169050919050565b612d3a81612d22565b8114612d44575f80fd5b50565b5f81359050612d5581612d31565b92915050565b5f60208284031215612d7057612d6f612d1a565b5b5f612d7d84828501612d47565b91505092915050565b5f819050919050565b612d9881612d86565b82525050565b612da781612d22565b82525050565b5f8115159050919050565b612dc181612dad565b82525050565b5f60a082019050612dda5f830188612d8f565b612de76020830187612d8f565b612df46040830186612d9e565b612e016060830185612cf2565b612e0e6080830184612db8565b9695505050505050565b5f73ffffffffffffffffffffffffffffffffffffffff82169050919050565b5f612e4182612e18565b9050919050565b612e5181612e37565b8114612e5b575f80fd5b50565b5f81359050612e6c81612e48565b92915050565b5f60208284031215612e8757612e86612d1a565b5b5f612e9484828501612e5e565b91505092915050565b5f8060408385031215612eb357612eb2612d1a565b5b5f612ec085828601612d47565b9250506020612ed185828601612e5e565b9150509250929050565b612ee481612e37565b82525050565b5f81519050919050565b5f82825260208201905092915050565b8281835e5f83830152505050565b5f601f19601f8301169050919050565b5f612f2c82612eea565b612f368185612ef4565b9350612f46818560208601612f04565b612f4f81612f12565b840191505092915050565b5f60c082019050612f6d5f830189612edb565b612f7a6020830188612d8f565b612f876040830187612edb565b612f946060830186612cf2565b8181036080830152612fa68185612f22565b9050612fb560a0830184612cf2565b979650505050505050565b5f602082019050612fd35f830184612d8f565b92915050565b612fe281612e37565b82525050565b612ff181612d86565b82525050565b61300081612c89565b82525050565b5f82825260208201905092915050565b5f61302082612eea565b61302a8185613006565b935061303a818560208601612f04565b61304381612f12565b840191505092915050565b5f60c083015f8301516130635f860182612fd9565b5060208301516130766020860182612fe8565b5060408301516130896040860182612fd9565b50606083015161309c6060860182612ff7565b50608083015184820360808601526130b48282613016565b91505060a08301516130c960a0860182612ff7565b508091505092915050565b5f6020820190508181035f8301526130ec818461304e565b905092915050565b6130fd81612d22565b82525050565b61310c81612dad565b82525050565b60a082015f8201516131265f850182612fe8565b5060208201516131396020850182612fe8565b50604082015161314c60408501826130f4565b50606082015161315f6060850182612ff7565b5060808201516131726080850182613103565b50505050565b5f60a08201905061318b5f830184613112565b92915050565b5f6020820190506131a45f830184612db8565b92915050565b5f819050919050565b5f6131cd6131c86131c384612e18565b6131aa565b612e18565b9050919050565b5f6131de826131b3565b9050919050565b5f6131ef826131d4565b9050919050565b6131ff816131e5565b82525050565b5f6020820190506132185f8301846131f6565b92915050565b5f80fd5b5f80fd5b5f80fd5b5f8083601f84011261323f5761323e61321e565b5b8235905067ffffffffffffffff81111561325c5761325b613222565b5b60208301915083600182028301111561327857613277613226565b5b9250929050565b5f806020838503121561329557613294612d1a565b5b5f83013567ffffffffffffffff8111156132b2576132b1612d1e565b5b6132be8582860161322a565b92509250509250929050565b5f6020820190506132dd5f830184612d9e565b92915050565b5f6020820190506132f65f830184612edb565b92915050565b61330581612c89565b811461330f575f80fd5b50565b5f81359050613320816132fc565b92915050565b5f6020828403121561333b5761333a612d1a565b5b5f61334884828501613312565b91505092915050565b5f805f805f6080868803121561336a57613369612d1a565b5b5f61337788828901612d47565b955050602061338888828901612e5e565b945050604061339988828901613312565b935050606086013567ffffffffffffffff8111156133ba576133b9612d1e565b5b6133c68882890161322a565b92509250509295509295909350565b5f80604083850312156133eb576133ea612d1a565b5b5f6133f885828601612e5e565b925050602061340985828601613312565b9150509250929050565b61341c81612d86565b8114613426575f80fd5b50565b5f8135905061343781613413565b92915050565b5f806040838503121561345357613452612d1a565b5b5f61346085828601613429565b925050602061347185828601613429565b9150509250929050565b7f4e487b71000000000000000000000000000000000000000000000000000000005f52602260045260245ffd5b5f60028204905060018216806134bf57607f821691505b6020821081036134d2576134d161347b565b5b50919050565b5f81905092915050565b50565b5f6134f05f836134d8565b91506134fb826134e2565b5f82019050919050565b5f61350f826134e5565b9150819050919050565b5f82825260208201905092915050565b7f5472616e73666572206661696c656400000000000000000000000000000000005f82015250565b5f61355d600f83613519565b915061356882613529565b602082019050919050565b5f6020820190508181035f83015261358a81613551565b9050919050565b7f4e6f7420612072656769737465726564206f70657261746f72000000000000005f82015250565b5f6135c5601983613519565b91506135d082613591565b602082019050919050565b5f6020820190508181035f8301526135f2816135b9565b9050919050565b7f416c7265616479207265676973746572656400000000000000000000000000005f82015250565b5f61362d601283613519565b9150613638826135f9565b602082019050919050565b5f6020820190508181035f83015261365a81613621565b9050919050565b7f496e73756666696369656e74207374616b6500000000000000000000000000005f82015250565b5f613695601283613519565b91506136a082613661565b602082019050919050565b5f6020820190508181035f8301526136c281613689565b9050919050565b828183375f83830152505050565b5f6136e28385612ef4565b93506136ef8385846136c9565b6136f883612f12565b840190509392505050565b5f6040820190506137165f830186612edb565b81810360208301526137298184866136d7565b9050949350505050565b7f496e76616c6964207461736b20696e64657800000000000000000000000000005f82015250565b5f613767601283613519565b915061377282613733565b602082019050919050565b5f6020820190508181035f8301526137948161375b565b9050919050565b7f5461736b20616c726561647920636f6d706c65746564000000000000000000005f82015250565b5f6137cf601683613519565b91506137da8261379b565b602082019050919050565b5f6020820190508181035f8301526137fc816137c3565b9050919050565b7f5461736b20646561646c696e65207061737365640000000000000000000000005f82015250565b5f613837601483613519565b915061384282613803565b602082019050919050565b5f6020820190508181035f8301526138648161382b565b9050919050565b7f416c726561647920726573706f6e6465640000000000000000000000000000005f82015250565b5f61389f601183613519565b91506138aa8261386b565b602082019050919050565b5f6020820190508181035f8301526138cc81613893565b9050919050565b7f4e487b71000000000000000000000000000000000000000000000000000000005f52604160045260245ffd5b5f819050815f5260205f209050919050565b5f6020601f8301049050919050565b5f82821b905092915050565b5f6008830261395c7fffffffffffffffffffffffffffffffffffffffffffffffffffffffffffffffff82613921565b6139668683613921565b95508019841693508086168417925050509392505050565b5f61399861399361398e84612c89565b6131aa565b612c89565b9050919050565b5f819050919050565b6139b18361397e565b6139c56139bd8261399f565b84845461392d565b825550505050565b5f90565b6139d96139cd565b6139e48184846139a8565b505050565b5b81811015613a07576139fc5f826139d1565b6001810190506139ea565b5050565b601f821115613a4c57613a1d81613900565b613a2684613912565b81016020851015613a35578190505b613a49613a4185613912565b8301826139e9565b50505b505050565b5f82821c905092915050565b5f613a6c5f1984600802613a51565b1980831691505092915050565b5f613a848383613a5d565b9150826002028217905092915050565b613a9d82612eea565b67ffffffffffffffff811115613ab657613ab56138d3565b5b613ac082546134a8565b613acb828285613a0b565b5f60209050601f831160018114613afc575f8415613aea578287015190505b613af48582613a79565b865550613b5b565b601f198416613b0a86613900565b5f5b82811015613b3157848901518255600182019150602085019450602081019050613b0c565b86831015613b4e5784890151613b4a601f891682613a5d565b8355505b6001600288020188555050505b505050505050565b5f613b6d82612c89565b9150613b7883612c89565b9250828203905081811115613b9057613b8f612c92565b5b92915050565b7f496e73756666696369656e74206368616c6c656e6765207374616b65000000005f82015250565b5f613bca601c83613519565b9150613bd582613b96565b602082019050919050565b5f6020820190508181035f830152613bf781613bbe565b9050919050565b7f5461736b206e6f7420636f6d706c6574656400000000000000000000000000005f82015250565b5f613c32601283613519565b9150613c3d82613bfe565b602082019050919050565b5f6020820190508181035f830152613c5f81613c26565b9050919050565b7f416c7265616479206368616c6c656e67656400000000000000000000000000005f82015250565b5f613c9a601283613519565b9150613ca582613c66565b602082019050919050565b5f6020820190508181035f830152613cc781613c8e565b9050919050565b7f4368616c6c656e67652077696e646f77206578706972656400000000000000005f82015250565b5f613d02601883613519565b9150613d0d82613cce565b602082019050919050565b5f6020820190508181035f830152613d2f81613cf6565b9050919050565b7f496e73756666696369656e74206f70657261746f7273000000000000000000005f82015250565b5f613d6a601683613519565b9150613d7582613d36565b602082019050919050565b5f6020820190508181035f830152613d9781613d5e565b9050919050565b5f613da882612d22565b915063ffffffff8203613dbe57613dbd612c92565b5b600182019050919050565b7f4e487b71000000000000000000000000000000000000000000000000000000005f52603260045260245ffd5b7f4e487b71000000000000000000000000000000000000000000000000000000005f52603160045260245ffd5b5f613e2d82612c89565b91507fffffffffffffffffffffffffffffffffffffffffffffffffffffffffffffffff8203613e5f57613e5e612c92565b5b600182019050919050565b5f613e7482612c89565b9150613e7f83612c89565b9250828202613e8d81612c89565b91508282048414831517613ea457613ea3612c92565b5b5092915050565b7f4e487b71000000000000000000000000000000000000000000000000000000005f52601260045260245ffd5b5f613ee282612c89565b9150613eed83612c89565b925082613efd57613efc613eab565b5b828204905092915050565b5f604082019050613f1b5f830185612edb565b613f286020830184612cf2565b939250505056fea2646970667358221220aa4560cb4d07d4b047d4bdb6478b43736368b7f9d861de986332e8d372e2fde164736f6c634300081a0033","linkReferences":{}},"methodIdentifiers":{"CHALLENGE_WINDOW()":"d62aad29","MINIMUM_QUORUM_SIZE()":"f82d4550","MINIMUM_STAKE()":"08dbbb03","TASK_RESPONSE_WINDOW()":"783a7a2d","addStake()":"5a627dbc","allTaskHashes(uint32)":"2d89f6fc","allTaskResponses(uint32)":"2cb223d5","auctionTasks(uint32)":"09f50cba","avsDirectory()":"6b3aa72e","challengeTask(uint32)":"d90c0ce3","createAuctionTask(bytes32,bytes32)":"eba79c85","deregisterOperator()":"857dc190","fundRewardPool()":"20828339","getOperatorCount()":"1a4a7c61","getTask(uint32)":"57342d74","getTaskResponse(uint32,address)":"44cb8087","hasQuorum()":"815b4d1b","latestTaskNum()":"8b00ce7c","operatorRegistered(address)":"ec7fbb31","operatorResponded(uint32,address)":"9fa38d01","operatorStakes(address)":"1c9856ae","owner()":"8da5cb5b","registerOperator(bytes)":"8231b54c","registeredOperators(uint256)":"a551c1b8","renounceOwnership()":"715018a6","respondToTask(uint32,address,uint256,bytes)":"c2dc0add","rewardPool()":"66666aa9","slashOperator(address,uint256)":"c6a5554a","taskChallenged(uint32)":"645aa426","taskResponses(uint32,address)":"2c29e7ae","transferOwnership(address)":"f2fde38b","withdraw()":"3ccfd60b"},"id":67}