{"abi":[{"type":"constructor","inputs":[{"name":"_poolManager","type":"address","internalType":"contract IPoolManager"},{"name":"_avsDirectory","type":"address","internalType":"contract IAVSDirectory"},{"name":"_priceOracle","type":"address","internalType":"contract IPriceOracle"},{"name":"_feeRecipient","type":"address","internalType":"address"},{"name":"_lvrThreshold","type":"uint256","internalType":"uint256"}],"stateMutability":"nonpayable"},{"type":"receive","stateMutability":"payable"},{"type":"function","name":"AVS_REWARD_PERCENTAGE","inputs":[],"outputs":[{"name":"","type":"uint256","internalType":"uint256"}],"stateMutability":"view"},{"type":"function","name":"BASIS_POINTS","inputs":[],"outputs":[{"name":"","type":"uint256","internalType":"uint256"}],"stateMutability":"view"},{"type":"function","name":"GAS_COMPENSATION_PERCENTAGE","inputs":[],"outputs":[{"name":"","type":"uint256","internalType":"uint256"}],"stateMutability":"view"},{"type":"function","name":"LP_REWARD_PERCENTAGE","inputs":[],"outputs":[{"name":"","type":"uint256","internalType":"uint256"}],"stateMutability":"view"},{"type":"function","name":"MAX_AUCTION_DURATION","inputs":[],"outputs":[{"name":"","type":"uint256","internalType":"uint256"}],"stateMutability":"view"},{"type":"function","name":"MIN_BID","inputs":[],"outputs":[{"name":"","type":"uint256","internalType":"uint256"}],"stateMutability":"view"},{"type":"function","name":"PROTOCOL_FEE_PERCENTAGE","inputs":[],"outputs":[{"name":"","type":"uint256","internalType":"uint256"}],"stateMutability":"view"},{"type":"function","name":"activeAuctions","inputs":[{"name":"","type":"bytes32","internalType":"PoolId"}],"outputs":[{"name":"","type":"bytes32","internalType":"bytes32"}],"stateMutability":"view"},{"type":"function","name":"afterAddLiquidity","inputs":[{"name":"sender","type":"address","internalType":"address"},{"name":"key","type":"tuple","internalType":"struct PoolKey","components":[{"name":"currency0","type":"address","internalType":"Currency"},{"name":"currency1","type":"address","internalType":"Currency"},{"name":"fee","type":"uint24","internalType":"uint24"},{"name":"tickSpacing","type":"int24","internalType":"int24"},{"name":"hooks","type":"address","internalType":"contract IHooks"}]},{"name":"params","type":"tuple","internalType":"struct ModifyLiquidityParams","components":[{"name":"tickLower","type":"int24","internalType":"int24"},{"name":"tickUpper","type":"int24","internalType":"int24"},{"name":"liquidityDelta","type":"int256","internalType":"int256"},{"name":"salt","type":"bytes32","internalType":"bytes32"}]},{"name":"delta","type":"int256","internalType":"BalanceDelta"},{"name":"feesAccrued","type":"int256","internalType":"BalanceDelta"},{"name":"hookData","type":"bytes","internalType":"bytes"}],"outputs":[{"name":"","type":"bytes4","internalType":"bytes4"},{"name":"","type":"int256","internalType":"BalanceDelta"}],"stateMutability":"nonpayable"},{"type":"function","name":"afterDonate","inputs":[{"name":"sender","type":"address","internalType":"address"},{"name":"key","type":"tuple","internalType":"struct PoolKey","components":[{"name":"currency0","type":"address","internalType":"Currency"},{"name":"currency1","type":"address","internalType":"Currency"},{"name":"fee","type":"uint24","internalType":"uint24"},{"name":"tickSpacing","type":"int24","internalType":"int24"},{"name":"hooks","type":"address","internalType":"contract IHooks"}]},{"name":"amount0","type":"uint256","internalType":"uint256"},{"name":"amount1","type":"uint256","internalType":"uint256"},{"name":"hookData","type":"bytes","internalType":"bytes"}],"outputs":[{"name":"","type":"bytes4","internalType":"bytes4"}],"stateMutability":"nonpayable"},{"type":"function","name":"afterInitialize","inputs":[{"name":"sender","type":"address","internalType":"address"},{"name":"key","type":"tuple","internalType":"struct PoolKey","components":[{"name":"currency0","type":"address","internalType":"Currency"},{"name":"currency1","type":"address","internalType":"Currency"},{"name":"fee","type":"uint24","internalType":"uint24"},{"name":"tickSpacing","type":"int24","internalType":"int24"},{"name":"hooks","type":"address","internalType":"contract IHooks"}]},{"name":"sqrtPriceX96","type":"uint160","internalType":"uint160"},{"name":"tick","type":"int24","internalType":"int24"}],"outputs":[{"name":"","type":"bytes4","internalType":"bytes4"}],"stateMutability":"nonpayable"},{"type":"function","name":"afterRemoveLiquidity","inputs":[{"name":"sender","type":"address","internalType":"address"},{"name":"key","type":"tuple","internalType":"struct PoolKey","components":[{"name":"currency0","type":"address","internalType":"Currency"},{"name":"currency1","type":"address","internalType":"Currency"},{"name":"fee","type":"uint24","internalType":"uint24"},{"name":"tickSpacing","type":"int24","internalType":"int24"},{"name":"hooks","type":"address","internalType":"contract IHooks"}]},{"name":"params","type":"tuple","internalType":"struct ModifyLiquidityParams","components":[{"name":"tickLower","type":"int24","internalType":"int24"},{"name":"tickUpper","type":"int24","internalType":"int24"},{"name":"liquidityDelta","type":"int256","internalType":"int256"},{"name":"salt","type":"bytes32","internalType":"bytes32"}]},{"name":"delta","type":"int256","internalType":"BalanceDelta"},{"name":"feesAccrued","type":"int256","internalType":"BalanceDelta"},{"name":"hookData","type":"bytes","internalType":"bytes"}],"outputs":[{"name":"","type":"bytes4","internalType":"bytes4"},{"name":"","type":"int256","internalType":"BalanceDelta"}],"stateMutability":"nonpayable"},{"type":"function","name":"afterSwap","inputs":[{"name":"sender","type":"address","internalType":"address"},{"name":"key","type":"tuple","internalType":"struct PoolKey","components":[{"name":"currency0","type":"address","internalType":"Currency"},{"name":"currency1","type":"address","internalType":"Currency"},{"name":"fee","type":"uint24","internalType":"uint24"},{"name":"tickSpacing","type":"int24","internalType":"int24"},{"name":"hooks","type":"address","internalType":"contract IHooks"}]},{"name":"params","type":"tuple","internalType":"struct SwapParams","components":[{"name":"zeroForOne","type":"bool","internalType":"bool"},{"name":"amountSpecified","type":"int256","internalType":"int256"},{"name":"sqrtPriceLimitX96","type":"uint160","internalType":"uint160"}]},{"name":"delta","type":"int256","internalType":"BalanceDelta"},{"name":"hookData","type":"bytes","internalType":"bytes"}],"outputs":[{"name":"","type":"bytes4","internalType":"bytes4"},{"name":"","type":"int128","internalType":"int128"}],"stateMutability":"nonpayable"},{"type":"function","name":"auctions","inputs":[{"name":"","type":"bytes32","internalType":"bytes32"}],"outputs":[{"name":"poolId","type":"bytes32","internalType":"PoolId"},{"name":"startTime","type":"uint256","internalType":"uint256"},{"name":"duration","type":"uint256","internalType":"uint256"},{"name":"isActive","type":"bool","internalType":"bool"},{"name":"isComplete","type":"bool","internalType":"bool"},{"name":"winner","type":"address","internalType":"address"},{"name":"winningBid","type":"uint256","internalType":"uint256"},{"name":"totalBids","type":"uint256","internalType":"uint256"}],"stateMutability":"view"},{"type":"function","name":"authorizedOperators","inputs":[{"name":"","type":"address","internalType":"address"}],"outputs":[{"name":"","type":"bool","internalType":"bool"}],"stateMutability":"view"},{"type":"function","name":"avsDirectory","inputs":[],"outputs":[{"name":"","type":"address","internalType":"contract IAVSDirectory"}],"stateMutability":"view"},{"type":"function","name":"beforeAddLiquidity","inputs":[{"name":"sender","type":"address","internalType":"address"},{"name":"key","type":"tuple","internalType":"struct PoolKey","components":[{"name":"currency0","type":"address","internalType":"Currency"},{"name":"currency1","type":"address","internalType":"Currency"},{"name":"fee","type":"uint24","internalType":"uint24"},{"name":"tickSpacing","type":"int24","internalType":"int24"},{"name":"hooks","type":"address","internalType":"contract IHooks"}]},{"name":"params","type":"tuple","internalType":"struct ModifyLiquidityParams","components":[{"name":"tickLower","type":"int24","internalType":"int24"},{"name":"tickUpper","type":"int24","internalType":"int24"},{"name":"liquidityDelta","type":"int256","internalType":"int256"},{"name":"salt","type":"bytes32","internalType":"bytes32"}]},{"name":"hookData","type":"bytes","internalType":"bytes"}],"outputs":[{"name":"","type":"bytes4","internalType":"bytes4"}],"stateMutability":"nonpayable"},{"type":"function","name":"beforeDonate","inputs":[{"name":"sender","type":"address","internalType":"address"},{"name":"key","type":"tuple","internalType":"struct PoolKey","components":[{"name":"currency0","type":"address","internalType":"Currency"},{"name":"currency1","type":"address","internalType":"Currency"},{"name":"fee","type":"uint24","internalType":"uint24"},{"name":"tickSpacing","type":"int24","internalType":"int24"},{"name":"hooks","type":"address","internalType":"contract IHooks"}]},{"name":"amount0","type":"uint256","internalType":"uint256"},{"name":"amount1","type":"uint256","internalType":"uint256"},{"name":"hookData","type":"bytes","internalType":"bytes"}],"outputs":[{"name":"","type":"bytes4","internalType":"bytes4"}],"stateMutability":"nonpayable"},{"type":"function","name":"beforeInitialize","inputs":[{"name":"sender","type":"address","internalType":"address"},{"name":"key","type":"tuple","internalType":"struct PoolKey","components":[{"name":"currency0","type":"address","internalType":"Currency"},{"name":"currency1","type":"address","internalType":"Currency"},{"name":"fee","type":"uint24","internalType":"uint24"},{"name":"tickSpacing","type":"int24","internalType":"int24"},{"name":"hooks","type":"address","internalType":"contract IHooks"}]},{"name":"sqrtPriceX96","type":"uint160","internalType":"uint160"}],"outputs":[{"name":"","type":"bytes4","internalType":"bytes4"}],"stateMutability":"nonpayable"},{"type":"function","name":"beforeRemoveLiquidity","inputs":[{"name":"sender","type":"address","internalType":"address"},{"name":"key","type":"tuple","internalType":"struct PoolKey","components":[{"name":"currency0","type":"address","internalType":"Currency"},{"name":"currency1","type":"address","internalType":"Currency"},{"name":"fee","type":"uint24","internalType":"uint24"},{"name":"tickSpacing","type":"int24","internalType":"int24"},{"name":"hooks","type":"address","internalType":"contract IHooks"}]},{"name":"params","type":"tuple","internalType":"struct ModifyLiquidityParams","components":[{"name":"tickLower","type":"int24","internalType":"int24"},{"name":"tickUpper","type":"int24","internalType":"int24"},{"name":"liquidityDelta","type":"int256","internalType":"int256"},{"name":"salt","type":"bytes32","internalType":"bytes32"}]},{"name":"hookData","type":"bytes","internalType":"bytes"}],"outputs":[{"name":"","type":"bytes4","internalType":"bytes4"}],"stateMutability":"nonpayable"},{"type":"function","name":"beforeSwap","inputs":[{"name":"sender","type":"address","internalType":"address"},{"name":"key","type":"tuple","internalType":"struct PoolKey","components":[{"name":"currency0","type":"address","internalType":"Currency"},{"name":"currency1","type":"address","internalType":"Currency"},{"name":"fee","type":"uint24","internalType":"uint24"},{"name":"tickSpacing","type":"int24","internalType":"int24"},{"name":"hooks","type":"address","internalType":"contract IHooks"}]},{"name":"params","type":"tuple","internalType":"struct SwapParams","components":[{"name":"zeroForOne","type":"bool","internalType":"bool"},{"name":"amountSpecified","type":"int256","internalType":"int256"},{"name":"sqrtPriceLimitX96","type":"uint160","internalType":"uint160"}]},{"name":"hookData","type":"bytes","internalType":"bytes"}],"outputs":[{"name":"","type":"bytes4","internalType":"bytes4"},{"name":"","type":"int256","internalType":"BeforeSwapDelta"},{"name":"","type":"uint24","internalType":"uint24"}],"stateMutability":"nonpayable"},{"type":"function","name":"claimRewards","inputs":[{"name":"poolId","type":"bytes32","internalType":"PoolId"}],"outputs":[],"stateMutability":"nonpayable"},{"type":"function","name":"feeRecipient","inputs":[],"outputs":[{"name":"","type":"address","internalType":"address"}],"stateMutability":"view"},{"type":"function","name":"getHookPermissions","inputs":[],"outputs":[{"name":"","type":"tuple","internalType":"struct Hooks.Permissions","components":[{"name":"beforeInitialize","type":"bool","internalType":"bool"},{"name":"afterInitialize","type":"bool","internalType":"bool"},{"name":"beforeAddLiquidity","type":"bool","internalType":"bool"},{"name":"afterAddLiquidity","type":"bool","internalType":"bool"},{"name":"beforeRemoveLiquidity","type":"bool","internalType":"bool"},{"name":"afterRemoveLiquidity","type":"bool","internalType":"bool"},{"name":"beforeSwap","type":"bool","internalType":"bool"},{"name":"afterSwap","type":"bool","internalType":"bool"},{"name":"beforeDonate","type":"bool","internalType":"bool"},{"name":"afterDonate","type":"bool","internalType":"bool"},{"name":"beforeSwapReturnDelta","type":"bool","internalType":"bool"},{"name":"afterSwapReturnDelta","type":"bool","internalType":"bool"},{"name":"afterAddLiquidityReturnDelta","type":"bool","internalType":"bool"},{"name":"afterRemoveLiquidityReturnDelta","type":"bool","internalType":"bool"}]}],"stateMutability":"pure"},{"type":"function","name":"lpLiquidity","inputs":[{"name":"","type":"bytes32","internalType":"PoolId"},{"name":"","type":"address","internalType":"address"}],"outputs":[{"name":"","type":"uint256","internalType":"uint256"}],"stateMutability":"view"},{"type":"function","name":"lpRewards","inputs":[{"name":"","type":"bytes32","internalType":"PoolId"},{"name":"","type":"address","internalType":"address"}],"outputs":[{"name":"","type":"uint256","internalType":"uint256"}],"stateMutability":"view"},{"type":"function","name":"lvrThreshold","inputs":[],"outputs":[{"name":"","type":"uint256","internalType":"uint256"}],"stateMutability":"view"},{"type":"function","name":"mockPoolPrices","inputs":[{"name":"","type":"bytes32","internalType":"bytes32"}],"outputs":[{"name":"","type":"uint256","internalType":"uint256"}],"stateMutability":"view"},{"type":"function","name":"owner","inputs":[],"outputs":[{"name":"","type":"address","internalType":"address"}],"stateMutability":"view"},{"type":"function","name":"pause","inputs":[],"outputs":[],"stateMutability":"nonpayable"},{"type":"function","name":"paused","inputs":[],"outputs":[{"name":"","type":"bool","internalType":"bool"}],"stateMutability":"view"},{"type":"function","name":"poolManager","inputs":[],"outputs":[{"name":"","type":"address","internalType":"contract IPoolManager"}],"stateMutability":"view"},{"type":"function","name":"poolRewards","inputs":[{"name":"","type":"bytes32","internalType":"PoolId"}],"outputs":[{"name":"","type":"uint256","internalType":"uint256"}],"stateMutability":"view"},{"type":"function","name":"priceOracle","inputs":[],"outputs":[{"name":"","type":"address","internalType":"contract IPriceOracle"}],"stateMutability":"view"},{"type":"function","name":"renounceOwnership","inputs":[],"outputs":[],"stateMutability":"nonpayable"},{"type":"function","name":"setFeeRecipient","inputs":[{"name":"newFeeRecipient","type":"address","internalType":"address"}],"outputs":[],"stateMutability":"nonpayable"},{"type":"function","name":"setLVRThreshold","inputs":[{"name":"newThreshold","type":"uint256","internalType":"uint256"}],"outputs":[],"stateMutability":"nonpayable"},{"type":"function","name":"setMockPoolPrice","inputs":[{"name":"key","type":"tuple","internalType":"struct PoolKey","components":[{"name":"currency0","type":"address","internalType":"Currency"},{"name":"currency1","type":"address","internalType":"Currency"},{"name":"fee","type":"uint24","internalType":"uint24"},{"name":"tickSpacing","type":"int24","internalType":"int24"},{"name":"hooks","type":"address","internalType":"contract IHooks"}]},{"name":"price","type":"uint256","internalType":"uint256"}],"outputs":[],"stateMutability":"nonpayable"},{"type":"function","name":"setOperatorAuthorization","inputs":[{"name":"operator","type":"address","internalType":"address"},{"name":"authorized","type":"bool","internalType":"bool"}],"outputs":[],"stateMutability":"nonpayable"},{"type":"function","name":"submitAuctionResult","inputs":[{"name":"auctionId","type":"bytes32","internalType":"bytes32"},{"name":"winner","type":"address","internalType":"address"},{"name":"winningBid","type":"uint256","internalType":"uint256"}],"outputs":[],"stateMutability":"nonpayable"},{"type":"function","name":"testAfterSwap","inputs":[{"name":"sender","type":"address","internalType":"address"},{"name":"key","type":"tuple","internalType":"struct PoolKey","components":[{"name":"currency0","type":"address","internalType":"Currency"},{"name":"currency1","type":"address","internalType":"Currency"},{"name":"fee","type":"uint24","internalType":"uint24"},{"name":"tickSpacing","type":"int24","internalType":"int24"},{"name":"hooks","type":"address","internalType":"contract IHooks"}]},{"name":"params","type":"tuple","internalType":"struct SwapParams","components":[{"name":"zeroForOne","type":"bool","internalType":"bool"},{"name":"amountSpecified","type":"int256","internalType":"int256"},{"name":"sqrtPriceLimitX96","type":"uint160","internalType":"uint160"}]},{"name":"delta","type":"int256","internalType":"BalanceDelta"},{"name":"hookData","type":"bytes","internalType":"bytes"}],"outputs":[{"name":"","type":"bytes4","internalType":"bytes4"},{"name":"","type":"int128","internalType":"int128"}],"stateMutability":"nonpayable"},{"type":"function","name":"testBeforeAddLiquidity","inputs":[{"name":"sender","type":"address","internalType":"address"},{"name":"key","type":"tuple","internalType":"struct PoolKey","components":[{"name":"currency0","type":"address","internalType":"Currency"},{"name":"currency1","type":"address","internalType":"Currency"},{"name":"fee","type":"uint24","internalType":"uint24"},{"name":"tickSpacing","type":"int24","internalType":"int24"},{"name":"hooks","type":"address","internalType":"contract IHooks"}]},{"name":"params","type":"tuple","internalType":"struct ModifyLiquidityParams","components":[{"name":"tickLower","type":"int24","internalType":"int24"},{"name":"tickUpper","type":"int24","internalType":"int24"},{"name":"liquidityDelta","type":"int256","internalType":"int256"},{"name":"salt","type":"bytes32","internalType":"bytes32"}]},{"name":"hookData","type":"bytes","internalType":"bytes"}],"outputs":[{"name":"","type":"bytes4","internalType":"bytes4"}],"stateMutability":"nonpayable"},{"type":"function","name":"testBeforeRemoveLiquidity","inputs":[{"name":"sender","type":"address","internalType":"address"},{"name":"key","type":"tuple","internalType":"struct PoolKey","components":[{"name":"currency0","type":"address","internalType":"Currency"},{"name":"currency1","type":"address","internalType":"Currency"},{"name":"fee","type":"uint24","internalType":"uint24"},{"name":"tickSpacing","type":"int24","internalType":"int24"},{"name":"hooks","type":"address","internalType":"contract IHooks"}]},{"name":"params","type":"tuple","internalType":"struct ModifyLiquidityParams","components":[{"name":"tickLower","type":"int24","internalType":"int24"},{"name":"tickUpper","type":"int24","internalType":"int24"},{"name":"liquidityDelta","type":"int256","internalType":"int256"},{"name":"salt","type":"bytes32","internalType":"bytes32"}]},{"name":"hookData","type":"bytes","internalType":"bytes"}],"outputs":[{"name":"","type":"bytes4","internalType":"bytes4"}],"stateMutability":"nonpayable"},{"type":"function","name":"testBeforeSwap","inputs":[{"name":"sender","type":"address","internalType":"address"},{"name":"key","type":"tuple","internalType":"struct PoolKey","components":[{"name":"currency0","type":"address","internalType":"Currency"},{"name":"currency1","type":"address","internalType":"Currency"},{"name":"fee","type":"uint24","internalType":"uint24"},{"name":"tickSpacing","type":"int24","internalType":"int24"},{"name":"hooks","type":"address","internalType":"contract IHooks"}]},{"name":"params","type":"tuple","internalType":"struct SwapParams","components":[{"name":"zeroForOne","type":"bool","internalType":"bool"},{"name":"amountSpecified","type":"int256","internalType":"int256"},{"name":"sqrtPriceLimitX96","type":"uint160","internalType":"uint160"}]},{"name":"hookData","type":"bytes","internalType":"bytes"}],"outputs":[{"name":"","type":"bytes4","internalType":"bytes4"},{"name":"","type":"int256","internalType":"BeforeSwapDelta"},{"name":"","type":"uint24","internalType":"uint24"}],"stateMutability":"nonpayable"},{"type":"function","name":"testClaimRewards","inputs":[{"name":"poolId","type":"bytes32","internalType":"PoolId"}],"outputs":[],"stateMutability":"nonpayable"},{"type":"function","name":"testCreateAuction","inputs":[{"name":"poolId","type":"bytes32","internalType":"PoolId"},{"name":"auctionId","type":"bytes32","internalType":"bytes32"},{"name":"startTime","type":"uint256","internalType":"uint256"},{"name":"duration","type":"uint256","internalType":"uint256"},{"name":"isActive","type":"bool","internalType":"bool"},{"name":"isComplete","type":"bool","internalType":"bool"}],"outputs":[],"stateMutability":"nonpayable"},{"type":"function","name":"testSetActiveAuction","inputs":[{"name":"poolId","type":"bytes32","internalType":"PoolId"},{"name":"auctionId","type":"bytes32","internalType":"bytes32"}],"outputs":[],"stateMutability":"nonpayable"},{"type":"function","name":"testSetLpLiquidity","inputs":[{"name":"poolId","type":"bytes32","internalType":"PoolId"},{"name":"lp","type":"address","internalType":"address"},{"name":"amount","type":"uint256","internalType":"uint256"}],"outputs":[],"stateMutability":"nonpayable"},{"type":"function","name":"testSetPoolRewards","inputs":[{"name":"poolId","type":"bytes32","internalType":"PoolId"},{"name":"amount","type":"uint256","internalType":"uint256"}],"outputs":[],"stateMutability":"nonpayable"},{"type":"function","name":"testSetTotalLiquidity","inputs":[{"name":"poolId","type":"bytes32","internalType":"PoolId"},{"name":"amount","type":"uint256","internalType":"uint256"}],"outputs":[],"stateMutability":"nonpayable"},{"type":"function","name":"testSubmitAuctionResult","inputs":[{"name":"auctionId","type":"bytes32","internalType":"bytes32"},{"name":"winner","type":"address","internalType":"address"},{"name":"winningBid","type":"uint256","internalType":"uint256"}],"outputs":[],"stateMutability":"nonpayable"},{"type":"function","name":"totalLiquidity","inputs":[{"name":"","type":"bytes32","internalType":"PoolId"}],"outputs":[{"name":"","type":"uint256","internalType":"uint256"}],"stateMutability":"view"},{"type":"function","name":"transferOwnership","inputs":[{"name":"newOwner","type":"address","internalType":"address"}],"outputs":[],"stateMutability":"nonpayable"},{"type":"function","name":"unpause","inputs":[],"outputs":[],"stateMutability":"nonpayable"},{"type":"event","name":"AuctionEnded","inputs":[{"name":"auctionId","type":"bytes32","indexed":true,"internalType":"bytes32"},{"name":"poolId","type":"bytes32","indexed":true,"internalType":"PoolId"},{"name":"winner","type":"address","indexed":true,"internalType":"address"},{"name":"winningBid","type":"uint256","indexed":false,"internalType":"uint256"}],"anonymous":false},{"type":"event","name":"AuctionStarted","inputs":[{"name":"auctionId","type":"bytes32","indexed":true,"internalType":"bytes32"},{"name":"poolId","type":"bytes32","indexed":true,"internalType":"PoolId"},{"name":"startTime","type":"uint256","indexed":false,"internalType":"uint256"},{"name":"duration","type":"uint256","indexed":false,"internalType":"uint256"}],"anonymous":false},{"type":"event","name":"LVRThresholdUpdated","inputs":[{"name":"oldThreshold","type":"uint256","indexed":false,"internalType":"uint256"},{"name":"newThreshold","type":"uint256","indexed":false,"internalType":"uint256"}],"anonymous":false},{"type":"event","name":"MEVDistributed","inputs":[{"name":"poolId","type":"bytes32","indexed":true,"internalType":"PoolId"},{"name":"totalAmount","type":"uint256","indexed":false,"internalType":"uint256"},{"name":"lpAmount","type":"uint256","indexed":false,"internalType":"uint256"},{"name":"avsAmount","type":"uint256","indexed":false,"internalType":"uint256"},{"name":"protocolAmount","type":"uint256","indexed":false,"internalType":"uint256"}],"anonymous":false},{"type":"event","name":"OperatorAuthorized","inputs":[{"name":"operator","type":"address","indexed":true,"internalType":"address"},{"name":"authorized","type":"bool","indexed":false,"internalType":"bool"}],"anonymous":false},{"type":"event","name":"OwnershipTransferred","inputs":[{"name":"previousOwner","type":"address","indexed":true,"internalType":"address"},{"name":"newOwner","type":"address","indexed":true,"internalType":"address"}],"anonymous":false},{"type":"event","name":"Paused","inputs":[{"name":"account","type":"address","indexed":false,"internalType":"address"}],"anonymous":false},{"type":"event","name":"RewardsClaimed","inputs":[{"name":"poolId","type":"bytes32","indexed":true,"internalType":"PoolId"},{"name":"lp","type":"address","indexed":true,"internalType":"address"},{"name":"amount","type":"uint256","indexed":false,"internalType":"uint256"}],"anonymous":false},{"type":"event","name":"Unpaused","inputs":[{"name":"account","type":"address","indexed":false,"internalType":"address"}],"anonymous":false},{"type":"error","name":"EnforcedPause","inputs":[]},{"type":"error","name":"ExpectedPause","inputs":[]},{"type":"error","name":"HookNotImplemented","inputs":[]},{"type":"error","name":"NotPoolManager","inputs":[]},{"type":"error","name":"OwnableInvalidOwner","inputs":[{"name":"owner","type":"address","internalType":"address"}]},{"type":"error","name":"OwnableUnauthorizedAccount","inputs":[{"name":"account","type":"address","internalType":"address"}]},{"type":"error","name":"ReentrancyGuardReentrantCall","inputs":[]}],"bytecode":{"object":"0x60e060405234801561000f575f80fd5b50604051614f43380380614f43833981810160405281019061003191906103e5565b84848484843385808073ffffffffffffffffffffffffffffffffffffffff1660808173ffffffffffffffffffffffffffffffffffffffff16815250505061007d306101dd60201b60201c565b5060015f819055505f73ffffffffffffffffffffffffffffffffffffffff168173ffffffffffffffffffffffffffffffffffffffff16036100f5575f6040517f1e4fbdf70000000000000000000000000000000000000000000000000000000081526004016100ec919061046b565b60405180910390fd5b610104816101e060201b60201c565b505f600160146101000a81548160ff0219169083151502179055508373ffffffffffffffffffffffffffffffffffffffff1660a08173ffffffffffffffffffffffffffffffffffffffff16815250508273ffffffffffffffffffffffffffffffffffffffff1660c08173ffffffffffffffffffffffffffffffffffffffff16815250508160095f6101000a81548173ffffffffffffffffffffffffffffffffffffffff021916908373ffffffffffffffffffffffffffffffffffffffff16021790555080600a8190555050505050505050505050610484565b50565b5f60015f9054906101000a900473ffffffffffffffffffffffffffffffffffffffff1690508160015f6101000a81548173ffffffffffffffffffffffffffffffffffffffff021916908373ffffffffffffffffffffffffffffffffffffffff1602179055508173ffffffffffffffffffffffffffffffffffffffff168173ffffffffffffffffffffffffffffffffffffffff167f8be0079c531659141344cd1fd0a4f28419497f9722a3daafe3b4186f6b6457e060405160405180910390a35050565b5f80fd5b5f73ffffffffffffffffffffffffffffffffffffffff82169050919050565b5f6102d0826102a7565b9050919050565b5f6102e1826102c6565b9050919050565b6102f1816102d7565b81146102fb575f80fd5b50565b5f8151905061030c816102e8565b92915050565b5f61031c826102c6565b9050919050565b61032c81610312565b8114610336575f80fd5b50565b5f8151905061034781610323565b92915050565b5f610357826102c6565b9050919050565b6103678161034d565b8114610371575f80fd5b50565b5f815190506103828161035e565b92915050565b610391816102c6565b811461039b575f80fd5b50565b5f815190506103ac81610388565b92915050565b5f819050919050565b6103c4816103b2565b81146103ce575f80fd5b50565b5f815190506103df816103bb565b92915050565b5f805f805f60a086880312156103fe576103fd6102a3565b5b5f61040b888289016102fe565b955050602061041c88828901610339565b945050604061042d88828901610374565b935050606061043e8882890161039e565b925050608061044f888289016103d1565b9150509295509295909350565b610465816102c6565b82525050565b5f60208201905061047e5f83018461045c565b92915050565b60805160a05160c051614a416105025f395f818161120001528181612a9d015261309701525f61139f01525f8181611047015281816110e5015281816112e6015281816113c50152818161148901528181611acb01528181611c2b01528181611cce015281816120fb0152818161212001526121da0152614a415ff3fe608060405260043610610338575f3560e01c8063835c1a52116101aa578063c4e833ce116100f6578063dcd728b511610094578063e4d7d6dc1161006e578063e4d7d6dc14610cac578063e74b981b14610cd6578063f2fde38b14610cfe578063f6afbb6314610d265761033f565b8063dcd728b514610c0a578063e1b4af6914610c46578063e1f1c4a714610c825761033f565b8063d40ea4d9116100d0578063d40ea4d914610b40578063d5eab68d14610b68578063dc4c90d314610ba4578063dc98354e14610bce5761033f565b8063c4e833ce14610aae578063c8dc556814610ad8578063ce69cd2014610b165761033f565b8063a99e408711610163578063b47b2fb11161013d578063b47b2fb1146109d1578063b6a8b0fa14610a0e578063ba65162014610a4a578063c0e8d38414610a725761033f565b8063a99e408714610955578063af4cbe801461097d578063b26565c5146109a75761033f565b8063835c1a521461084c57806383b83aca146108745780638456cb59146108b0578063872edadc146108c65780638da5cb5b146108ee5780639f063efc146109185761033f565b806346904840116102845780636c2bbe7e11610222578063715018a6116101fc578063715018a6146107be578063726b0114146107d45780637790ddc6146107fc5780637f98978c146108245761033f565b80636c2bbe7e146107085780636fac2187146107455780636fe7e6eb146107825761033f565b806354b7a8f71161025e57806354b7a8f71461063a578063575e24b4146106765780635c975abb146106b45780636b3aa72e146106de5761033f565b806346904840146105ac5780634b2328e8146105d65780635498304c146105fe5761033f565b80632619b98a116102f15780633f4ba83a116102cb5780633f4ba83a146105085780633fb351781461051e578063446124561461054857806344a32bff146105845761033f565b80632619b98a1461048c5780632630c12f146104b45780632ae8c718146104de5761033f565b8063181d989b146103435780631a8a61f31461037f5780631e52301c146103a95780631edbc5be146103d157806321d0ee7014610414578063259982e5146104505761033f565b3661033f57005b5f80fd5b34801561034e575f80fd5b50610369600480360381019061036491906134d6565b610d62565b604051610376919061351b565b60405180910390f35b34801561038a575f80fd5b50610393610d7f565b6040516103a0919061354c565b60405180910390f35b3480156103b4575f80fd5b506103cf60048036038101906103ca91906135c2565b610d85565b005b3480156103dc575f80fd5b506103f760048036038101906103f29190613612565b610fc7565b60405161040b98979695949392919061366c565b60405180910390f35b34801561041f575f80fd5b5061043a60048036038101906104359190613789565b611044565b6040516104479190613849565b60405180910390f35b34801561045b575f80fd5b5061047660048036038101906104719190613789565b6110e2565b6040516104839190613849565b60405180910390f35b348015610497575f80fd5b506104b260048036038101906104ad9190613862565b611180565b005b3480156104bf575f80fd5b506104c86111fe565b6040516104d591906138fb565b60405180910390f35b3480156104e9575f80fd5b506104f2611222565b6040516104ff919061354c565b60405180910390f35b348015610513575f80fd5b5061051c611227565b005b348015610529575f80fd5b50610532611239565b60405161053f919061354c565b60405180910390f35b348015610553575f80fd5b5061056e6004803603810190610569919061393e565b61123e565b60405161057b919061354c565b60405180910390f35b34801561058f575f80fd5b506105aa60048036038101906105a5919061397c565b61125e565b005b3480156105b7575f80fd5b506105c0611278565b6040516105cd91906139ba565b60405180910390f35b3480156105e1575f80fd5b506105fc60048036038101906105f791906139d3565b61129d565b005b348015610609575f80fd5b50610624600480360381019061061f9190613a11565b6112b7565b6040516106319190613a4b565b60405180910390f35b348015610645575f80fd5b50610660600480360381019061065b9190613a11565b6112cc565b60405161066d919061354c565b60405180910390f35b348015610681575f80fd5b5061069c60048036038101906106979190613a82565b6112e1565b6040516106ab93929190613b5e565b60405180910390f35b3480156106bf575f80fd5b506106c8611387565b6040516106d5919061351b565b60405180910390f35b3480156106e9575f80fd5b506106f261139d565b6040516106ff9190613bb3565b60405180910390f35b348015610713575f80fd5b5061072e60048036038101906107299190613bf6565b6113c1565b60405161073c929190613cb3565b60405180910390f35b348015610750575f80fd5b5061076b60048036038101906107669190613cda565b611467565b604051610779929190613d8e565b60405180910390f35b34801561078d575f80fd5b506107a860048036038101906107a39190613e15565b611486565b6040516107b59190613849565b60405180910390f35b3480156107c9575f80fd5b506107d2611522565b005b3480156107df575f80fd5b506107fa60048036038101906107f59190613e7a565b611535565b005b348015610807575f80fd5b50610822600480360381019061081d9190613a11565b61158b565b005b34801561082f575f80fd5b5061084a600480360381019061084591906135c2565b61179d565b005b348015610857575f80fd5b50610872600480360381019061086d919061397c565b611934565b005b34801561087f575f80fd5b5061089a60048036038101906108959190613789565b61194e565b6040516108a79190613849565b60405180910390f35b3480156108bb575f80fd5b506108c4611967565b005b3480156108d1575f80fd5b506108ec60048036038101906108e79190613ef4565b611979565b005b3480156108f9575f80fd5b50610902611a9f565b60405161090f91906139ba565b60405180910390f35b348015610923575f80fd5b5061093e60048036038101906109399190613bf6565b611ac7565b60405161094c929190613cb3565b60405180910390f35b348015610960575f80fd5b5061097b60048036038101906109769190613f7d565b611b6d565b005b348015610988575f80fd5b50610991611c1b565b60405161099e919061354c565b60405180910390f35b3480156109b2575f80fd5b506109bb611c21565b6040516109c8919061354c565b60405180910390f35b3480156109dc575f80fd5b506109f760048036038101906109f29190613cda565b611c27565b604051610a05929190613d8e565b60405180910390f35b348015610a19575f80fd5b50610a346004803603810190610a2f9190613fbb565b611ccb565b604051610a419190613849565b60405180910390f35b348015610a55575f80fd5b50610a706004803603810190610a6b9190613a11565b611d6b565b005b348015610a7d575f80fd5b50610a986004803603810190610a939190613a11565b611f81565b604051610aa5919061354c565b60405180910390f35b348015610ab9575f80fd5b50610ac2611f96565b604051610acf9190614180565b60405180910390f35b348015610ae3575f80fd5b50610afe6004803603810190610af99190613a82565b612021565b604051610b0d93929190613b5e565b60405180910390f35b348015610b21575f80fd5b50610b2a612042565b604051610b37919061354c565b60405180910390f35b348015610b4b575f80fd5b50610b666004803603810190610b61919061419a565b61204d565b005b348015610b73575f80fd5b50610b8e6004803603810190610b899190613612565b6120e4565b604051610b9b919061354c565b60405180910390f35b348015610baf575f80fd5b50610bb86120f9565b604051610bc591906141e5565b60405180910390f35b348015610bd9575f80fd5b50610bf46004803603810190610bef91906141fe565b61211d565b604051610c019190613849565b60405180910390f35b348015610c15575f80fd5b50610c306004803603810190610c2b919061393e565b6121b7565b604051610c3d919061354c565b60405180910390f35b348015610c51575f80fd5b50610c6c6004803603810190610c679190613fbb565b6121d7565b604051610c799190613849565b60405180910390f35b348015610c8d575f80fd5b50610c96612277565b604051610ca3919061354c565b60405180910390f35b348015610cb7575f80fd5b50610cc061227d565b604051610ccd919061354c565b60405180910390f35b348015610ce1575f80fd5b50610cfc6004803603810190610cf791906134d6565b612283565b005b348015610d09575f80fd5b50610d246004803603810190610d1f91906134d6565b61233c565b005b348015610d31575f80fd5b50610d4c6004803603810190610d479190613789565b6123c0565b604051610d599190613849565b60405180910390f35b6008602052805f5260405f205f915054906101000a900460ff1681565b6103e881565b60085f3373ffffffffffffffffffffffffffffffffffffffff1673ffffffffffffffffffffffffffffffffffffffff1681526020019081526020015f205f9054906101000a900460ff16610e0e576040517f08c379a0000000000000000000000000000000000000000000000000000000008152600401610e05906142a8565b60405180910390fd5b8260035f8281526020019081526020015f206003015f9054906101000a900460ff16610e6f576040517f08c379a0000000000000000000000000000000000000000000000000000000008152600401610e6690614310565b60405180910390fd5b610e776123d9565b5f60035f8681526020019081526020015f20905080600201548160010154610e9f919061435b565b421015610ee1576040517f08c379a0000000000000000000000000000000000000000000000000000000008152600401610ed8906143d8565b60405180910390fd5b838160030160026101000a81548173ffffffffffffffffffffffffffffffffffffffff021916908373ffffffffffffffffffffffffffffffffffffffff16021790555082816004018190555060018160030160016101000a81548160ff0219169083151502179055505f816003015f6101000a81548160ff0219169083151502179055508373ffffffffffffffffffffffffffffffffffffffff16815f0154867f32f65ad10bfa4a0ee9db45ba15bf04a4005908f729d666edbc5e421b4519206c86604051610fb0919061354c565b60405180910390a450610fc161241d565b50505050565b6003602052805f5260405f205f91509050805f015490806001015490806002015490806003015f9054906101000a900460ff16908060030160019054906101000a900460ff16908060030160029054906101000a900473ffffffffffffffffffffffffffffffffffffffff16908060040154908060050154905088565b5f7f000000000000000000000000000000000000000000000000000000000000000073ffffffffffffffffffffffffffffffffffffffff163373ffffffffffffffffffffffffffffffffffffffff16146110ca576040517fae18210a00000000000000000000000000000000000000000000000000000000815260040160405180910390fd5b6110d78686868686612426565b905095945050505050565b5f7f000000000000000000000000000000000000000000000000000000000000000073ffffffffffffffffffffffffffffffffffffffff163373ffffffffffffffffffffffffffffffffffffffff1614611168576040517fae18210a00000000000000000000000000000000000000000000000000000000815260040160405180910390fd5b61117586868686866124ff565b905095945050505050565b5f825f0160208101906111939190614420565b8360200160208101906111a69190614420565b8460400160208101906111b99190614475565b6040516020016111cb939291906144c0565b60405160208183030381529060405280519060200120905081600b5f8381526020019081526020015f2081905550505050565b7f000000000000000000000000000000000000000000000000000000000000000081565b60c881565b61122f6125ce565b611237612655565b565b600c81565b6005602052815f5260405f20602052805f5260405f205f91509150505481565b8060065f8481526020019081526020015f20819055505050565b60095f9054906101000a900473ffffffffffffffffffffffffffffffffffffffff1681565b8060025f8481526020019081526020015f20819055505050565b6002602052805f5260405f205f915090505481565b6006602052805f5260405f205f915090505481565b5f805f7f000000000000000000000000000000000000000000000000000000000000000073ffffffffffffffffffffffffffffffffffffffff163373ffffffffffffffffffffffffffffffffffffffff1614611369576040517fae18210a00000000000000000000000000000000000000000000000000000000815260040160405180910390fd5b61137688888888886126b7565b925092509250955095509592505050565b5f600160149054906101000a900460ff16905090565b7f000000000000000000000000000000000000000000000000000000000000000081565b5f807f000000000000000000000000000000000000000000000000000000000000000073ffffffffffffffffffffffffffffffffffffffff163373ffffffffffffffffffffffffffffffffffffffff1614611448576040517fae18210a00000000000000000000000000000000000000000000000000000000815260040160405180910390fd5b61145789898989898989612713565b9150915097509795505050505050565b5f80611477888888888888612747565b91509150965096945050505050565b5f7f000000000000000000000000000000000000000000000000000000000000000073ffffffffffffffffffffffffffffffffffffffff163373ffffffffffffffffffffffffffffffffffffffff161461150c576040517fae18210a00000000000000000000000000000000000000000000000000000000815260040160405180910390fd5b611518858585856127d4565b9050949350505050565b61152a6125ce565b6115335f612807565b565b8060075f8581526020019081526020015f205f8473ffffffffffffffffffffffffffffffffffffffff1673ffffffffffffffffffffffffffffffffffffffff1681526020019081526020015f2081905550505050565b6115936123d9565b5f60075f8381526020019081526020015f205f3373ffffffffffffffffffffffffffffffffffffffff1673ffffffffffffffffffffffffffffffffffffffff1681526020019081526020015f205490505f8111611625576040517f08c379a000000000000000000000000000000000000000000000000000000000815260040161161c9061453f565b60405180910390fd5b5f60065f8481526020019081526020015f205490505f60045f8581526020019081526020015f205490505f82848361165d919061455d565b61166791906145cb565b90505f81111561178e578060055f8781526020019081526020015f205f3373ffffffffffffffffffffffffffffffffffffffff1673ffffffffffffffffffffffffffffffffffffffff1681526020019081526020015f205f8282546116cc919061435b565b925050819055508060045f8781526020019081526020015f205f8282546116f391906145fb565b925050819055503373ffffffffffffffffffffffffffffffffffffffff166108fc8290811502906040515f60405180830381858888f1935050505015801561173d573d5f803e3d5ffd5b503373ffffffffffffffffffffffffffffffffffffffff16857ffec539b3c42d74cd492c3ecf7966bf014b327beef98e935cdc3ec5e54a6901c783604051611785919061354c565b60405180910390a35b5050505061179a61241d565b50565b5f60035f8581526020019081526020015f209050806003015f9054906101000a900460ff16611801576040517f08c379a00000000000000000000000000000000000000000000000000000000081526004016117f890614310565b60405180910390fd5b80600201548160010154611815919061435b565b421015611857576040517f08c379a000000000000000000000000000000000000000000000000000000000815260040161184e906143d8565b60405180910390fd5b828160030160026101000a81548173ffffffffffffffffffffffffffffffffffffffff021916908373ffffffffffffffffffffffffffffffffffffffff16021790555081816004018190555060018160030160016101000a81548160ff0219169083151502179055505f816003015f6101000a81548160ff0219169083151502179055508273ffffffffffffffffffffffffffffffffffffffff16815f0154857f32f65ad10bfa4a0ee9db45ba15bf04a4005908f729d666edbc5e421b4519206c85604051611926919061354c565b60405180910390a450505050565b8060045f8481526020019081526020015f20819055505050565b5f61195c8686868686612426565b905095945050505050565b61196f6125ce565b6119776128ca565b565b604051806101000160405280878152602001858152602001848152602001831515815260200182151581526020015f73ffffffffffffffffffffffffffffffffffffffff1681526020015f81526020015f81525060035f8781526020019081526020015f205f820151815f015560208201518160010155604082015181600201556060820151816003015f6101000a81548160ff02191690831515021790555060808201518160030160016101000a81548160ff02191690831515021790555060a08201518160030160026101000a81548173ffffffffffffffffffffffffffffffffffffffff021916908373ffffffffffffffffffffffffffffffffffffffff16021790555060c0820151816004015560e08201518160050155905050505050505050565b5f60015f9054906101000a900473ffffffffffffffffffffffffffffffffffffffff16905090565b5f807f000000000000000000000000000000000000000000000000000000000000000073ffffffffffffffffffffffffffffffffffffffff163373ffffffffffffffffffffffffffffffffffffffff1614611b4e576040517fae18210a00000000000000000000000000000000000000000000000000000000815260040160405180910390fd5b611b5d8989898989898961292c565b9150915097509795505050505050565b611b756125ce565b8060085f8473ffffffffffffffffffffffffffffffffffffffff1673ffffffffffffffffffffffffffffffffffffffff1681526020019081526020015f205f6101000a81548160ff0219169083151502179055508173ffffffffffffffffffffffffffffffffffffffff167fc176fcf7d48a6aca0d96d3b3201f7add47c4af04ce9a51f5f4eb15d528c46e2182604051611c0f919061351b565b60405180910390a25050565b600a5481565b61213481565b5f807f000000000000000000000000000000000000000000000000000000000000000073ffffffffffffffffffffffffffffffffffffffff163373ffffffffffffffffffffffffffffffffffffffff1614611cae576040517fae18210a00000000000000000000000000000000000000000000000000000000815260040160405180910390fd5b611cbc888888888888612747565b91509150965096945050505050565b5f7f000000000000000000000000000000000000000000000000000000000000000073ffffffffffffffffffffffffffffffffffffffff163373ffffffffffffffffffffffffffffffffffffffff1614611d51576040517fae18210a00000000000000000000000000000000000000000000000000000000815260040160405180910390fd5b611d5f878787878787612960565b90509695505050505050565b5f60075f8381526020019081526020015f205f3373ffffffffffffffffffffffffffffffffffffffff1673ffffffffffffffffffffffffffffffffffffffff1681526020019081526020015f205490505f8111611dfd576040517f08c379a0000000000000000000000000000000000000000000000000000000008152600401611df49061453f565b60405180910390fd5b5f60065f8481526020019081526020015f205490505f60045f8581526020019081526020015f205490505f81118015611e3557505f82115b15611f7b575f828285611e48919061455d565b611e5291906145cb565b90505f811115611f79578060045f8781526020019081526020015f205f828254611e7c91906145fb565b925050819055508060055f8781526020019081526020015f205f3373ffffffffffffffffffffffffffffffffffffffff1673ffffffffffffffffffffffffffffffffffffffff1681526020019081526020015f205f828254611ede919061435b565b925050819055503373ffffffffffffffffffffffffffffffffffffffff166108fc8290811502906040515f60405180830381858888f19350505050158015611f28573d5f803e3d5ffd5b503373ffffffffffffffffffffffffffffffffffffffff16857ffec539b3c42d74cd492c3ecf7966bf014b327beef98e935cdc3ec5e54a6901c783604051611f70919061354c565b60405180910390a35b505b50505050565b6004602052805f5260405f205f915090505481565b611f9e6133ee565b604051806101c001604052805f151581526020015f151581526020016001151581526020015f151581526020016001151581526020015f151581526020016001151581526020016001151581526020015f151581526020015f151581526020015f151581526020015f151581526020015f151581526020015f1515815250905090565b5f805f61203188888888886126b7565b925092509250955095509592505050565b66038d7ea4c6800081565b6120556125ce565b6103e881111561209a576040517f08c379a000000000000000000000000000000000000000000000000000000000815260040161209190614678565b60405180910390fd5b5f600a54905081600a819055507ff579147a7a27652efe56a2f791890638acfb4625388b7c67846205588b4009fb81836040516120d8929190614696565b60405180910390a15050565b600b602052805f5260405f205f915090505481565b7f000000000000000000000000000000000000000000000000000000000000000081565b5f7f000000000000000000000000000000000000000000000000000000000000000073ffffffffffffffffffffffffffffffffffffffff163373ffffffffffffffffffffffffffffffffffffffff16146121a3576040517fae18210a00000000000000000000000000000000000000000000000000000000815260040160405180910390fd5b6121ae848484612993565b90509392505050565b6007602052815f5260405f20602052805f5260405f205f91509150505481565b5f7f000000000000000000000000000000000000000000000000000000000000000073ffffffffffffffffffffffffffffffffffffffff163373ffffffffffffffffffffffffffffffffffffffff161461225d576040517fae18210a00000000000000000000000000000000000000000000000000000000815260040160405180910390fd5b61226b8787878787876129c6565b90509695505050505050565b61271081565b61012c81565b61228b6125ce565b5f73ffffffffffffffffffffffffffffffffffffffff168173ffffffffffffffffffffffffffffffffffffffff16036122f9576040517f08c379a00000000000000000000000000000000000000000000000000000000081526004016122f090614707565b60405180910390fd5b8060095f6101000a81548173ffffffffffffffffffffffffffffffffffffffff021916908373ffffffffffffffffffffffffffffffffffffffff16021790555050565b6123446125ce565b5f73ffffffffffffffffffffffffffffffffffffffff168173ffffffffffffffffffffffffffffffffffffffff16036123b4575f6040517f1e4fbdf70000000000000000000000000000000000000000000000000000000081526004016123ab91906139ba565b60405180910390fd5b6123bd81612807565b50565b5f6123ce86868686866124ff565b905095945050505050565b60025f5403612414576040517f3ee5aeb500000000000000000000000000000000000000000000000000000000815260040160405180910390fd5b60025f81905550565b60015f81905550565b5f806124418680360381019061243c9190614875565b6129f9565b90505f856040013512156124eb575f856040013561245e906148a0565b90508060075f8481526020019081526020015f205f8a73ffffffffffffffffffffffffffffffffffffffff1673ffffffffffffffffffffffffffffffffffffffff1681526020019081526020015f205f8282546124bb91906145fb565b925050819055508060065f8481526020019081526020015f205f8282546124e291906145fb565b92505081905550505b6321d0ee7060e01b91505095945050505050565b5f8061251a868036038101906125159190614875565b6129f9565b90505f856040013513156125ba57846040013560075f8381526020019081526020015f205f8973ffffffffffffffffffffffffffffffffffffffff1673ffffffffffffffffffffffffffffffffffffffff1681526020019081526020015f205f828254612587919061435b565b92505081905550846040013560065f8381526020019081526020015f205f8282546125b2919061435b565b925050819055505b63259982e560e01b91505095945050505050565b6125d6612a05565b73ffffffffffffffffffffffffffffffffffffffff166125f4611a9f565b73ffffffffffffffffffffffffffffffffffffffff161461265357612617612a05565b6040517f118cdaa700000000000000000000000000000000000000000000000000000000815260040161264a91906139ba565b60405180910390fd5b565b61265d612a0c565b5f600160146101000a81548160ff0219169083151502179055507f5db9ee0a495bf2e6ff9c91a7834c1ba4fdd244a5e8aa4e537bd38aeae4b073aa6126a0612a05565b6040516126ad91906139ba565b60405180910390a1565b5f805f6126c2612a4c565b5f6126dc888036038101906126d79190614875565b6129f9565b90506126e88888612a8d565b156126f7576126f681612bd4565b5b63575e24b460e01b5f8093509350935050955095509592505050565b5f806040517f0a85dc2900000000000000000000000000000000000000000000000000000000815260040160405180910390fd5b5f805f6127638880360381019061275e9190614875565b6129f9565b90505f60025f8381526020019081526020015f205490505f801b81141580156127aa575060035f8281526020019081526020015f2060030160019054906101000a900460ff165b156127ba576127b98282612d93565b5b63b47b2fb160e01b5f935093505050965096945050505050565b5f6040517f0a85dc2900000000000000000000000000000000000000000000000000000000815260040160405180910390fd5b5f60015f9054906101000a900473ffffffffffffffffffffffffffffffffffffffff1690508160015f6101000a81548173ffffffffffffffffffffffffffffffffffffffff021916908373ffffffffffffffffffffffffffffffffffffffff1602179055508173ffffffffffffffffffffffffffffffffffffffff168173ffffffffffffffffffffffffffffffffffffffff167f8be0079c531659141344cd1fd0a4f28419497f9722a3daafe3b4186f6b6457e060405160405180910390a35050565b6128d2612a4c565b60018060146101000a81548160ff0219169083151502179055507f62e78cea01bee320cd4e420270b5ea74000d11b0c9f74754ebdbfc544b05a258612915612a05565b60405161292291906139ba565b60405180910390a1565b5f806040517f0a85dc2900000000000000000000000000000000000000000000000000000000815260040160405180910390fd5b5f6040517f0a85dc2900000000000000000000000000000000000000000000000000000000815260040160405180910390fd5b5f6040517f0a85dc2900000000000000000000000000000000000000000000000000000000815260040160405180910390fd5b5f6040517f0a85dc2900000000000000000000000000000000000000000000000000000000815260040160405180910390fd5b5f60a082209050919050565b5f33905090565b612a14611387565b612a4a576040517f8dfc202b00000000000000000000000000000000000000000000000000000000815260040160405180910390fd5b565b612a54611387565b15612a8b576040517fd93c066500000000000000000000000000000000000000000000000000000000815260040160405180910390fd5b565b5f80612a9884612f5d565b90505f7f000000000000000000000000000000000000000000000000000000000000000073ffffffffffffffffffffffffffffffffffffffff1663ac41865a865f016020810190612ae99190614420565b876020016020810190612afc9190614420565b6040518363ffffffff1660e01b8152600401612b199291906148e6565b602060405180830381865afa158015612b34573d5f803e3d5ffd5b505050506040513d601f19601f82011682018060405250810190612b589190614921565b90505f818311612b8b57826127108484612b7291906145fb565b612b7c919061455d565b612b8691906145cb565b612bb0565b816127108385612b9b91906145fb565b612ba5919061455d565b612baf91906145cb565b5b9050600a548110158015612bc95750612bc885612ffb565b5b935050505092915050565b5f801b60025f8381526020019081526020015f205403612d90575f814243604051602001612c049392919061498c565b604051602081830303815290604052805190602001209050604051806101000160405280838152602001428152602001600c81526020016001151581526020015f151581526020015f73ffffffffffffffffffffffffffffffffffffffff1681526020015f81526020015f81525060035f8381526020019081526020015f205f820151815f015560208201518160010155604082015181600201556060820151816003015f6101000a81548160ff02191690831515021790555060808201518160030160016101000a81548160ff02191690831515021790555060a08201518160030160026101000a81548173ffffffffffffffffffffffffffffffffffffffff021916908373ffffffffffffffffffffffffffffffffffffffff16021790555060c0820151816004015560e082015181600501559050508060025f8481526020019081526020015f208190555081817f8d50f1936786e8fcaf1a432bed2207696b5cc11646e7107f3e439f44546d848242600c604051612d86929190614696565b60405180910390a3505b50565b5f60035f8381526020019081526020015f2090505f816004015490505f811115612f3f575f61271061213483612dc9919061455d565b612dd391906145cb565b90505f6127106103e884612de7919061455d565b612df191906145cb565b90505f61271061012c85612e05919061455d565b612e0f91906145cb565b90508260045f8981526020019081526020015f205f828254612e31919061435b565b92505081905550612e428784613040565b5f821115612e8f573373ffffffffffffffffffffffffffffffffffffffff166108fc8390811502906040515f60405180830381858888f19350505050158015612e8d573d5f803e3d5ffd5b505b5f811115612efd5760095f9054906101000a900473ffffffffffffffffffffffffffffffffffffffff1673ffffffffffffffffffffffffffffffffffffffff166108fc8290811502906040515f60405180830381858888f19350505050158015612efb573d5f803e3d5ffd5b505b867f9f28cf522c1dd60442bfdecae6dfd5abc02b942618ef4f1e2fb7f3efdc8b4f4585858585604051612f3394939291906149c8565b60405180910390a25050505b5f801b60025f8681526020019081526020015f208190555050505050565b5f80825f016020810190612f719190614420565b836020016020810190612f849190614420565b846040016020810190612f979190614475565b604051602001612fa9939291906144c0565b6040516020818303038152906040528051906020012090505f600b5f8381526020019081526020015f205490505f811115612fe8578092505050612ff6565b612ff18461306b565b925050505b919050565b5f670de0b6b3a76400008260200135138061303957507ffffffffffffffffffffffffffffffffffffffffffffffffff21f494c589c00008260200135125b9050919050565b8060045f8481526020019081526020015f205f828254613060919061435b565b925050819055505050565b5f80613076836131ff565b90505f8173ffffffffffffffffffffffffffffffffffffffff160361315a577f000000000000000000000000000000000000000000000000000000000000000073ffffffffffffffffffffffffffffffffffffffff1663ac41865a845f0160208101906130e39190614420565b8560200160208101906130f69190614420565b6040518363ffffffff1660e01b81526004016131139291906148e6565b602060405180830381865afa15801561312e573d5f803e3d5ffd5b505050506040513d601f19601f820116820180604052508101906131529190614921565b9150506131fa565b5f8173ffffffffffffffffffffffffffffffffffffffff1690505f60c0670de0b6b3a7640000838461318c919061455d565b613196919061455d565b901c90506131c7855f0160208101906131af9190614420565b8660200160208101906131c29190614420565b613205565b156131f3575f8111156131f257806ec097ce7bc90715b34b9f10000000006131ef91906145cb565b90505b5b8093505050505b919050565b5f919050565b5f808390505f8390505f73a0b86a33e6441c4c27d3f50c9d6d14bdf12f4e6e90505f73dac17f958d2ee523a2206206994597c13d831ec790505f736b175474e89094c44da98b954eedeac495271d0f90508273ffffffffffffffffffffffffffffffffffffffff168473ffffffffffffffffffffffffffffffffffffffff1614806132bb57508173ffffffffffffffffffffffffffffffffffffffff168473ffffffffffffffffffffffffffffffffffffffff16145b806132f157508073ffffffffffffffffffffffffffffffffffffffff168473ffffffffffffffffffffffffffffffffffffffff16145b15613303575f955050505050506133e8565b8273ffffffffffffffffffffffffffffffffffffffff168573ffffffffffffffffffffffffffffffffffffffff16148061336857508173ffffffffffffffffffffffffffffffffffffffff168573ffffffffffffffffffffffffffffffffffffffff16145b8061339e57508073ffffffffffffffffffffffffffffffffffffffff168573ffffffffffffffffffffffffffffffffffffffff16145b156133b1576001955050505050506133e8565b8373ffffffffffffffffffffffffffffffffffffffff168573ffffffffffffffffffffffffffffffffffffffff1610955050505050505b92915050565b604051806101c001604052805f151581526020015f151581526020015f151581526020015f151581526020015f151581526020015f151581526020015f151581526020015f151581526020015f151581526020015f151581526020015f151581526020015f151581526020015f151581526020015f151581525090565b5f604051905090565b5f80fd5b5f80fd5b5f73ffffffffffffffffffffffffffffffffffffffff82169050919050565b5f6134a58261347c565b9050919050565b6134b58161349b565b81146134bf575f80fd5b50565b5f813590506134d0816134ac565b92915050565b5f602082840312156134eb576134ea613474565b5b5f6134f8848285016134c2565b91505092915050565b5f8115159050919050565b61351581613501565b82525050565b5f60208201905061352e5f83018461350c565b92915050565b5f819050919050565b61354681613534565b82525050565b5f60208201905061355f5f83018461353d565b92915050565b5f819050919050565b61357781613565565b8114613581575f80fd5b50565b5f813590506135928161356e565b92915050565b6135a181613534565b81146135ab575f80fd5b50565b5f813590506135bc81613598565b92915050565b5f805f606084860312156135d9576135d8613474565b5b5f6135e686828701613584565b93505060206135f7868287016134c2565b9250506040613608868287016135ae565b9150509250925092565b5f6020828403121561362757613626613474565b5b5f61363484828501613584565b91505092915050565b5f61364782613565565b9050919050565b6136578161363d565b82525050565b6136668161349b565b82525050565b5f610100820190506136805f83018b61364e565b61368d602083018a61353d565b61369a604083018961353d565b6136a7606083018861350c565b6136b4608083018761350c565b6136c160a083018661365d565b6136ce60c083018561353d565b6136db60e083018461353d565b9998505050505050505050565b5f80fd5b5f60a08284031215613701576137006136e8565b5b81905092915050565b5f6080828403121561371f5761371e6136e8565b5b81905092915050565b5f80fd5b5f80fd5b5f80fd5b5f8083601f84011261374957613748613728565b5b8235905067ffffffffffffffff8111156137665761376561372c565b5b60208301915083600182028301111561378257613781613730565b5b9250929050565b5f805f805f61016086880312156137a3576137a2613474565b5b5f6137b0888289016134c2565b95505060206137c1888289016136ec565b94505060c06137d28882890161370a565b93505061014086013567ffffffffffffffff8111156137f4576137f3613478565b5b61380088828901613734565b92509250509295509295909350565b5f7fffffffff0000000000000000000000000000000000000000000000000000000082169050919050565b6138438161380f565b82525050565b5f60208201905061385c5f83018461383a565b92915050565b5f8060c0838503121561387857613877613474565b5b5f613885858286016136ec565b92505060a0613896858286016135ae565b9150509250929050565b5f819050919050565b5f6138c36138be6138b98461347c565b6138a0565b61347c565b9050919050565b5f6138d4826138a9565b9050919050565b5f6138e5826138ca565b9050919050565b6138f5816138db565b82525050565b5f60208201905061390e5f8301846138ec565b92915050565b61391d81613565565b8114613927575f80fd5b50565b5f8135905061393881613914565b92915050565b5f806040838503121561395457613953613474565b5b5f6139618582860161392a565b9250506020613972858286016134c2565b9150509250929050565b5f806040838503121561399257613991613474565b5b5f61399f8582860161392a565b92505060206139b0858286016135ae565b9150509250929050565b5f6020820190506139cd5f83018461365d565b92915050565b5f80604083850312156139e9576139e8613474565b5b5f6139f68582860161392a565b9250506020613a0785828601613584565b9150509250929050565b5f60208284031215613a2657613a25613474565b5b5f613a338482850161392a565b91505092915050565b613a4581613565565b82525050565b5f602082019050613a5e5f830184613a3c565b92915050565b5f60608284031215613a7957613a786136e8565b5b81905092915050565b5f805f805f6101408688031215613a9c57613a9b613474565b5b5f613aa9888289016134c2565b9550506020613aba888289016136ec565b94505060c0613acb88828901613a64565b93505061012086013567ffffffffffffffff811115613aed57613aec613478565b5b613af988828901613734565b92509250509295509295909350565b5f819050919050565b5f613b2b613b26613b2184613b08565b6138a0565b613b08565b9050919050565b613b3b81613b11565b82525050565b5f62ffffff82169050919050565b613b5881613b41565b82525050565b5f606082019050613b715f83018661383a565b613b7e6020830185613b32565b613b8b6040830184613b4f565b949350505050565b5f613b9d826138ca565b9050919050565b613bad81613b93565b82525050565b5f602082019050613bc65f830184613ba4565b92915050565b613bd581613b08565b8114613bdf575f80fd5b50565b5f81359050613bf081613bcc565b92915050565b5f805f805f805f6101a0888a031215613c1257613c11613474565b5b5f613c1f8a828b016134c2565b9750506020613c308a828b016136ec565b96505060c0613c418a828b0161370a565b955050610140613c538a828b01613be2565b945050610160613c658a828b01613be2565b93505061018088013567ffffffffffffffff811115613c8757613c86613478565b5b613c938a828b01613734565b925092505092959891949750929550565b613cad81613b11565b82525050565b5f604082019050613cc65f83018561383a565b613cd36020830184613ca4565b9392505050565b5f805f805f806101608789031215613cf557613cf4613474565b5b5f613d0289828a016134c2565b9650506020613d1389828a016136ec565b95505060c0613d2489828a01613a64565b945050610120613d3689828a01613be2565b93505061014087013567ffffffffffffffff811115613d5857613d57613478565b5b613d6489828a01613734565b92509250509295509295509295565b5f81600f0b9050919050565b613d8881613d73565b82525050565b5f604082019050613da15f83018561383a565b613dae6020830184613d7f565b9392505050565b613dbe8161347c565b8114613dc8575f80fd5b50565b5f81359050613dd981613db5565b92915050565b5f8160020b9050919050565b613df481613ddf565b8114613dfe575f80fd5b50565b5f81359050613e0f81613deb565b92915050565b5f805f806101008587031215613e2e57613e2d613474565b5b5f613e3b878288016134c2565b9450506020613e4c878288016136ec565b93505060c0613e5d87828801613dcb565b92505060e0613e6e87828801613e01565b91505092959194509250565b5f805f60608486031215613e9157613e90613474565b5b5f613e9e8682870161392a565b9350506020613eaf868287016134c2565b9250506040613ec0868287016135ae565b9150509250925092565b613ed381613501565b8114613edd575f80fd5b50565b5f81359050613eee81613eca565b92915050565b5f805f805f8060c08789031215613f0e57613f0d613474565b5b5f613f1b89828a0161392a565b9650506020613f2c89828a01613584565b9550506040613f3d89828a016135ae565b9450506060613f4e89828a016135ae565b9350506080613f5f89828a01613ee0565b92505060a0613f7089828a01613ee0565b9150509295509295509295565b5f8060408385031215613f9357613f92613474565b5b5f613fa0858286016134c2565b9250506020613fb185828601613ee0565b9150509250929050565b5f805f805f806101208789031215613fd657613fd5613474565b5b5f613fe389828a016134c2565b9650506020613ff489828a016136ec565b95505060c061400589828a016135ae565b94505060e061401689828a016135ae565b93505061010087013567ffffffffffffffff81111561403857614037613478565b5b61404489828a01613734565b92509250509295509295509295565b61405c81613501565b82525050565b6101c082015f8201516140775f850182614053565b50602082015161408a6020850182614053565b50604082015161409d6040850182614053565b5060608201516140b06060850182614053565b5060808201516140c36080850182614053565b5060a08201516140d660a0850182614053565b5060c08201516140e960c0850182614053565b5060e08201516140fc60e0850182614053565b50610100820151614111610100850182614053565b50610120820151614126610120850182614053565b5061014082015161413b610140850182614053565b50610160820151614150610160850182614053565b50610180820151614165610180850182614053565b506101a082015161417a6101a0850182614053565b50505050565b5f6101c0820190506141945f830184614062565b92915050565b5f602082840312156141af576141ae613474565b5b5f6141bc848285016135ae565b91505092915050565b5f6141cf826138ca565b9050919050565b6141df816141c5565b82525050565b5f6020820190506141f85f8301846141d6565b92915050565b5f805f60e0848603121561421557614214613474565b5b5f614222868287016134c2565b9350506020614233868287016136ec565b92505060c061424486828701613dcb565b9150509250925092565b5f82825260208201905092915050565b7f456967656e4c56523a20756e617574686f72697a6564206f70657261746f72005f82015250565b5f614292601f8361424e565b915061429d8261425e565b602082019050919050565b5f6020820190508181035f8301526142bf81614286565b9050919050565b7f456967656e4c56523a2061756374696f6e206e6f7420616374697665000000005f82015250565b5f6142fa601c8361424e565b9150614305826142c6565b602082019050919050565b5f6020820190508181035f830152614327816142ee565b9050919050565b7f4e487b71000000000000000000000000000000000000000000000000000000005f52601160045260245ffd5b5f61436582613534565b915061437083613534565b92508282019050808211156143885761438761432e565b5b92915050565b7f456967656e4c56523a2061756374696f6e206e6f7420656e64656400000000005f82015250565b5f6143c2601b8361424e565b91506143cd8261438e565b602082019050919050565b5f6020820190508181035f8301526143ef816143b6565b9050919050565b6143ff8161349b565b8114614409575f80fd5b50565b5f8135905061441a816143f6565b92915050565b5f6020828403121561443557614434613474565b5b5f6144428482850161440c565b91505092915050565b61445481613b41565b811461445e575f80fd5b50565b5f8135905061446f8161444b565b92915050565b5f6020828403121561448a57614489613474565b5b5f61449784828501614461565b91505092915050565b5f6144aa826138ca565b9050919050565b6144ba816144a0565b82525050565b5f6060820190506144d35f8301866144b1565b6144e060208301856144b1565b6144ed6040830184613b4f565b949350505050565b7f456967656e4c56523a206e6f206c69717569646974792070726f7669646564005f82015250565b5f614529601f8361424e565b9150614534826144f5565b602082019050919050565b5f6020820190508181035f8301526145568161451d565b9050919050565b5f61456782613534565b915061457283613534565b925082820261458081613534565b915082820484148315176145975761459661432e565b5b5092915050565b7f4e487b71000000000000000000000000000000000000000000000000000000005f52601260045260245ffd5b5f6145d582613534565b91506145e083613534565b9250826145f0576145ef61459e565b5b828204905092915050565b5f61460582613534565b915061461083613534565b92508282039050818111156146285761462761432e565b5b92915050565b7f456967656e4c56523a207468726573686f6c6420746f6f2068696768000000005f82015250565b5f614662601c8361424e565b915061466d8261462e565b602082019050919050565b5f6020820190508181035f83015261468f81614656565b9050919050565b5f6040820190506146a95f83018561353d565b6146b6602083018461353d565b9392505050565b7f456967656e4c56523a20696e76616c69642061646472657373000000000000005f82015250565b5f6146f160198361424e565b91506146fc826146bd565b602082019050919050565b5f6020820190508181035f83015261471e816146e5565b9050919050565b5f80fd5b5f601f19601f8301169050919050565b7f4e487b71000000000000000000000000000000000000000000000000000000005f52604160045260245ffd5b61476f82614729565b810181811067ffffffffffffffff8211171561478e5761478d614739565b5b80604052505050565b5f6147a061346b565b90506147ac8282614766565b919050565b5f6147bb8261349b565b9050919050565b6147cb816147b1565b81146147d5575f80fd5b50565b5f813590506147e6816147c2565b92915050565b5f60a0828403121561480157614800614725565b5b61480b60a0614797565b90505f61481a8482850161440c565b5f83015250602061482d8482850161440c565b602083015250604061484184828501614461565b604083015250606061485584828501613e01565b6060830152506080614869848285016147d8565b60808301525092915050565b5f60a0828403121561488a57614889613474565b5b5f614897848285016147ec565b91505092915050565b5f6148aa82613b08565b91507f800000000000000000000000000000000000000000000000000000000000000082036148dc576148db61432e565b5b815f039050919050565b5f6040820190506148f95f8301856144b1565b61490660208301846144b1565b9392505050565b5f8151905061491b81613598565b92915050565b5f6020828403121561493657614935613474565b5b5f6149438482850161490d565b91505092915050565b5f819050919050565b6149666149618261363d565b61494c565b82525050565b5f819050919050565b61498661498182613534565b61496c565b82525050565b5f6149978286614955565b6020820191506149a78285614975565b6020820191506149b78284614975565b602082019150819050949350505050565b5f6080820190506149db5f83018761353d565b6149e8602083018661353d565b6149f5604083018561353d565b614a02606083018461353d565b9594505050505056fea2646970667358221220dfced39ff16d7278bbc2f29f3fa99e81971d7c7b2d1d535c441034558942fd1e64736f6c634300081a0033","linkReferences":{}},"methodIdentifiers":{"AVS_REWARD_PERCENTAGE()":"1a8a61f3","BASIS_POINTS()":"e1f1c4a7","GAS_COMPENSATION_PERCENTAGE()":"2ae8c718","LP_REWARD_PERCENTAGE()":"b26565c5","MAX_AUCTION_DURATION()":"3fb35178","MIN_BID()":"ce69cd20","PROTOCOL_FEE_PERCENTAGE()":"e4d7d6dc","activeAuctions(bytes32)":"5498304c","afterAddLiquidity(address,(address,address,uint24,int24,address),(int24,int24,int256,bytes32),int256,int256,bytes)":"9f063efc","afterDonate(address,(address,address,uint24,int24,address),uint256,uint256,bytes)":"e1b4af69","afterInitialize(address,(address,address,uint24,int24,address),uint160,int24)":"6fe7e6eb","afterRemoveLiquidity(address,(address,address,uint24,int24,address),(int24,int24,int256,bytes32),int256,int256,bytes)":"6c2bbe7e","afterSwap(address,(address,address,uint24,int24,address),(bool,int256,uint160),int256,bytes)":"b47b2fb1","auctions(bytes32)":"1edbc5be","authorizedOperators(address)":"181d989b","avsDirectory()":"6b3aa72e","beforeAddLiquidity(address,(address,address,uint24,int24,address),(int24,int24,int256,bytes32),bytes)":"259982e5","beforeDonate(address,(address,address,uint24,int24,address),uint256,uint256,bytes)":"b6a8b0fa","beforeInitialize(address,(address,address,uint24,int24,address),uint160)":"dc98354e","beforeRemoveLiquidity(address,(address,address,uint24,int24,address),(int24,int24,int256,bytes32),bytes)":"21d0ee70","beforeSwap(address,(address,address,uint24,int24,address),(bool,int256,uint160),bytes)":"575e24b4","claimRewards(bytes32)":"7790ddc6","feeRecipient()":"46904840","getHookPermissions()":"c4e833ce","lpLiquidity(bytes32,address)":"dcd728b5","lpRewards(bytes32,address)":"44612456","lvrThreshold()":"af4cbe80","mockPoolPrices(bytes32)":"d5eab68d","owner()":"8da5cb5b","pause()":"8456cb59","paused()":"5c975abb","poolManager()":"dc4c90d3","poolRewards(bytes32)":"c0e8d384","priceOracle()":"2630c12f","renounceOwnership()":"715018a6","setFeeRecipient(address)":"e74b981b","setLVRThreshold(uint256)":"d40ea4d9","setMockPoolPrice((address,address,uint24,int24,address),uint256)":"2619b98a","setOperatorAuthorization(address,bool)":"a99e4087","submitAuctionResult(bytes32,address,uint256)":"1e52301c","testAfterSwap(address,(address,address,uint24,int24,address),(bool,int256,uint160),int256,bytes)":"6fac2187","testBeforeAddLiquidity(address,(address,address,uint24,int24,address),(int24,int24,int256,bytes32),bytes)":"f6afbb63","testBeforeRemoveLiquidity(address,(address,address,uint24,int24,address),(int24,int24,int256,bytes32),bytes)":"83b83aca","testBeforeSwap(address,(address,address,uint24,int24,address),(bool,int256,uint160),bytes)":"c8dc5568","testClaimRewards(bytes32)":"ba651620","testCreateAuction(bytes32,bytes32,uint256,uint256,bool,bool)":"872edadc","testSetActiveAuction(bytes32,bytes32)":"4b2328e8","testSetLpLiquidity(bytes32,address,uint256)":"726b0114","testSetPoolRewards(bytes32,uint256)":"835c1a52","testSetTotalLiquidity(bytes32,uint256)":"44a32bff","testSubmitAuctionResult(bytes32,address,uint256)":"7f98978c","totalLiquidity(bytes32)":"54b7a8f7","transferOwnership(address)":"f2fde38b","unpause()":"3f4ba83a"},"id":95}